:100000000C9462000C948A000C948A000C943B01BE
:100010000C9465010C948F010C948A000C948A0056
:100020000C948A000C948A000C948A000C945B094E
:100030000C948A000C948A000C948A000C948A0018
:100040000C945B0D0C948A000C948A000C948A002A
:100050000C948A000C948A000C948A000C948A00F8
:100060000C94A7030C948A000000000024002700D1
:100070002A0000000000250028002B0000000000DE
:1000800023002600290004040404040404040202DA
:100090000202020203030303030301020408102007
:1000A0004080010204081020010204081020000012
:1000B0000007000201000003040600000000000029
:1000C0000000400511241FBECFEFD8E0DEBFCDBF3A
:1000D00011E0A0E0B1E0E0ECFFE102C005900D927C
:1000E000A036B107D9F712E0A0E6B1E001C01D9239
:1000F000A13AB107E1F710E0C4ECD0E004C02297C8
:10010000FE010E94DA0FC23CD107C9F70E94470DD9
:100110000C94DE0F0C940000FC0182810E94F60E0C
:1001200020E0019709F421E0822F0895FC018281EB
:1001300060E00E94A20E0895FC01828161E00E94AD
:10014000A20E0895FC0182810E94410E20E08D5B89
:1001500092400CF021E0822F0895FC01828193816E
:100160000895EF92FF920F931F938C018AE090E025
:100170000E94580DF82EE92E0E94900AF801F28292
:10018000E38286E090E00E94580DF82EE92E0E944E
:100190000506F801F082E1821F910F91FF90EF9028
:1001A00008950F931F93CF93DF93FC01738D769582
:1001B0007170A685B7859585772329F08C91892361
:1001C00009F454C004C08C91892309F04FC083897D
:1001D000948920E001972FEF8F3F9207D9F7C589C7
:1001E000D689A685B785158560E031E040E050E00E
:1001F00000E0CE01202F01972FEF8F3F9207D9F714
:100200008C91812311F0632B03C0832F8095682389
:10021000330F4F5F5F4F4830510559F78789908DF5
:1002200020E001972FEF8F3F9207D9F7711160956A
:100230008091A2012091A30190E001968F739070AC
:1002400030E08217930779F0E091A201F0E0EE59D7
:10025000FE4F60838091A20190E001968F739070B1
:100260008093A20103C0838D8160838FDF91CF9142
:100270001F910F9108951F920F920FB60F921124A4
:100280002F933F934F935F936F937F938F939F939E
:10029000AF93BF93EF93FF938091600190916101C1
:1002A000009711F00E94D100FF91EF91BF91AF91A3
:1002B0009F918F917F916F915F914F913F912F917E
:1002C0000F900FBE0F901F9018951F920F920FB6B0
:1002D0000F9211242F933F934F935F936F937F93CC
:1002E0008F939F93AF93BF93EF93FF9380916001A0
:1002F00090916101009711F00E94D100FF91EF9160
:10030000BF91AF919F918F917F916F915F914F912D
:100310003F912F910F900FBE0F901F9018951F9235
:100320000F920FB60F9211242F933F934F935F9329
:100330006F937F938F939F93AF93BF93EF93FF93AD
:100340008091600190916101009711F00E94D100AD
:10035000FF91EF91BF91AF919F918F917F916F919D
:100360005F914F913F912F910F900FBE0F901F9073
:100370001895FC01138212828FE391E091838083B0
:100380000895DF93CF930F92CDB7DEB7FC01698359
:100390008091E9018823C9F08091E801803238F02A
:1003A00081E090E09383828320E030E01AC0809166
:1003B000E701E82FF0E0E953FE4F998190838F5FCA
:1003C0008093E7018093E8010AC080911F02843086
:1003D00031F481E08093450289818093480221E0D5
:1003E00030E0C9010F90CF91DF910895CF92DF9255
:1003F000EF92FF920F931F93CF93DF936C018B01CA
:100400007A018091E9018823A1F0C0E0D0E00DC01D
:10041000D601ED91FC91D801AC0FBD1F0190F08188
:10042000E02DC6016C9109952196CE15DF0580F36C
:1004300013C0413288F480911F02843069F4E09245
:100440004502562FA8E4B2E0FB0102C081918D93D2
:100450008E2F851B8417D0F3C701DF91CF911F9199
:100460000F91FF90EF90DF90CF9008952091C501FC
:1004700030E08091C401281B3109C90108954091E1
:10048000C4018091C501481718F02FEF3FEF0AC053
:10049000E42FF0E0EC55FE4F8081282F30E04F5FD5
:1004A0004093C401C9010895E091C4018091C50140
:1004B000E81718F0EFEFFFEF06C0F0E0EC55FE4F45
:1004C0008081E82FF0E0CF0108950895AC012091DC
:1004D000EC013091ED0121153105E1F09091C4015D
:1004E0008091C5019817B0F090E008C0FA01EA0FBA
:1004F000FB1F8081AC55BE4F8C939F5FA92FB0E04E
:10050000A617B7079CF31092C4016093C501CB01F5
:10051000F90109950895E091EA01F091EB01309716
:1005200029F01092E7011092E8010995089570935F
:10053000ED016093EC0108950F931F93582F122F34
:10054000413210F081E045C080911F028823E1F71D
:1005500082E080931F0200931D028FEF80932002A0
:100560001092FB014093FC01ADEFB1E0FB0102C032
:1005700081918D938E2F861B8417D0F31092FA01F0
:100580008091FA01550F852B8093FA0180911E020C
:10059000813041F410921E028091FA018093BB00D9
:1005A00085EC01C085EE8093BC001123A9F08091F9
:1005B0001F02823089F4FBCF80912002803211F437
:1005C00082E007C080912002803311F084E001C0F6
:1005D00083E01F910F910895809120028F3F61F772
:1005E00080E0F7CF0F93062F8091C60167EC71E092
:1005F0004091E80121E00E949C021092E7011092D4
:10060000E8011092E9010F91089561E00E94F20261
:100610000895FF920F931F93F42E81E08093E901D8
:1006200082E68093C6011092E7011092E8010EEE77
:1006300011E0C8010E94C101C8016F2D0E94C101D3
:10064000C8010E9405031F910F91FF900895EF923A
:10065000FF920F931F938C01362FF42EE22E64E04D
:10066000432F0E940903C80163E04F2D0E94090334
:10067000C80162E04E2D0E9409031F910F91FF9067
:10068000EF900895EF92FF920F931F93CF93DF9314
:100690007C0181E08093E9018EE38093C601109292
:1006A000E7011092E801C0E0D0E0062F10E009C099
:1006B000F701EC0FFD1F8EEE91E060810E94C101F9
:1006C0002196C017D107A4F38EEE91E00E94050396
:1006D000DF91CF911F910F91FF90EF900895DF93DD
:1006E000CF9300D0CDB7DEB780E489836A83CE0193
:1006F000019662E00E94420381E090E00F900F902B
:10070000CF91DF910895DF93CF9300D0CDB7DEB7BF
:1007100080E889836A83CE01019662E00E944203E9
:100720000F900F90CF91DF910895FC016581862F86
:10073000846085836C60CF010E9483030895FC016F
:1007400065816B7F658368600E94830308951F92B3
:100750000F920FB60F9211242F933F934F935F93F5
:100760006F937F938F939F93AF93BF93EF93FF9379
:100770008091B90090E0887F90708036910509F4EF
:10078000F2C081369105CCF58832910509F47BC021
:1007900089329105B4F48031910509F46FC081313B
:1007A00091053CF4009709F447C1089709F04FC13F
:1007B00065C08831910509F466C0809709F047C18A
:1007C00082C08034910509F4A4C08134910544F4B9
:1007D0008033910509F482C0C89709F038C189C0F7
:1007E0008035910509F489C08835910509F496C0D2
:1007F0008834910509F02BC1AEC08839910509F400
:1008000013C189399105ECF48837910509F4ABC01F
:10081000893791054CF48836910509F4A4C08037D6
:10082000910509F014C19FC08838910509F4FCC0F6
:100830008039910509F49DC08038910509F007C100
:1008400098C0803B910509F4C6C0813B91054CF4EA
:10085000803A910509F49FC0883A910509F0F7C0E4
:10086000BAC0803C910509F4E3C0883C910509F4C5
:10087000DFC0883B910509F0EAC0C2C08091FA014F
:100880008093BB00CFC09091FB018091FC01981731
:1008900068F49091FB01E92FF0E0E350FE4F808176
:1008A0008093BB009F5F9093FB01BCC080911D02B1
:1008B000882309F44BC085ED8093BC008091BC0077
:1008C00084FDFCCFC2C080E28093200285ED80933E
:1008D000BC008091BC0084FDFCCFB7C080E3809356
:1008E000200285ED8093BC008091BC0084FDFCCF8C
:1008F000ACC088E3809320029BC08091FB01909163
:10090000BB00E82FF0E0E350FE4F90838F5F8093B1
:10091000FB019091FB018091FC0182C08091FB0161
:100920009091BB00E82FF0E0E350FE4F90838F5F83
:100930008093FB0180911D02882341F085ED809317
:10094000BC008091BC0084FDFCCF7FC081E080931F
:100950001E0284EA6EC085ED8093BC008091BC00CD
:1009600084FDFCCF72C083E080931F0210922102AD
:1009700059C080912102803208F056C08091210236
:100980009091BB00E82FF0E0EE5DFD4F90838F5F0C
:100990008093210247C080912102803230F4E0919F
:1009A0002102F0E0EE5DFD4F108285ED8093BC00EA
:1009B0008091BC0084FDFCCF10921F026091210247
:1009C000E0914202F091430282E292E070E00995E8
:1009D000109221022DC084E080931F0210924402E5
:1009E00010924502E0914602F091470209958091EC
:1009F0004502882329F481E0809345021092480241
:100A000090914402E92FF0E0E85BFD4F80818093F4
:100A1000BB009F5F909344029091440280914502F5
:100A2000981710F485EC01C085E88093BC000FC0D6
:100A300085EC8093BC0009C01092200285ED809364
:100A4000BC008091BC0084FDFCCF10921F02FF917E
:100A5000EF91BF91AF919F918F917F916F915F9136
:100A60004F913F912F910F900FBE0F901F901895AF
:100A700004960E949503089504960E949F0308958A
:100A80001092F1011092F00188EE93E0A0E0B0E046
:100A90008093F2019093F301A093F401B093F501D8
:100AA0008FE291E09093EF018093EE010895109210
:100AB0001F0281E080931D0210921E0282E161E01C
:100AC0000E94A20E83E161E00E94A20EE9EBF0E039
:100AD00080818E7F808380818D7F808388E4809376
:100AE000B80085E48093BC0008951092C401109270
:100AF000C5011092E7011092E8010E945705089580
:100B0000660F6093BA002BE832E0309347022093DF
:100B1000460226E632E030934302209342020E94CE
:100B2000750508950E948005089561E00E94830381
:100B300080ED97E00E94FC0D08950F931F93CF93D3
:100B4000DF93EC01142F022F8EEE91E00E947505C9
:100B5000123018F08C8188608C83188719860023E6
:100B600029F0113019F48C8184608C8380E593EC3A
:100B70000E94FC0D6C816062CE010E94830384E9B7
:100B800091E10E94FC0D6C816062CE010E948303A2
:100B900086E990E00E94FC0D6C816062CE010E94AB
:100BA00083036C816062CE010E94830384E08D83A5
:100BB000CE010E949503CE010E94950582E08E83AE
:100BC000CE0166E00E948303CE0160E040E00E9417
:100BD0000903CE0161E040E00E940903CE0168E014
:100BE0004AEA0E940903CE016FEF4FEF2FEF0E94F8
:100BF0002703DF91CF911F910F910895049660E034
:100C000040E020E00E949D0508950F931F938C0102
:100C100084E090E00E94580DFC012BE531E0318327
:100C20002083D8018D939C9320915B0130915C01CE
:100C300062E070E0F901099584E090E00E94580DAF
:100C4000FC012BE031E031832083D80113969C9383
:100C50008E93129720910B0130910C0166E070E0A9
:100C6000F901099584E090E00E94580DFC012DE106
:100C700031E031832083D80115969C938E9314978D
:100C800020911D0130911E0160E070E0F90109958D
:100C90001F910F910895FC01828160E00E94A20ED5
:100CA0000895FC01828161E00E94A20E0895FC017A
:100CB000809168028C3090F480838F5F809368020B
:100CC000815090E0FC01EE0FFF1FE80FF91FE7597C
:100CD000FD4F88EB9BE09283818308958FEF8083A3
:100CE0000895DC018C9190E0FC01EE0FFF1FE80FEE
:100CF000F91FE759FD4F80818F7B80838C916CE0D9
:100D00000E94680F90E0AC01440F551F480F591F17
:100D1000440F551F440F551F20E030E0C901840FD8
:100D2000951FFC01EE0FFF1FE80FF91FE759FD4F5C
:100D3000808186FD05C02F5F3F4F2C30310571F754
:100D40000895FC0120812C30B8F58181992787FD19
:100D5000909548E850E0481B590B440F551F440F2D
:100D6000551F6417750784F08281992787FD909538
:100D700048E552E0481B590B440F551F440F551FBF
:100D8000641775070CF4AB0142505040CA01AA2702
:100D900097FDA095BA2F880F991FAA1FBB1F4FB7A9
:100DA000F89430E0F901EE0FFF1FE20FF31FE7594F
:100DB000FD4F928381834FBF0895FC017287618745
:100DC000548743870895AF92BF92CF92DF92EF92FC
:100DD000FF920F931F93CF93DF93EC019B0182E06F
:100DE000603278070CF048C077FF03C020E030E0A5
:100DF00005C0653B710514F024EB30E000D000D055
:100E0000B901882777FD8095982F2981332727FD01
:100E10003095E8E8AE2EB12CA21AB30AAA0CBB1C7E
:100E2000AA0CBB1CCC24B7FCC094DC2CEA81FF27A5
:100E3000E7FDF09528E532E02E1B3F0B220F331F14
:100E4000220F331F442737FD4095542FEDB7FEB7CF
:100E5000218332834383548320E030E040E050E03C
:100E600004EBE02EF12C012D112D0E94C80B9B01EB
:100E70000F900F900F900F90CE01B9010E94A10624
:100E8000DF91CF911F910F91FF90EF90DF90CF9066
:100E9000BF90AF900895CF92DF92EF92FF920F93A1
:100EA0001F93CF93DF938C01FC018481958102977E
:100EB000D9F0A6E0EA2EF12CE00EF11ECBE4D0E052
:100EC000F2E0CF2ED12CC701BE010E94E3066AE0FA
:100ED00070E080E090E00E94A30DF801D582C4820A
:100EE0002196C53AD10579F7DF91CF911F910F91E6
:100EF000FF90EF90DF90CF900895CF92DF92EF9226
:100F0000FF920F931F93CF93DF938C01FC01848199
:100F100095810197D9F086E0E82EF12CE00EF11EC4
:100F2000C5EAD0E0B1E0CB2ED12CC701BE010E94B2
:100F3000E3066AE070E080E090E00E94A30DF80113
:100F4000D582C4822197CB34D10579F7DF91CF9137
:100F50001F910F91FF90EF90DF90CF900895CF9267
:100F6000DF92EF92FF921F93CF93DF93EC01162F46
:100F70007A01690188818C3008F064C0862F61E0B5
:100F80000E94630E888190E0FC01EE0FFF1FE80FC6
:100F9000F91FE759FD4F1F738081807C812B80836F
:100FA00080E292E08E199F0964E070E00E94740F65
:100FB000698380E699E08C199D0964E070E00E94E5
:100FC000740F6A83A8818A2F6CE00E94680F682FD3
:100FD00070E0AB01440F551F460F571F440F551FBC
:100FE000440F551F20E030E0C901840F951FFC011C
:100FF000EE0FFF1FE80FF91FE759FD4F808186FDB7
:1010000015C02F5F3F4F2C30310571F724C010926F
:10101000800082E08093810010928500109284000D
:10102000B19A80916F00826080936F008A2F90E068
:10103000FC01EE0FFF1FE80FF91FE759FD4F8081FC
:10104000806480838881DF91CF911F91FF90EF9022
:10105000DF90CF900895672BD1F2E8CF40E252E0C5
:1010600020E639E00E94AF070895EF92FF920F93B8
:101070001F93CF93DF938C01FC01848195810297AC
:1010800009F475C036E0E32EF12CE00EF11EC70125
:1010900068E070E00E942E08C0E0D0E0CE0164E17C
:1010A00070E00E94740F892BA9F4F801A385B48520
:1010B000ED91FC9111970280F381E02DCD0109950E
:1010C000F801A185B285ED91FC9111970280F38121
:1010D000E02D1BC0CE016AE070E00E94740F892BE6
:1010E000B1F4F801A385B485ED91FC9111970480CA
:1010F000F581E02DCD010995F801A185B285ED912D
:10110000FC9111970480F581E02DCD010995C55B17
:10111000DF4FC701BE010E94E30662E370E080E09A
:1011200090E00E94A30DCA54D040CA35D10509F001
:10113000B5CFC7010E947106F801A385B485ED9172
:10114000FC9111970480F581E02DCD010995F801FE
:10115000A185B285ED91FC9111970480F581E02D78
:10116000CD01099582E090E0F80195838483DF91B9
:10117000CF911F910F91FF90EF900895EF92FF9202
:101180000F931F93CF93DF938C01FC018481958192
:10119000019709F473C046E0E42EF12CE00EF11E35
:1011A000C70168E070E00E942E08CAE5D0E0CE01D9
:1011B00064E170E00E94740F892BA9F4F801A38503
:1011C000B485ED91FC9111970280F381E02DCD0162
:1011D0000995F801A185B285ED91FC9111970280E6
:1011E000F381E02D1BC0CE016AE070E00E94740F15
:1011F000892BB1F4F801A385B485ED91FC91119789
:101200000480F581E02DCD010995F801A185B28515
:10121000ED91FC9111970480F581E02DCD010995A8
:10122000C55BDF4FC701BE010E94E30662E370E0C9
:1012300080E090E00E94A30DCC54D04009F0B7CFDD
:10124000C7010E947106F801A385B485ED91FC9158
:1012500011970480F581E02DCD010995F801A18554
:10126000B285ED91FC9111970480F581E02DCD01BF
:10127000099581E090E0F80195838483DF91CF9117
:101280001F910F91FF90EF9008950F931F938C0182
:1012900006960E942E08D801ED91FC910280F38100
:1012A000E02DC801099581E090E0F80195838483E1
:1012B0001F910F9108951F920F920FB60F92112454
:1012C0002F933F934F935F936F937F938F939F934E
:1012D000AF93BF93EF93FF9380918D0287FF05C07B
:1012E00010928500109284002BC020918D0233272C
:1012F00027FD30958091680290E02817390704F5A2
:1013000080918D02992787FD9095FC01EE0FFF1FBC
:10131000E80FF91FE759FD4F808186FF11C08091CA
:101320008D02992787FD9095FC01EE0FFF1FE80FB6
:10133000F91FE759FD4F80818F7360E00E94A20E74
:1013400080918D028F5F80938D0220918D023327D3
:1013500027FD30958091680290E0281739070CF03E
:101360004EC080918D028C300CF049C020918400D9
:101370003091850080918D02992787FD9095FC0121
:10138000EE0FFF1FE80FF91FE759FD4F8181928192
:10139000280F391F309389002093880080918D0297
:1013A000992787FD9095FC01EE0FFF1FE80FF91FAD
:1013B000E759FD4F808186FF2BC080918D029927D0
:1013C00087FD9095FC01EE0FFF1FE80FF91FE7590D
:1013D000FD4F80818F7361E00E94A20E19C080E4EE
:1013E0009CE905C0809184009091850004969093BB
:1013F0008900809388008FEF80938D0209C08091CF
:10140000840090918500049680549C4940F3EACF73
:10141000FF91EF91BF91AF919F918F917F916F91CC
:101420005F914F913F912F910F900FBE0F901F90A2
:101430001895FC01862F6283738360E00E94630E1F
:101440000895FC01862F6283738360E00E94630E1F
:1014500008950895DC011296ED91FC911397A081F7
:10146000B18112962D913C911397CF01F901099505
:101470000895DC011296ED91FC911397A081B18142
:1014800014962D913C911597CF01F9010995089576
:10149000DC011496ED91FC911597A081B181129613
:1014A0002D913C911397CF01F90109950895DC0125
:1014B0001496ED91FC911597A081B18114962D9110
:1014C0003C911597CF01F90109950895DC01189613
:1014D000ED91FC911997A081B18112962D913C91CB
:1014E0001397CF01F90109950895DC011896ED9144
:1014F000FC911997A081B18114962D913C9115977B
:10150000CF01F90109950895FC01808191810E9424
:1015100035080895FC01808191810E94BE080895DC
:10152000CF92DF92EF92FF920F931F937C0184E0A2
:1015300090E00E94580DFC0107E411E01183008344
:10154000D70113969C938E931297C0904701D09029
:10155000480163E070E0F601099584E090E00E94A4
:10156000580DFC0111830083D70115969C938E932F
:10157000149767E070E0F60109958DE090E00E9415
:10158000580D8C0181E591E0F80191838083C801B9
:1015900006960E945706D7010D931C93D801ED9132
:1015A000FC910190F081E02DC80168E070E00995A0
:1015B000F7016085718542815381808191810E940C
:1015C000DD068EE090E00E94580D8C0185E291E0EE
:1015D000D8018D939C93C80104960E94B901F7012C
:1015E00017830683D801ED91FC910190F081E02DE5
:1015F000C80160E070E00995F701A681B781ED911F
:10160000FC9111970280F381E02DCD01099584E0D2
:1016100090E00E94580DFC0123E131E031832083EA
:10162000D70119969C938E931897209113013091AE
:10163000140164E070E0F90109951F910F91FF908A
:10164000EF90DF90CF90089508950F931F930EEEC3
:1016500011E0C80165E070E00E949205C8016AE3EC
:101660007BE00E9497028EE892E00E94B1001F91F9
:101670000F9108955BC08EEE91E00E943F0290931F
:101680009302809392028630910571F18730910523
:1016900054F484309105D1F085309105F4F403972A
:1016A00009F044C00CC08830910561F18830910583
:1016B00014F18930910569F10A97C1F531C08EE8BE
:1016C00092E00E94AD000E942A0A30C08EE892E0AB
:1016D0000E94AD000E94390A29C08EE892E00E9463
:1016E000AD000E948A0A22C08EE892E00E94AD00FE
:1016F0000E94840A1BC08EE892E00E94AD000E9406
:10170000660A14C08EE892E00E94AD000E94750A3D
:101710000DC08EE892E00E94AD000E94480A06C00B
:101720008EE892E00E94AD000E94570A8EEE91E092
:101730000E943602892B09F09ECF0895CF92DF9246
:10174000EF92FF920F931F93CF93DF937C016B0176
:101750008A01C0E0D0E00FC0D6016D916D01D701C4
:10176000ED91FC910190F081E02DC7010995C80F22
:10177000D91F015010400115110571F7CE01DF91FD
:10178000CF911F910F91FF90EF90DF90CF90089530
:101790002F923F924F925F926F927F928F929F9281
:1017A000AF92BF92CF92DF92EF92FF920F931F936F
:1017B000DF93CF93CDB7DEB73B014C0119012A016E
:1017C0006D897E898F89988D6A197B098C099D099D
:1017D000621A730A840A950AA40193010E94490FB0
:1017E000E218F30804091509A80197010E94A90F3E
:1017F0002A0D3B1D4C1D5D1DB901CA01CF91DF9122
:101800001F910F91FF90EF90DF90CF90BF90AF901E
:101810009F908F907F906F905F904F903F902F9010
:1018200008950F931F93CF93DF93BC0182309105EE
:1018300010F462E070E0E0919F02F091A00240E0BD
:1018400050E0A0E0B0E024C0808191818617970726
:10185000D0F08617970771F482819381109729F051
:1018600013969C938E9312972CC09093A002809312
:101870009F0227C04115510519F08417950718F4E8
:101880008D01AC01EF01DF01828193819C01F9019F
:101890003097D1F641155105F9F0CA01861B970B17
:1018A0008430910580F48A819B810115110521F016
:1018B000F8019383828304C09093A00280939F02D7
:1018C000FE01329645C0FE01E80FF91F6193719346
:1018D0000297998388833CC080919D0290919E02DB
:1018E000892B41F4809102019091030190939E0213
:1018F00080939D02409104015091050141155105CD
:1019000041F44DB75EB78091000190910101481BF1
:10191000590B20919D0230919E0224173507B0F497
:10192000CA01821B930B8617970780F0AB014E5FAD
:101930005F4F8417950750F0420F531F50939E023C
:1019400040939D02F9016193719302C0E0E0F0E0E1
:10195000CF01DF91CF911F910F910895CF93DF9326
:101960009C01009709F48FC0EC0122971B821A8218
:1019700060919F027091A0026115710581F48881C8
:101980009981820F931F20919D0230919E0228170A
:10199000390739F5D0939E02C0939D0274C0DB01D4
:1019A00040E050E0AC17BD0708F1BB83AA83FE01FD
:1019B00021913191E20FF31FAE17BF0779F48D919A
:1019C0009C911197280F391F2E5F3F4F3983288331
:1019D00012968D919C9113979B838A834115510593
:1019E00071F4D093A002C0939F024DC012968D91C6
:1019F0009C911397AD01009711F0DC01D3CFDA0170
:101A00001396DC93CE931297FA0121913191E20F54
:101A1000F31FCE17DF0769F488819981280F391FDA
:101A20002E5F3F4FFA01318320838A819B8193830C
:101A30008283E0E0F0E0DB0112968D919C91139798
:101A4000009719F0BC01FD01F6CFAB014E5F5F4F6F
:101A5000DB018D919C91840F951F20919D02309107
:101A60009E022817390779F4309729F41092A002C2
:101A700010929F0202C01382128242505040509333
:101A80009E0240939D02DF91CF9108950895CF93D8
:101A9000DF930E94060E0E94460D0E94250BC0E0B7
:101AA000D0E00E94240B2097E1F30E940000F9CFC0
:101AB0000E94110C08951F920F920FB60F921124DD
:101AC0002F933F938F939F93AF93BF9380919802EF
:101AD00090919902A0919A02B0919B0230919C0240
:101AE0000196A11DB11D232F2D5F2D3720F02D57FD
:101AF0000196A11DB11D20939C02809398029093A2
:101B00009902A0939A02B0939B02809194029091C3
:101B10009502A0919602B09197020196A11DB11D68
:101B20008093940290939502A0939602B0939702AB
:101B3000BF91AF919F918F913F912F910F900FBEC9
:101B40000F901F9018959B01AC017FB7F89480917E
:101B5000940290919502A0919602B091970266B579
:101B6000A89B05C06F3F19F00196A11DB11D7FBF55
:101B7000BA2FA92F982F8827860F911DA11DB11D5F
:101B800062E0880F991FAA1FBB1F6A95D1F7BC019D
:101B90002DC0FFB7F8948091940290919502A09186
:101BA0009602B0919702E6B5A89B05C0EF3F19F0E9
:101BB0000196A11DB11DFFBFBA2FA92F982F88270D
:101BC0008E0F911DA11DB11DE2E0880F991FAA1F64
:101BD000BB1FEA95D1F7861B970B885E9340C8F22E
:101BE000215030404040504068517C4F2115310514
:101BF0004105510571F60895019739F0880F991F35
:101C0000880F991F02970197F1F70895789484B58A
:101C1000826084BD84B5816084BD85B5826085BDE8
:101C200085B5816085BDEEE6F0E0808181608083CE
:101C3000E1E8F0E0108280818260808380818160B1
:101C40008083E0E8F0E0808181608083E1EBF0E078
:101C5000808184608083E0EBF0E08081816080831C
:101C6000EAE7F0E080818460808380818260808305
:101C70008081816080838081806880831092C10030
:101C80000895982F8E3008F09E509770809106012D
:101C90008295880F880F807C892B80937C008091AF
:101CA0007A00806480937A0080917A0086FDFCCF70
:101CB0002091780040917900942F80E030E0282B2B
:101CC000392BC9010895CF93DF93482F50E0CA0103
:101CD00086569F4FFC0134914A575F4FFA01849119
:101CE000882369F190E0880F991FFC01E859FF4FA4
:101CF000A591B491FC01EE58FF4FC591D491662394
:101D000051F42FB7F8948C91932F909589238C934D
:101D1000888189230BC0623061F42FB7F8948C91CD
:101D2000932F909589238C938881832B88832FBF51
:101D300006C09FB7F8948C91832B8C939FBFDF9143
:101D4000CF910895482F50E0CA0182559F4FFC0162
:101D50002491CA0186569F4FFC0194914A575F4FC8
:101D6000FA013491332309F440C0222351F1233086
:101D700071F0243028F42130A1F0223011F514C084
:101D80002630B1F02730C1F02430D9F404C080915E
:101D900080008F7703C0809180008F7D80938000CA
:101DA00010C084B58F7702C084B58F7D84BD09C013
:101DB0008091B0008F7703C08091B0008F7D8093B9
:101DC000B000E32FF0E0EE0FFF1FEE58FF4FA5919C
:101DD000B4912FB7F894662321F48C9190958923C0
:101DE00002C08C91892B8C932FBF0895682F70E0CF
:101DF000CB0182559F4FFC012491CB0186569F4F0A
:101E0000FC0144916A577F4FFB019491992319F487
:101E100020E030E03CC0222351F1233071F0243027
:101E200028F42130A1F0223011F514C02630B1F091
:101E30002730C1F02430D9F404C0809180008F771E
:101E400003C0809180008F7D8093800010C084B596
:101E50008F7702C084B58F7D84BD09C08091B000AA
:101E60008F7703C08091B0008F7D8093B000892F61
:101E700090E0880F991F84589F4FFC01A591B49161
:101E80008C9120E030E0842311F021E030E0C901A2
:101E90000895629FD001739FF001829FE00DF11DB4
:101EA000649FE00DF11D929FF00D839FF00D749FD4
:101EB000F00D659FF00D9927729FB00DE11DF91F80
:101EC000639FB00DE11DF91FBD01CF0111240895DD
:101ED000991B79E004C0991F961708F0961B881F7C
:101EE0007A95C9F78095089597FB092E07260AD0A1
:101EF00077FD04D049D006D000201AF47095619582
:101F00007F4F0895F6F7909581959F4F0895A1E230
:101F10001A2EAA1BBB1BFD010DC0AA1FBB1FEE1F63
:101F2000FF1FA217B307E407F50720F0A21BB30BAE
:101F3000E40BF50B661F771F881F991F1A9469F72A
:101F400060957095809590959B01AC01BD01CF0186
:101F5000089597FB092E05260ED057FD04D0D7DF34
:101F60000AD0001C38F450954095309521953F4F8C
:101F70004F4F5F4F0895F6F7909580957095619556
:101F80007F4F8F4F9F4F0895AA1BBB1B51E107C086
:101F9000AA1FBB1FA617B70710F0A61BB70B881FF9
:101FA000991F5A95A9F780959095BC01CD01089588
:101FB000EE0FFF1F0590F491E02D0994F894FFCFE8
:101FC0008000A10200000100000000190A8C00003E
:101FD000000000210A9C00960000000000190AA2DF
:101FE0000000000000FE0538053C0500000000C1AF
:101FF00001F60136023F0254026502000000006F44
:10200000039E0B00000000210A51064B0600000051
:102010000045097D074B0700000000190A290A0046
:00000001FF
