:100000000C94B2000C94DA000C94DA000C949F016A
:100010000C94C9010C94F3010C94DA000C94DA00EE
:100020000C94DA000C94DA000C94DA000C94130CA3
:100030000C94DA000C94DA000C94DA000C94DA00D8
:100040000C940E120C94DA000C94DA000C94DA0082
:100050000C94DA000C94DA000C94DA000C94DA00B8
:100060000C944F060C94DA0000C20100010011004C
:1000700011000C0000E100000A002500250021000D
:10008000009600001900390039003600127A00008D
:100090001F004600460044008070000022004D0012
:1000A0004D004A00004B00003600750075007200DC
:1000B000403800004A009C009C0099008025000008
:1000C0007200EC00EC00E900C0120000E900DA0167
:1000D000DA01D70160090000D701B603B603B30304
:1000E000B0040000B3036E076E076B0758020000F0
:1000F0006E07DC0EDC0ED80E2C010000DC0EC11DDC
:10010000C11DBE1D00000000240027002A000000C1
:100110000000250028002B0000000000230026001E
:10012000290004040404040404040202020202027A
:1001300003030303030301020408102040800102AB
:10014000040810200102040810200000000700022B
:100150000100000304060000000000000000E807A2
:10016000BA0DB30D11241FBECFEFD8E0DEBFCDBF57
:1001700012E0A0E0B1E0ECE3F9E202C005900D92DC
:10018000A235B107D9F713E0A2E5B2E001C01D9294
:10019000A33AB107E1F711E0C2E6D1E004C022972B
:1001A000FE010E948D14CE35D107C9F70E94FA11C5
:1001B0000C9491140C940000FB01DC0102C001902E
:1001C0000D9241505040D8F70895FB01DC01019099
:1001D0000D920020E1F70895FC0182810E94A9138D
:1001E00020E0019709F421E0822F0895FC0182812B
:1001F00060E00E9455130895FC01828161E00E9435
:1002000055130895FC0182810E94F41220E08D5B59
:1002100092400CF021E0822F0895FC0182819381AD
:100220000895FC01808191810895EF92FF920F93D0
:100230001F938C018AE090E00E940B12F82EE92EA9
:100240000E94F40CF801F282E38286E090E00E94C2
:100250000B12F82EE92E0E94BD08F801F082E1820F
:100260001F910F91FF90EF9008950F931F93CF93DD
:10027000DF93FC01738D76957170A685B7859585A2
:10028000772329F08C91892309F454C004C08C9100
:10029000892309F04FC08389948920E001972FEFCB
:1002A0008F3F9207D9F7C589D689A685B785158569
:1002B00060E031E040E050E000E0CE01202F019707
:1002C0002FEF8F3F9207D9F78C91812311F0632B89
:1002D00003C0832F80956823330F4F5F5F4F4830F3
:1002E000510559F78789908D20E001972FEF8F3FB7
:1002F0009207D9F77111609580919402209195022F
:1003000090E001968F73907030E08217930779F038
:10031000E0919402F0E0EC5AFD4F608380919402EA
:1003200090E001968F7390708093940203C0838D48
:100330008160838FDF91CF911F910F9108951F925C
:100340000F920FB60F9211242F933F934F935F9309
:100350006F937F938F939F93AF93BF93EF93FF938D
:100360008091520290915302009711F00E94350142
:10037000FF91EF91BF91AF919F918F917F916F917D
:100380005F914F913F912F910F900FBE0F901F9053
:1003900018951F920F920FB60F9211242F933F932F
:1003A0004F935F936F937F938F939F93AF93BF937D
:1003B000EF93FF938091520290915302009711F0B6
:1003C0000E943501FF91EF91BF91AF919F918F9165
:1003D0007F916F915F914F913F912F910F900FBE41
:1003E0000F901F9018951F920F920FB60F92112425
:1003F0002F933F934F935F936F937F938F939F932D
:10040000AF93BF93EF93FF93809152029091530269
:10041000009711F00E943501FF91EF91BF91AF91CC
:100420009F918F917F916F915F914F913F912F910C
:100430000F900FBE0F901F901895CF92DF92EF9202
:10044000FF920F931F93CF93DF93EC017A018B01FF
:100450001A8E198E188E1F8A1E8A1D8A1C8A1B8A64
:1004600020E030E06901CC0CDD1CC20ED31EB601C9
:10047000660F771F660F771FAB0148595F4FFA0170
:1004800085919591A591B4918E159F05A007B1070F
:10049000E9F4FB01E459FF4F859194919C8B8B8B80
:1004A000FB01E259FF4F859194919E8B8D8BFB014F
:1004B000E059FF4F85919491988F8F8BFB01EE58F7
:1004C000FF4F859194919A8F898F06C02F5F3F4F80
:1004D0002D30310509F0C6CF8F89988D892B09F40D
:1004E00049C04C85463108F03DC0909168004830C5
:1004F00010F484E005C04E3010F082E001C081E0CD
:10050000892B80936800483028F4EDE6F0E0ADE6F2
:10051000B0E00BC04E3028F0ECE6F0E0ACE6B0E026
:1005200004C0EBE6F0E0ABE6B0E05081483040F4C8
:1005300081E090E002C0880F991F4A95E2F710C051
:10054000242F30E04E3018F42850304002C02E5096
:10055000304081E090E002C0880F991F2A95E2F7B1
:10056000852B8C93898D9A8D20E001972FEF8F3FFB
:100570009207D9F780915202909153028C179D07F0
:1005800081F08B8D8E7F8B8F9FB7F89410929402A1
:100590008091940280939502D0935302C0935202AB
:1005A0009FBFDF91CF911F910F91FF90EF90DF9050
:1005B000CF900895209152023091530228173907A5
:1005C00031F49091950280919402981719F42FEFCD
:1005D0003FEF0FC0E0919502F0E0EC5AFD4F208113
:1005E0008091950290E001968F73907080939502B0
:1005F00030E0C9010895209152023091530228172A
:10060000390719F020E030E00EC08091940220916B
:10061000950290E0805C9F4F821B910960E470E03E
:100620000E9427149C01C90108950F931F93DC01B8
:1006300059968D919C915A97892B49F481E090E0CD
:1006400013969C938E93129720E030E097C00FB7DB
:10065000F8945B968C915B975196ED91FC91529733
:1006600050962C91509781FF8DC08081822B808382
:1006700059968D919C915A97059620E001972FEFFE
:100680008F3F9207D9F75B968C915B9781FF35C0BE
:1006900031E040E050E070E010E0832F90E08623EE
:1006A00097235196ED91FC91529750962C9150972B
:1006B000892B29F0808120952823208303C0808105
:1006C000822B808359968D919C915A97212F019767
:1006D0002FEF8F3F9207D9F7330F4F5F5F4F4830AF
:1006E0005105D9F65196ED91FC9152979081509613
:1006F0008C9150978095892333C031E040E050E0E1
:1007000070E010E0832F90E0862397235196ED91BF
:10071000FC91529750962C915097892B21F0808113
:10072000822B808304C080812095282320835996C2
:100730008D919C915A97212F01972FEF8F3F920710
:10074000D9F7330F4F5F5F4F48305105D9F65196B7
:10075000ED91FC915297808150969C915097892BF6
:1007600080830FBF59968D919C915A9720E00197F5
:100770002FEF8F3F9207D9F721E030E0C9011F9199
:100780000F910895808120952823208371CF209197
:100790005202309153022817390749F49FB7F89451
:1007A0001092940280919402809395029FBF0895C5
:1007B00020915202309153022817390731F4909159
:1007C000950280919402981719F42FEF3FEF0AC019
:1007D000E0919502F0E0EC5AFD4F8081282F3327FD
:1007E00027FD3095C90108951F93CF93DF93EC0146
:1007F000162F862F60E00E9416138B8D81FD04C09A
:10080000812F61E00E9455131C87212F30E0C90120
:100810008A5C9E4FFC0184918D872E5D3E4FF901CD
:100820006491E62FF0E0EE0FFF1FE85EFE4F85912A
:1008300094919F878E87DF91CF911F9108951F9389
:10084000CF93DF93EC01162F862F61E00E941613E1
:1008500060E08B8D81FF61E0812F0E945513212F75
:1008600030E0C9018A5C9E4FFC018491888B2E5D2B
:100870003E4FF9016491E62FF0E0EE0FFF1FE25FBB
:10088000FE4F859194919A8B898BDF91CF911F9127
:100890000895FF920F931F938C01F62EFC01138293
:1008A000128288EE93E0A0E0B0E084839583A68373
:1008B000B78388E092E091838083148A138A168A32
:1008C000158A108E178A128E118E838D2170220F39
:1008D0008C7F822B838FC801642F0E941F04C80164
:1008E0006F2D0E94F4031F910F91FF900895EF92D6
:1008F000FF920F931F938C018CE190E00E940B12EA
:10090000F82EE92E60E041E020E00E944904F80161
:10091000F086E1868F2D9E2D40E855E260E070E084
:100920000E941D021F910F91FF90EF900895FC010E
:100930001382128282E392E0918380830895DF9391
:10094000CF930F92CDB7DEB7FC0169838091DB02B4
:100950008823C9F08091DA02803238F081E090E09B
:100960009383828320E030E01AC08091D902E82F7F
:10097000F0E0E754FD4F998190838F5F8093D90217
:100980008093DA020AC080910D03843031F481E053
:100990008093330389818093360321E030E0C901DD
:1009A0000F90CF91DF910895CF92DF92EF92FF9257
:1009B0000F931F93CF93DF936C018B017A0180918A
:1009C000DB028823A1F0C0E0D0E00DC0D601ED919C
:1009D000FC91D801AC0FBD1F0190F081E02DC60144
:1009E0006C9109952196CE15DF0580F313C0413235
:1009F00088F480910D03843069F4E0923303562F1C
:100A0000A6E3B3E0FB0102C081918D938E2F851B7D
:100A10008417D0F3C701DF91CF911F910F91FF9001
:100A2000EF90DF90CF9008952091B70230E0809151
:100A3000B602281B3109C90108954091B602809180
:100A4000B702481718F02FEF3FEF0AC0E42FF0E08D
:100A5000EA56FD4F8081282F30E04F5F4093B60269
:100A6000C9010895E091B6028091B702E81718F025
:100A7000EFEFFFEF06C0F0E0EA56FD4F8081E82F70
:100A8000F0E0CF01089508950F931F93582F122F70
:100A9000413210F081E045C080910D038823E1F7D9
:100AA00082E080930D0300930B038FEF80930E037E
:100AB0001092E9024093EA02ABEEB2E0FB0102C001
:100AC00081918D938E2F861B8417D0F31092E802AC
:100AD0008091E802550F852B8093E80280910C03EA
:100AE000813041F410920C038091E8028093BB00A6
:100AF00085EC01C085EE8093BC001123A9F08091A4
:100B00000D03823089F4FBCF80910E03803211F403
:100B100082E007C080910E03803311F084E001C0B1
:100B200083E01F910F91089580910E038F3F61F72D
:100B300080E0F7CF0F93062F8091B80269EB72E047
:100B40004091DA0221E00E9444051092D9021092ED
:100B5000DA021092DB020F91089561E00E949A057B
:100B60000895FF920F931F93F42E81E08093DB0290
:100B700082E68093B8021092D9021092DA020CED4C
:100B800012E0C8010E949F04C8016F2D0E949F04BB
:100B9000C8010E94AD051F910F91FF900895EF923B
:100BA000FF920F931F938C01362FF42EE22E64E0F8
:100BB000432F0E94B105C80163E04F2D0E94B1058B
:100BC000C80162E04E2D0E94B1051F910F91FF9068
:100BD000EF900895EF92FF920F931F93CF93DF93BF
:100BE0007C0181E08093DB028EE38093B802109257
:100BF000D9021092DA02C0E0D0E0062F10E009C05E
:100C0000F701EC0FFD1F8CED92E060810E949F04C4
:100C10002196C017D107A4F38CED92E00E94AD0598
:100C2000DF91CF911F910F91FF90EF900895DF9387
:100C3000CF9300D0CDB7DEB780E489836A83CE013D
:100C4000019662E00E94EA0581E090E00F900F902B
:100C5000CF91DF910895DF93CF9300D0CDB7DEB76A
:100C600080E889836A83CE01019662E00E94EA05EA
:100C70000F900F90CF91DF910895FC016581862F31
:100C8000846085836C60CF010E942B060895FC016F
:100C900065816B7F658368600E942B0608951F92B3
:100CA0000F920FB60F9211242F933F934F935F93A0
:100CB0006F937F938F939F93AF93BF93EF93FF9324
:100CC0008091B90090E0887F90708036910509F49A
:100CD000F2C081369105CCF58832910509F47BC0CC
:100CE00089329105B4F48031910509F46FC08131E6
:100CF00091053CF4009709F447C1089709F04FC1EA
:100D000065C08831910509F466C0809709F047C134
:100D100082C08034910509F4A4C08134910544F463
:100D20008033910509F482C0C89709F038C189C0A1
:100D30008035910509F489C08835910509F496C07C
:100D40008834910509F02BC1AEC08839910509F4AA
:100D500013C189399105ECF48837910509F4ABC0CA
:100D6000893791054CF48836910509F4A4C0803781
:100D7000910509F014C19FC08838910509F4FCC0A1
:100D80008039910509F49DC08038910509F007C1AB
:100D900098C0803B910509F4C6C0813B91054CF495
:100DA000803A910509F49FC0883A910509F0F7C08F
:100DB000BAC0803C910509F4E3C0883C910509F470
:100DC000DFC0883B910509F0EAC0C2C08091E8020B
:100DD0008093BB00CFC09091E9028091EA029817FE
:100DE00068F49091E902E92FF0E0E551FD4F808130
:100DF0008093BB009F5F9093E902BCC080910B037E
:100E0000882309F44BC085ED8093BC008091BC0021
:100E100084FDFCCFC2C080E280930E0385ED8093F9
:100E2000BC008091BC0084FDFCCFB7C080E3809300
:100E30000E0385ED8093BC008091BC0084FDFCCF47
:100E4000ACC088E380930E039BC08091E90290912F
:100E5000BB00E82FF0E0E551FD4F90838F5F80935A
:100E6000E9029091E9028091EA0282C08091E90250
:100E70009091BB00E82FF0E0E551FD4F90838F5F2C
:100E80008093E90280910B03882341F085ED8093E4
:100E9000BC008091BC0084FDFCCF7FC081E08093CA
:100EA0000C0384EA6EC085ED8093BC008091BC0089
:100EB00084FDFCCF72C083E080930D0310920F037A
:100EC00059C080910F03803208F056C080910F0303
:100ED0009091BB00E82FF0E0E05FFC4F90838F5FC4
:100EE00080930F0347C080910F03803230F4E0916C
:100EF0000F03F0E0E05FFC4F108285ED8093BC00B3
:100F00008091BC0084FDFCCF10920D0360910F0313
:100F1000E0913003F091310380E193E070E00995B6
:100F200010920F032DC084E080930D0310923203C2
:100F300010923303E0913403F091350309958091C9
:100F40003303882329F481E080933303109236031E
:100F500090913203E92FF0E0EA5CFC4F80818093AE
:100F6000BB009F5F909332039091320380913303D3
:100F7000981710F485EC01C085E88093BC000FC081
:100F800085EC8093BC0009C010920E0385ED809320
:100F9000BC008091BC0084FDFCCF10920D03FF913A
:100FA000EF91BF91AF919F918F917F916F915F91E1
:100FB0004F913F912F910F900FBE0F901F9018955A
:100FC00004960E943D06089504960E9447060895DF
:100FD0001092DF021092DE0288EE93E0A0E0B0E013
:100FE0008093E0029093E102A093E202B093E302C7
:100FF00082E292E09093DD028093DC0208951092E9
:101000000D0381E080930B0310920C0382E161E0F9
:101010000E94551383E161E00E945513E9EBF0E073
:1010200080818E7F808380818D7F808388E4809320
:10103000B80085E48093BC0008951092B602109227
:10104000B7021092D9021092DA020E94FF070895A7
:1010500061E00E942B0680ED97E00E94AF12089598
:10106000EF92FF920F931F937B018C010C5F1F4F38
:10107000C8010E942808C801B7014AE050E00E9458
:10108000FF0E1F910F91FF90EF9008950F931F9304
:10109000CF93DF93EC01142F022F8CED92E00E948E
:1010A0001D08123018F08C8188608C83188719868F
:1010B000002329F0113019F48C8184608C8380E541
:1010C00093EC0E94AF126C816062CE010E942B06ED
:1010D00084E991E10E94AF126C816062CE010E94AE
:1010E0002B0686E990E00E94AF126C816062CE010F
:1010F0000E942B066C816062CE010E942B0684E068
:101100008D83CE010E943D06CE010E94280882E018
:101110008E83CE0166E00E942B06CE0160E040E0A7
:101120000E94B105CE0161E040E00E94B105CE0110
:1011300068E04AEA0E94B105CE016FEF4FEF2FEF52
:101140000E94CF05DF91CF911F910F9108950496D2
:1011500060E040E020E00E9446080895DC0112961D
:10116000ED91FC911397A081B18112962D913C9144
:101170001397CF01F901099508950F931F938C01DF
:1011800084E090E00E940B12FC012EE432E03183F7
:101190002083D8018D939C9320914E0230914F0271
:1011A00062E070E0F901099584E090E00E940B1282
:1011B000FC012EEE31E031832083D80113969C93FD
:1011C0008E9312972091EE013091EF0166E070E06E
:1011D000F901099584E090E00E940B12FC0120E0E7
:1011E00032E031832083D80115969C938E93149717
:1011F000209100023091010260E070E0F901099550
:101200001F910F910895FC01828160E00E945513A7
:101210000895FC01828161E00E9455130895FC014C
:10122000809156038C3090F480838F5F80935603B7
:10123000815090E0FC01EE0FFF1FE80FF91FE95A03
:10124000FC4F88EB9BE09283818308958FEF80832E
:101250000895DC018C9190E0FC01EE0FFF1FE80F78
:10126000F91FE95AFC4F80818F7B80838C916CE061
:101270000E941B1490E0AC01440F551F480F591FEA
:10128000440F551F440F551F20E030E0C901840F63
:10129000951FFC01EE0FFF1FE80FF91FE95AFC4FE5
:1012A000808186FD05C02F5F3F4F2C30310571F7DF
:1012B0000895FC0120812C30B8F58181992787FDA4
:1012C000909548E850E0481B590B440F551F440FB8
:1012D000551F6417750784F08281992787FD9095C3
:1012E00048E552E0481B590B440F551F440F551F4A
:1012F000641775070CF4AB0142505040CA01AA278D
:1013000097FDA095BA2F880F991FAA1FBB1F4FB733
:10131000F89430E0F901EE0FFF1FE20FF31FE95AD6
:10132000FC4F928381834FBF0895FC0172876187D0
:10133000548743870895AF92BF92CF92DF92EF9286
:10134000FF920F931F93CF93DF93EC019B0182E0F9
:10135000603278070CF048C077FF03C020E030E02F
:1013600005C0653B710514F024EB30E000D000D0DF
:10137000B901882777FD8095982F2981332727FD8C
:101380003095E8E8AE2EB12CA21AB30AAA0CBB1C09
:10139000AA0CBB1CCC24B7FCC094DC2CEA81FF2730
:1013A000E7FDF09528E532E02E1B3F0B220F331F9F
:1013B000220F331F442737FD4095542FEDB7FEB75A
:1013C000218332834383548320E030E040E050E0C7
:1013D00004EBE02EF12C012D112D0E94120F9B0128
:1013E0000F900F900F900F90CE01B9010E945909F4
:1013F000DF91CF911F910F91FF90EF90DF90CF90F1
:10140000BF90AF900895CF92DF92EF92FF920F932B
:101410001F93CF93DF938C01FC0184819581029708
:10142000D9F0A6E0EA2EF12CE00EF11ECBE4D0E0DC
:10143000F2E0CF2ED12CC701BE010E949B096AE0C9
:1014400070E080E090E00E945612F801D582C482DC
:101450002196C53AD10579F7DF91CF911F910F9170
:10146000FF90EF90DF90CF900895CF92DF92EF92B0
:10147000FF920F931F93CF93DF938C01FC01848124
:1014800095810197D9F086E0E82EF12CE00EF11E4F
:10149000C5EAD0E0B1E0CB2ED12CC701BE010E943D
:1014A0009B096AE070E080E090E00E945612F8012B
:1014B000D582C4822197CB34D10579F7DF91CF91C2
:1014C0001F910F91FF90EF90DF90CF900895CF92F2
:1014D000DF92EF92FF921F93CF93DF93EC01162FD1
:1014E0007A01690188818C3008F064C0862F61E040
:1014F0000E941613888190E0FC01EE0FFF1FE80F99
:10150000F91FE95AFC4F1F738081807C812B8083F7
:1015100080E292E08E199F0964E070E00E94271437
:10152000698380E699E08C199D0964E070E00E946F
:1015300027146A83A8818A2F6CE00E941B14682FED
:1015400070E0AB01440F551F460F571F440F551F46
:10155000440F551F20E030E0C901840F951FFC01A6
:10156000EE0FFF1FE80FF91FE95AFC4F808186FD3F
:1015700015C02F5F3F4F2C30310571F724C01092FA
:10158000800082E080938100109285001092840098
:10159000B19A80916F00826080936F008A2F90E0F3
:1015A000FC01EE0FFF1FE80FF91FE95AFC4F808185
:1015B000806480838881DF91CF911F91FF90EF90AD
:1015C000DF90CF900895672BD1F2E8CF40E252E050
:1015D00020E639E00E94670A0895EF92FF920F9388
:1015E0001F93CF93DF938C01FC0184819581029737
:1015F00009F475C036E0E32EF12CE00EF11EC701B0
:1016000068E070E00E94E60AC0E0D0E0CE0164E14C
:1016100070E00E942714892BA9F4F801A385B485F2
:10162000ED91FC9111970280F381E02DCD01099598
:10163000F801A185B285ED91FC9111970280F381AB
:10164000E02D1BC0CE016AE070E00E942714892BB8
:10165000B1F4F801A385B485ED91FC911197048054
:10166000F581E02DCD010995F801A185B285ED91B7
:10167000FC9111970480F581E02DCD010995C55BA2
:10168000DF4FC701BE010E949B0962E370E080E06A
:1016900090E00E945612CA54D040CA35D10509F0D4
:1016A000B5CFC7010E942909F801A385B485ED9142
:1016B000FC9111970480F581E02DCD010995F80189
:1016C000A185B285ED91FC9111970480F581E02D03
:1016D000CD01099582E090E0F80195838483DF9144
:1016E000CF911F910F91FF90EF900895EF92FF928D
:1016F0000F931F93CF93DF938C01FC01848195811D
:10170000019709F473C046E0E42EF12CE00EF11EBF
:10171000C70168E070E00E94E60ACAE5D0E0CE01A9
:1017200064E170E00E942714892BA9F4F801A385D5
:10173000B485ED91FC9111970280F381E02DCD01EC
:101740000995F801A185B285ED91FC911197028070
:10175000F381E02D1BC0CE016AE070E00E942714E7
:10176000892BB1F4F801A385B485ED91FC91119713
:101770000480F581E02DCD010995F801A185B285A0
:10178000ED91FC9111970480F581E02DCD01099533
:10179000C55BDF4FC701BE010E949B0962E370E099
:1017A00080E090E00E945612CC54D04009F0B7CFB0
:1017B000C7010E942909F801A385B485ED91FC9128
:1017C00011970480F581E02DCD010995F801A185DF
:1017D000B285ED91FC9111970480F581E02DCD014A
:1017E000099581E090E0F80195838483DF91CF91A2
:1017F0001F910F91FF90EF9008950F931F938C010D
:1018000006960E94E60AD801ED91FC910280F381D0
:10181000E02DC801099581E090E0F801958384836B
:101820001F910F9108951F920F920FB60F921124DE
:101830002F933F934F935F936F937F938F939F93D8
:10184000AF93BF93EF93FF9380917B0387FF05C016
:1018500010928500109284002BC020917B033327C7
:1018600027FD30958091560390E02817390704F53D
:1018700080917B03992787FD9095FC01EE0FFF1F58
:10188000E80FF91FE95AFC4F808186FF11C0809153
:101890007B03992787FD9095FC01EE0FFF1FE80F52
:1018A000F91FE95AFC4F80818F7360E00E94551345
:1018B00080917B038F5F80937B0320917B03332791
:1018C00027FD30958091560390E0281739070CF0DA
:1018D0004EC080917B038C300CF049C02091840075
:1018E0003091850080917B03992787FD9095FC01BD
:1018F000EE0FFF1FE80FF91FE95AFC4F818192811B
:10190000280F391F309389002093880080917B0332
:10191000992787FD9095FC01EE0FFF1FE80FF91F37
:10192000E95AFC4F808186FF2BC080917B03992769
:1019300087FD9095FC01EE0FFF1FE80FF91FE95A94
:10194000FC4F80818F7361E00E94551319C080E4C1
:101950009CE905C080918400909185000496909345
:101960008900809388008FEF80937B0309C080916A
:10197000840090918500049680549C4940F3EACFFE
:10198000FF91EF91BF91AF919F918F917F916F9157
:101990005F914F913F912F910F900FBE0F901F902D
:1019A0001895FC01862F6283738360E00E941613F2
:1019B0000895FC01862F6283738360E00E941613F2
:1019C00008950895FC01868197810E94300808954A
:1019D000FC01808191810E94ED0A0895FC018081C3
:1019E00091810E94760B0895CF92DF92EF92FF9241
:1019F0000F931F937C0184E090E00E940B12FC0186
:101A00000AE312E011830083D70113969C938E930F
:101A10001297C0903A02D0903B0263E070E0F6016A
:101A2000099584E090E00E940B12FC011183008371
:101A3000D70115969C938E93149767E070E0F6019A
:101A400009958DE090E00E940B128C0184E492E0F5
:101A5000F80191838083C80106960E940F09D7017F
:101A60000D931C93D801ED91FC910190F081E02D34
:101A7000C80168E070E00995F701608571854281D1
:101A80005381808191810E9495098EE090E00E94AF
:101A90000B128C0188E192E0D8018D939C93C801D0
:101AA00004960E949704F70117830683D801ED91ED
:101AB000FC910190F081E02DC80160E070E0099593
:101AC000F701A681B781ED91FC9111970280F38116
:101AD000E02DCD01099584E090E00E940B12FC01FD
:101AE00026EF31E031832083D70119969C938E93A2
:101AF00018972091F6013091F70164E070E0F90148
:101B000009951F910F91FF90EF90DF90CF9008956E
:101B100081309105B1F46F5F7F4F21F582E893E04A
:101B200060E071E00E94C40F8AE893E061E071E038
:101B30000E94C40F80E993E060E071E00E94C40F4E
:101B40000895892B79F46F5F7F4F61F480E993E00A
:101B50000E94DD0F8AE893E00E94DD0F82E893E0A7
:101B60000E94DD0F089580E090E06FEF7FEF0E940C
:101B7000880D089581E090E06FEF7FEF0E94880D5F
:101B800008958CE793E00E9411010E94AE0888231B
:101B900069F08091DF019091E001019662E070E0D0
:101BA0000E9427149093E0018093DF018CE793E07B
:101BB0000E940D016091DF017091E0010E94E20C32
:101BC0008091DF019091E001009719F0019701F5F4
:101BD00010C081E08093E2018091E1018823C1F08F
:101BE0008CE793E00E940D010E94E80C1092E10145
:101BF000089581E08093E1018091E201882341F022
:101C00008CE793E00E940D010E94EE0C1092E2011D
:101C100008950E94C10D089580E893E00E94770422
:101C20008CE793E00E9415010895CF92DF92EF9226
:101C3000FF920F931F93CF93DF937C016B018A0177
:101C4000C0E0D0E00FC0D6016D916D01D701ED91DC
:101C5000FC910190F081E02DC7010995C80FD91FB3
:101C6000015010400115110571F7CE01DF91CF91A0
:101C70001F910F91FF90EF90DF90CF900895CF9339
:101C8000DF93EC016115710519F420E030E00FC01D
:101C9000DB010D900020E9F71197A61BB70BE88137
:101CA000F9810280F381E02DAD0109959C01C90104
:101CB000DF91CF9108954F925F927F928F929F9282
:101CC000AF92BF92CF92DF92EF92FF920F931F934A
:101CD000DF93CF93CDB7DEB7A1970FB6F894DEBFF1
:101CE0000FBECDBF2C01742ECB01223008F42AE0A8
:101CF00019A231E2C32ED12CCC0EDD1E822E9924E6
:101D0000AA24BB24672D752FA50194010E943A14C3
:101D100079018A01C801B701A50194010E94FC1351
:101D2000472D461B0894C108D1084A3014F4405D81
:101D300001C0495CF6014083E114F104010511057D
:101D400021F07E2C5F2DC801DDCFC201B6010E94BB
:101D50003F0EA1960FB6F894DEBF0FBECDBFCF9158
:101D6000DF911F910F91FF90EF90DF90CF90BF9088
:101D7000AF909F908F907F905F904F900895CF92FB
:101D8000DF92EF92FF920F931F93CF93DF93EC01BB
:101D90006A017B012115310541F4E881F981019047
:101DA000F081E02D642F09951FC02A303105D1F450
:101DB00077FF17C0E881F9810190F081E02D6DE295
:101DC00009958C0144275527BA014C195D096E0904
:101DD0007F09CE012AE00E945B0E9801280F391F6F
:101DE00004C02AE00E945B0E9C01C901DF91CF91E3
:101DF0001F910F91FF90EF90DF90CF900895EF9299
:101E0000FF920F931F937B019A010027F7FC009527
:101E1000102FB801A7010E94BF0E1F910F91FF90D4
:101E2000EF9008952F923F924F925F926F927F9220
:101E30008F929F92AF92BF92CF92DF92EF92FF92DA
:101E40000F931F93DF93CF93CDB7DEB73B014C01C8
:101E500019012A016D897E898F89988D6A197B09FC
:101E60008C099D09621A730A840A950AA4019301D8
:101E70000E94FC13E218F30804091509A801970150
:101E80000E945C142A0D3B1D4C1D5D1DB901CA0149
:101E9000CF91DF911F910F91FF90EF90DF90CF9046
:101EA000BF90AF909F908F907F906F905F904F907A
:101EB0003F902F9008950F931F93CF93DF93EC01E2
:101EC0008B016F5F7F4F888199810E941811009765
:101ED00011F480E005C0998388831B830A8381E025
:101EE000DF91CF911F910F910895CF93DF93EC0174
:101EF00088819981892B29F08A819B818617970790
:101F000060F4CE010E945B0F882341F08C819D819B
:101F1000892B19F4E881F981108281E0DF91CF915A
:101F20000895CF93DF93EC0188819981009711F098
:101F30000E948010198218821D821C821B821A82C4
:101F4000DF91CF910895EF92FF920F931F93CF935C
:101F5000DF93EC017B018A01BA010E94750F88238F
:101F600021F4CE010E94910F07C01D830C8388814C
:101F70009981B7010E94E500CE01DF91CF911F91B9
:101F80000F91FF90EF900895CF93DF93EC011982AA
:101F900018821B821A821D821C826115710551F004
:101FA000DB010D900020E9F71197A61BB70BAD01DF
:101FB0000E94A30FDF91CF910895FC018081918150
:101FC0000E94801008950F931F93CF93DF93BC015D
:101FD0008230910510F462E070E0E091A103F0918D
:101FE000A20340E050E0A0E0B0E024C080819181F5
:101FF00086179707D0F08617970771F4828193812F
:10200000109729F013969C938E9312972CC090935F
:10201000A2038093A10327C04115510519F084172D
:10202000950718F48D01AC01EF01DF0182819381E6
:102030009C01F9013097D1F641155105F9F0CA011B
:10204000861B970B8430910580F48A819B81011552
:10205000110521F0F8019383828304C09093A203B9
:102060008093A103FE01329645C0FE01E80FF91FDF
:10207000619371930297998388833CC080919F03F9
:102080009091A003892B41F48091E5019091E601A4
:102090009093A00380939F034091E7015091E80142
:1020A0004115510541F44DB75EB78091E301909120
:1020B000E401481B590B20919F033091A003241782
:1020C0003507B0F4CA01821B930B8617970780F07F
:1020D000AB014E5F5F4F8417950750F0420F531FBF
:1020E0005093A00340939F03F9016193719302C041
:1020F000E0E0F0E0CF01DF91CF911F910F910895C3
:10210000CF93DF939C01009709F48FC0EC012297D5
:102110001B821A826091A1037091A203611571055F
:1021200081F488819981820F931F20919F033091C0
:10213000A0032817390739F5D093A003C0939F0354
:1021400074C0DB0140E050E0AC17BD0708F1BB8371
:10215000AA83FE0121913191E20FF31FAE17BF0751
:1021600079F48D919C911197280F391F2E5F3F4F65
:102170003983288312968D919C9113979B838A8330
:102180004115510571F4D093A203C093A1034DC032
:1021900012968D919C911397AD01009711F0DC017F
:1021A000D3CFDA011396DC93CE931297FA012191E3
:1021B0003191E20FF31FCE17DF0769F4888199810F
:1021C000280F391F2E5F3F4FFA01318320838A8108
:1021D0009B8193838283E0E0F0E0DB0112968D9196
:1021E0009C911397009719F0BC01FD01F6CFAB014C
:1021F0004E5F5F4FDB018D919C91840F951F209165
:102200009F033091A0032817390779F4309729F4F8
:102210001092A2031092A10302C0138212824250B4
:1022200050405093A00340939F03DF91CF910895B6
:102230006F927F928F929F92AF92BF92CF92DF92D6
:10224000EF92FF920F931F93CF93DF938C01009730
:1022500029F4CB010E94E30F8C01BBC08EEFE82E66
:102260008FEFF82EE00EF11E4801860E971E8E1499
:102270009F0408F4ACC0D7014D915C9111974617AB
:102280005707B8F04530510508F4A3C0CA010497B8
:102290008617970708F49DC042505040461B570BC5
:1022A000F401419351936D937C93CF010E94801070
:1022B00090C05B01A41AB50A3801640E751EA09186
:1022C000A103B091A203E0E0F0E0CC24DD2447C0FC
:1022D000A615B705A9F5CD91DC911197CE0102960F
:1022E0008A159B0568F1CE018A199B090296129600
:1022F0002C91129713963C91059758F0F401228384
:102300003383CA19DB09D183C083D7016D937C93D2
:1023100009C04E5F5F4F4C0F5D1FF7015183408333
:10232000C901FC01C114D10431F0D6011396FC930C
:10233000EE9312974EC0F093A203E093A10349C01D
:102340008D919C911197E817F90708F4FC016D0134
:1023500012968C91129713969C919C01D90110971B
:1023600009F0B6CF80919F039091A0038615970541
:10237000E9F4E617F707D0F42091E7013091E8017E
:102380002115310541F42DB73EB78091E3019091BD
:10239000E401281B390B82169306C8F49092A0031F
:1023A00080929F03F7017183608313C0CB010E9469
:1023B000E30FEC01009759F0D7014D915C91B80102
:1023C0000E94DC00C8010E9480108E0102C000E063
:1023D00010E0C801DF91CF911F910F91FF90EF9016
:1023E000DF90CF90BF90AF909F908F907F906F9035
:1023F00008950895CF93DF930E94B9120E94F911B6
:102400000E940C0EC0E0D0E00E94090E2097E1F37C
:102410000E940000F9CF0E94E30F08951F920F92CF
:102420000FB60F9211242F933F938F939F93AF93E7
:10243000BF9380919A0390919B03A0919C03B091CC
:102440009D0330919E030196A11DB11D232F2D5F89
:102450002D3720F02D570196A11DB11D20939E030D
:1024600080939A0390939B03A0939C03B0939D0346
:102470008091960390919703A0919803B09199034E
:102480000196A11DB11D8093960390939703A0938D
:102490009803B0939903BF91AF919F918F913F9112
:1024A0002F910F900FBE0F901F9018959B01AC01BC
:1024B0007FB7F8948091960390919703A091980329
:1024C000B091990366B5A89B05C06F3F19F00196BE
:1024D000A11DB11D7FBFBA2FA92F982F8827860F66
:1024E000911DA11DB11D62E0880F991FAA1FBB1F7E
:1024F0006A95D1F7BC012DC0FFB7F894809196037F
:1025000090919703A0919803B0919903E6B5A89B89
:1025100005C0EF3F19F00196A11DB11DFFBFBA2FF5
:10252000A92F982F88278E0F911DA11DB11DE2E0C4
:10253000880F991FAA1FBB1FEA95D1F7861B970B1F
:10254000885E9340C8F2215030404040504068516E
:102550007C4F211531054105510571F6089501970C
:1025600039F0880F991F880F991F02970197F1F78B
:102570000895789484B5826084BD84B5816084BDFB
:1025800085B5826085BD85B5816085BDEEE6F0E0EC
:10259000808181608083E1E8F0E010828081826048
:1025A0008083808181608083E0E8F0E080818160C9
:1025B0008083E1EBF0E0808184608083E0EBF0E0F9
:1025C000808181608083EAE7F0E08081846080839D
:1025D0008081826080838081816080838081806847
:1025E00080831092C1000895982F8E3008F09E507D
:1025F00097708091E9018295880F880F807C892BE4
:1026000080937C0080917A00806480937A0080912E
:102610007A0086FDFCCF2091780040917900942FBC
:1026200080E030E0282B392BC9010895CF93DF9348
:10263000482F50E0CA018A5C9E4FFC0134914E5DE8
:102640005E4FFA018491882369F190E0880F991F09
:10265000FC01EC5FFE4FA591B491FC01E25FFE4FDF
:10266000C591D491662351F42FB7F8948C91932F90
:10267000909589238C93888189230BC0623061F403
:102680002FB7F8948C91932F909589238C93888100
:10269000832B88832FBF06C09FB7F8948C91832B20
:1026A0008C939FBFDF91CF910895482F50E0CA01CE
:1026B000865B9E4FFC012491CA018A5C9E4FFC01FF
:1026C00094914E5D5E4FFA013491332309F440C07A
:1026D000222351F1233071F0243028F42130A1F06D
:1026E000223011F514C02630B1F02730C1F024306B
:1026F000D9F404C0809180008F7703C0809180005E
:102700008F7D8093800010C084B58F7702C084B520
:102710008F7D84BD09C08091B0008F7703C0809108
:10272000B0008F7D8093B000E32FF0E0EE0FFF1F2D
:10273000E25FFE4FA591B4912FB7F894662321F480
:102740008C919095892302C08C91892B8C932FBFFB
:102750000895682F70E0CB01865B9E4FFC012491A9
:10276000CB018A5C9E4FFC0144916E5D7E4FFB0164
:102770009491992319F420E030E03CC0222351F1D8
:10278000233071F0243028F42130A1F0223011F5EB
:1027900014C02630B1F02730C1F02430D9F404C081
:1027A000809180008F7703C0809180008F7D80931F
:1027B000800010C084B58F7702C084B58F7D84BD42
:1027C00009C08091B0008F7703C08091B0008F7DE9
:1027D0008093B000892F90E0880F991F885E9E4FEC
:1027E000FC01A591B4918C9120E030E0842311F09C
:1027F00021E030E0C9010895629FD001739FF0018C
:10280000829FE00DF11D649FE00DF11D929FF00D80
:10281000839FF00D749FF00D659FF00D9927729FB7
:10282000B00DE11DF91F639FB00DE11DF91FBD0142
:10283000CF0111240895991B79E004C0991F9617C0
:1028400008F0961B881F7A95C9F78095089597FB25
:10285000092E07260AD077FD04D049D006D00020E3
:102860001AF4709561957F4F0895F6F790958195CC
:102870009F4F0895A1E21A2EAA1BBB1BFD010DC09C
:10288000AA1FBB1FEE1FFF1FA217B307E407F50720
:1028900020F0A21BB30BE40BF50B661F771F881FFC
:1028A000991F1A9469F760957095809590959B0192
:1028B000AC01BD01CF01089597FB092E05260ED06E
:1028C00057FD04D0D7DF0AD0001C38F4509540954E
:1028D000309521953F4F4F4F5F4F0895F6F79095F4
:1028E0008095709561957F4F8F4F9F4F0895AA1BDC
:1028F000BB1B51E107C0AA1FBB1FA617B70710F0EB
:10290000A61BB70B881F991F5A95A9F7809590951C
:10291000BC01CD010895EE0FFF1F0590F491E02D4D
:10292000099411E0C2E6D1E004C0FE010E948D14BA
:0C2930002296C436D107C9F7F894FFCFF7
:10293C00003100416374697665204C656420506FEA
:10294C00727461696C0044657361637469766520A7
:10295C004C656420506F727461696C0041637469DA
:10296C007665204D6F746575720044657361637490
:10297C00697665204D6F7465757200416374697674
:10298C00652042757A7A6572004465736163746977
:10299C0076652042757A7A65720041637469766552
:1029AC00204C656420466C617368004465736163F8
:1029BC0074697665204C656420466C6173680052BE
:1029CC00656375702043617074657572204C756D0C
:1029DC006965726500526563757020426F75746F1E
:1029EC006E002120212021524553455421202120C5
:1029FC0021004D6F6465204175746F6D6174697150
:102A0C007565004D6F6465204D616E75656C00FFDA
:102A1C00FF01018000A30300000100000000D10CA5
:102A2C00EC0000000000D90CFC00F60000000000D7
:102A3C00D10C0201000000001503150EFB02DA0296
:102A4C00D803C70300000000A708E007E407000054
:102A5C0000009F04D40414051D0532054305000035
:102A6C0000001706150E00000000D90C0909030917
:102A7C0000000000FD0B350A030A00000000D10C19
:022A8C00E10C5B
:00000001FF
