:100000000C94B2000C94DA000C94DA000C949B016E
:100010000C94C5010C94EF010C94DA000C94DA00F6
:100020000C94DA000C94DA000C94DA000C94180B9F
:100030000C94DA000C94DA000C94DA000C94DA00D8
:100040000C94BE110C94DA000C94DA000C94DA00D3
:100050000C94DA000C94DA000C94DA000C94DA00B8
:100060000C94A5060C94DA0000C2010001001100F6
:1000700011000C0000E100000A002500250021000D
:10008000009600001900390039003600127A00008D
:100090001F004600460044008070000022004D0012
:1000A0004D004A00004B00003600750075007200DC
:1000B000403800004A009C009C0099008025000008
:1000C0007200EC00EC00E900C0120000E900DA0167
:1000D000DA01D70160090000D701B603B603B30304
:1000E000B0040000B3036E076E076B0758020000F0
:1000F0006E07DC0EDC0ED80E2C010000DC0EC11DDC
:10010000C11DBE1D00000000240027002A000000C1
:100110000000250028002B0000000000230026001E
:10012000290004040404040404040202020202027A
:1001300003030303030301020408102040800102AB
:10014000040810200102040810200000000700022B
:1001500001000003040600000000000000003E084B
:10016000CD0CC60C11241FBECFEFD8E0DEBFCDBF33
:1001700011E0A0E0B1E0E8EBF8E202C005900D92DA
:10018000A238B107D9F712E0A2E8B1E001C01D9290
:10019000A93CB107E1F711E0C2E6D1E004C0229723
:1001A000FE010E944B14CE35D107C9F70E94AA1157
:1001B0000C944F140C940000FB01DC0102C0019070
:1001C0000D9241505040D8F70895FB01DC01019099
:1001D0000D920020E1F70895FC0182810E946713CF
:1001E00020E0019709F421E0822F0895FC0182812B
:1001F00060E00E9413130895FC01828161E00E9477
:1002000013130895FC0182810E94B21220E08D5BDD
:1002100092400CF021E0822F0895FC0182819381AD
:100220000895EF92FF920F931F938C018AE090E064
:100230000E94BB11F82EE92E0E940F0CF801F282E9
:10024000E38286E090E00E94BB11F82EE92E0E9426
:100250000209F801F082E1821F910F91FF90EF9067
:1002600008950F931F93CF93DF93FC01738D7695C1
:100270007170A685B7859585772329F08C918923A0
:1002800009F454C004C08C91892309F04FC08389BC
:10029000948920E001972FEF8F3F9207D9F7C58906
:1002A000D689A685B785158560E031E040E050E04D
:1002B00000E0CE01202F01972FEF8F3F9207D9F753
:1002C0008C91812311F0632B03C0832F80956823C9
:1002D000330F4F5F5F4F4830510559F78789908D35
:1002E00020E001972FEF8F3F9207D9F771116095AA
:1002F0008091C4012091C50190E001968F739070A8
:1003000030E08217930779F0E091C401F0E0EC57F8
:10031000FE4F60838091C40190E001968F739070CE
:100320008093C40103C0838D8160838FDF91CF915F
:100330001F910F9108951F920F920FB60F921124E3
:100340002F933F934F935F936F937F938F939F93DD
:10035000AF93BF93EF93FF938091820190918301BC
:10036000009711F00E943101FF91EF91BF91AF9181
:100370009F918F917F916F915F914F913F912F91BD
:100380000F900FBE0F901F9018951F920F920FB6EF
:100390000F9211242F933F934F935F936F937F930B
:1003A0008F939F93AF93BF93EF93FF9380918201BD
:1003B00090918301009711F00E943101FF91EF911C
:1003C000BF91AF919F918F917F916F915F914F916D
:1003D0003F912F910F900FBE0F901F9018951F9275
:1003E0000F920FB60F9211242F933F934F935F9369
:1003F0006F937F938F939F93AF93BF93EF93FF93ED
:100400008091820190918301009711F00E94310147
:10041000FF91EF91BF91AF919F918F917F916F91DC
:100420005F914F913F912F910F900FBE0F901F90B2
:100430001895CF92DF92EF92FF920F931F93CF9375
:10044000DF93EC017A018B011A8E198E188E1F8AA8
:100450001E8A1D8A1C8A1B8A20E030E06901CC0CB0
:10046000DD1CC20ED31EB601660F771F660F771F05
:10047000AB0148595F4FFA0185919591A591B491CF
:100480008E159F05A007B107E9F4FB01E459FF4F62
:10049000859194919C8B8B8BFB01E259FF4F859149
:1004A00094919E8B8D8BFB01E059FF4F8591949128
:1004B000988F8F8BFB01EE58FF4F859194919A8F07
:1004C000898F06C02F5F3F4F2D30310509F0C6CF11
:1004D0008F89988D892B09F449C04C85463108F0E5
:1004E0003DC090916800483010F484E005C04E3063
:1004F00010F082E001C081E0892B809368004830D1
:1005000028F4EDE6F0E0ADE6B0E00BC04E3028F0A8
:10051000ECE6F0E0ACE6B0E004C0EBE6F0E0ABE621
:10052000B0E05081483040F481E090E002C0880F94
:10053000991F4A95E2F710C0242F30E04E3018F48E
:100540002850304002C02E50304081E090E002C080
:10055000880F991F2A95E2F7852B8C93898D9A8DA8
:1005600020E001972FEF8F3F9207D9F7809182010A
:10057000909183018C179D0781F08B8D8E7F8B8FDF
:100580009FB7F8941092C4018091C4018093C50173
:10059000D0938301C09382019FBFDF91CF911F91C0
:1005A0000F91FF90EF90DF90CF90089520918201FE
:1005B000309183012817390731F49091C50180915A
:1005C000C401981719F42FEF3FEF0FC0E091C50158
:1005D000F0E0EC57FE4F20818091C50190E001963C
:1005E0008F7390708093C50130E0C9010895209108
:1005F0008201309183012817390719F020E030E09B
:100600000EC08091C4012091C50190E0805C9F4F95
:10061000821B910960E470E00E94E5139C01C9010E
:1006200008950F931F93DC0159968D919C915A97D1
:10063000892B49F481E090E013969C938E93129756
:1006400020E030E097C00FB7F8945B968C915B97F1
:100650005196ED91FC91529750962C91509781FFB5
:100660008DC08081822B808359968D919C915A9761
:10067000059620E001972FEF8F3F9207D9F75B9601
:100680008C915B9781FF35C031E040E050E070E035
:1006900010E0832F90E0862397235196ED91FC91F3
:1006A000529750962C915097892B29F08081209554
:1006B0002823208303C08081822B808359968D91CB
:1006C0009C915A97212F01972FEF8F3F9207D9F7CF
:1006D000330F4F5F5F4F48305105D9F65196ED917A
:1006E000FC915297908150968C91509780958923D8
:1006F00033C031E040E050E070E010E0832F90E044
:10070000862397235196ED91FC91529750962C9108
:100710005097892B21F08081822B808304C08081B7
:1007200020952823208359968D919C915A97212FAB
:1007300001972FEF8F3F9207D9F7330F4F5F5F4F2E
:1007400048305105D9F65196ED91FC915297808130
:1007500050969C915097892B80830FBF59968D910D
:100760009C915A9720E001972FEF8F3F9207D9F77E
:1007700021E030E0C9011F910F91089580812095FB
:100780002823208371CF2091820130918301281783
:10079000390749F49FB7F8941092C4018091C401BD
:1007A0008093C5019FBF08952091820130918301FC
:1007B0002817390731F49091C5018091C401981729
:1007C00019F42FEF3FEF0AC0E091C501F0E0EC57BC
:1007D000FE4F8081282F332727FD3095C9010895CA
:1007E0000F931F93CF93DF938C01EB01EA85FB8579
:1007F000A081B18114962D913C911597CF01F901FB
:100800000995892B99F36A857B85C8010E94440E5E
:10081000C801DF91CF911F910F910895AF92BF92C0
:10082000CF92DF92EF92FF920F931F93DF93CF93BC
:1008300000D000D000D0CDB7DEB76C015B01FC0169
:10084000E280F3808E010F5F1F4FC80160E071E00E
:100850000E94530FC701B8010E948608C8010E9478
:100860008D0FF60182859385B5014AE050E00E9424
:10087000050E26960FB6F894DEBF0FBECDBFCF9102
:10088000DF911F910F91FF90EF90DF90CF90BF907D
:10089000AF9008951F93CF93DF93EC01162F862F0F
:1008A00060E00E94D4128B8D81FD04C0812F61E035
:1008B0000E9413131C87212F30E0C9018A5C9E4FD0
:1008C000FC0184918D872E5D3E4FF9016491E62FE6
:1008D000F0E0EE0FFF1FE85EFE4F859194919F8739
:1008E0008E87DF91CF911F9108951F93CF93DF9350
:1008F000EC01162F862F61E00E94D41260E08B8DF0
:1009000081FF61E0812F0E941313212F30E0C90184
:100910008A5C9E4FFC018491888B2E5D3E4FF901CD
:100920006491E62FF0E0EE0FFF1FE25FFE4F85912E
:1009300094919A8B898BDF91CF911F910895FF92AB
:100940000F931F938C01F62EFC011382128288EE06
:1009500093E0A0E0B0E084839583A683B78388E327
:1009600091E091838083148A138A168A158A108EE7
:10097000178A128E118E838D2170220F8C7F822B0D
:10098000838FC801642F0E947504C8016F2D0E94D7
:100990004A041F910F91FF900895EF92FF920F93D9
:1009A0001F938C018CE190E00E94BB11F82EE92E80
:1009B00060E041E020E00E949F04F801F286E386B7
:1009C0008F2D9E2D40E855E260E070E00E941902F4
:1009D0001F910F91FF90EF900895FC0113821282F6
:1009E00082E691E0918380830895DF93CF930F9205
:1009F000CDB7DEB7FC01698380910B028823C9F073
:100A000080910A02803238F081E090E09383828303
:100A100020E030E01AC080910902E82FF0E0E751B1
:100A2000FE4F998190838F5F8093090280930A0221
:100A30000AC080913D02843031F481E080936302EA
:100A400089818093660221E030E0C9010F90CF9147
:100A5000DF910895CF92DF92EF92FF920F931F9351
:100A6000CF93DF936C018B017A0180910B02882375
:100A7000A1F0C0E0D0E00DC0D601ED91FC91D8010D
:100A8000AC0FBD1F0190F081E02DC6016C9109955E
:100A90002196CE15DF0580F313C0413288F4809192
:100AA0003D02843069F4E0926302562FA6E6B2E07C
:100AB000FB0102C081918D938E2F851B8417D0F38B
:100AC000C701DF91CF911F910F91FF90EF90DF90C1
:100AD000CF9008952091E70130E08091E601281B36
:100AE0003109C90108954091E6018091E701481755
:100AF00018F02FEF3FEF0AC0E42FF0E0EA53FE4F6B
:100B00008081282F30E04F5F4093E601C9010895AE
:100B1000E091E6018091E701E81718F0EFEFFFEFB1
:100B200006C0F0E0EA53FE4F8081E82FF0E0CF01ED
:100B3000089508950F931F93582F122F413210F0EC
:100B400081E045C080913D028823E1F782E08093F7
:100B50003D0200933B028FEF80933E0210921902F8
:100B600040931A02ABE1B2E0FB0102C081918D9388
:100B70008E2F861B8417D0F31092180280911802D2
:100B8000550F852B8093180280913C02813041F4EF
:100B900010923C02809118028093BB0085EC01C04A
:100BA00085EE8093BC001123A9F080913D02823034
:100BB00089F4FBCF80913E02803211F482E007C0BD
:100BC00080913E02803311F084E001C083E01F91E8
:100BD0000F91089580913E028F3F61F780E0F7CF3B
:100BE0000F93062F8091E80169EE71E040910A02AF
:100BF00021E00E949A051092090210920A021092B6
:100C00000B020F91089561E00E94F0050895FF9294
:100C10000F931F93F42E81E080930B0282E6809362
:100C2000E8011092090210920A020CE012E0C801D9
:100C30000E94F504C8016F2D0E94F504C8010E94AE
:100C400003061F910F91FF900895EF92FF920F936B
:100C50001F938C01362FF42EE22E64E0432F0E9466
:100C60000706C80163E04F2D0E940706C80162E035
:100C70004E2D0E9407061F910F91FF90EF9008954F
:100C8000EF92FF920F931F93CF93DF937C0181E04C
:100C900080930B028EE38093E80110920902109278
:100CA0000A02C0E0D0E0062F10E009C0F701EC0F07
:100CB000FD1F8CE092E060810E94F5042196C01730
:100CC000D107A4F38CE092E00E940306DF91CF915C
:100CD0001F910F91FF90EF900895DF93CF9300D075
:100CE000CDB7DEB780E489836A83CE01019662E0E6
:100CF0000E94400681E090E00F900F90CF91DF912D
:100D00000895DF93CF9300D0CDB7DEB780E8898315
:100D10006A83CE01019662E00E9440060F900F9018
:100D2000CF91DF910895FC016581862F84608583D2
:100D30006C60CF010E9481060895FC0165816B7F84
:100D4000658368600E94810608951F920F920FB616
:100D50000F9211242F933F934F935F936F937F9341
:100D60008F939F93AF93BF93EF93FF938091B900BD
:100D700090E0887F90708036910509F4F2C081364A
:100D80009105CCF58832910509F47BC08932910533
:100D9000B4F48031910509F46FC0813191053CF4C0
:100DA000009709F447C1089709F04FC165C0883121
:100DB000910509F466C0809709F047C182C080346C
:100DC000910509F4A4C08134910544F48033910560
:100DD00009F482C0C89709F038C189C080359105EF
:100DE00009F489C08835910509F496C088349105C5
:100DF00009F02BC1AEC08839910509F413C18939B6
:100E00009105ECF48837910509F4ABC08937910559
:100E10004CF48836910509F4A4C08037910509F097
:100E200014C19FC08838910509F4FCC08039910530
:100E300009F49DC08038910509F007C198C0803B36
:100E4000910509F4C6C0813B91054CF4803A9105A7
:100E500009F49FC0883A910509F0F7C0BAC0803CF8
:100E6000910509F4E3C0883C910509F4DFC0883B93
:100E7000910509F0EAC0C2C0809118028093BB00BE
:100E8000CFC09091190280911A02981768F490913E
:100E90001902E92FF0E0E55EFD4F80818093BB00F1
:100EA0009F5F90931902BCC080913B02882309F494
:100EB0004BC085ED8093BC008091BC0084FDFCCFCD
:100EC000C2C080E280933E0285ED8093BC00809199
:100ED000BC0084FDFCCFB7C080E380933E0285ED6B
:100EE0008093BC008091BC0084FDFCCFACC088E343
:100EF00080933E029BC0809119029091BB00E82F25
:100F0000F0E0E55EFD4F90838F5F80931902909132
:100F1000190280911A0282C0809119029091BB003F
:100F2000E82FF0E0E55EFD4F90838F5F809319021C
:100F300080913B02882341F085ED8093BC00809135
:100F4000BC0084FDFCCF7FC081E080933C0284EA3A
:100F50006EC085ED8093BC008091BC0084FDFCCF09
:100F600072C083E080933D0210923F0259C080918D
:100F70003F02803208F056C080913F029091BB0042
:100F8000E82FF0E0E05CFD4F90838F5F80933F029D
:100F900047C080913F02803230F4E0913F02F0E0A0
:100FA000E05CFD4F108285ED8093BC008091BC0019
:100FB00084FDFCCF10923D0260913F02E0916002FF
:100FC000F091610280E492E070E0099510923F0296
:100FD0002DC084E080933D02109262021092630261
:100FE000E0916402F0916502099580916302882383
:100FF00029F481E08093630210926602909162026C
:10100000E92FF0E0EA59FD4F80818093BB009F5F9C
:10101000909362029091620280916302981710F49B
:1010200085EC01C085E88093BC000FC085EC8093FF
:10103000BC0009C010923E0285ED8093BC008091F7
:10104000BC0084FDFCCF10923D02FF91EF91BF9157
:10105000AF919F918F917F916F915F914F913F9150
:101060002F910F900FBE0F901F90189504960E941D
:101070009306089504960E949D06089510920F020B
:1010800010920E0288EE93E0A0E0B0E08093100290
:1010900090931102A0931202B093130282E591E0A3
:1010A00090930D0280930C02089510923D0281E00E
:1010B00080933B0210923C0282E161E00E94131394
:1010C00083E161E00E941313E9EBF0E080818E7F01
:1010D000808380818D7F808388E48093B80085E45D
:1010E0008093BC0008951092E6011092E7011092DF
:1010F000090210920A020E945508089561E00E94B8
:10110000810680ED97E00E946D120895EF92FF92A4
:101110000F931F937B018C010C5F1F4FC8010E942E
:101120007E08C801B7010E94330D1F910F91FF90F7
:10113000EF9008950F931F93CF93DF93EC01142F3B
:10114000022F8CE092E00E947308123018F08C811C
:1011500088608C8318871986002329F0113019F4D0
:101160008C8184608C8380E593EC0E946D126C818D
:101170006062CE010E94810684E991E10E946D12B5
:101180006C816062CE010E94810686E990E00E9437
:101190006D126C816062CE010E9481066C8160627A
:1011A000CE010E94810684E08D83CE010E949306C9
:1011B000CE010E947E0882E08E83CE0166E00E940E
:1011C0008106CE0160E040E00E940706CE0161E0AA
:1011D00040E00E940706CE0168E04AEA0E94070646
:1011E000CE016FEF4FEF2FEF0E942506DF91CF91D9
:1011F0001F910F910895049660E040E020E00E9466
:101200009A0808950F931F938C0184E090E00E9448
:10121000BB11FC012EE731E031832083D8018D938F
:101220009C9320917E0130917F0162E070E0F90192
:10123000099584E090E00E94BB11FC0124E131E0BB
:1012400031832083D80113969C938E93129720911B
:1012500014013091150166E070E0F901099584E010
:1012600090E00E94BB11FC0126E231E03183208333
:10127000D80115969C938E93149720912601309156
:10128000270160E070E0F90109951F910F91089521
:10129000FC01828160E00E9413130895FC018281A9
:1012A00061E00E9413130895FC01809186028C3046
:1012B00090F480838F5F80938602815090E0FC01E0
:1012C000EE0FFF1FE80FF91FE957FD4F88EB9BE07A
:1012D0009283818308958FEF80830895FC0120819C
:1012E0002C30B8F58181992787FD909548E850E02A
:1012F000481B590B440F551F440F551F64177507A2
:1013000084F08281992787FD909548E552E0481B3B
:10131000590B440F551F440F551F641775070CF4E4
:10132000AB0142505040CA01AA2797FDA095BA2FA1
:10133000880F991FAA1FBB1F4FB7F89430E0F9011F
:10134000EE0FFF1FE20FF31FE957FD4F92838183DA
:101350004FBF0895FC0172876187548743870895C2
:10136000AF92BF92CF92DF92EF92FF920F931F93B3
:10137000CF93DF93EC019B0182E0603278070CF0A1
:1013800048C077FF03C020E030E005C0653B710531
:1013900014F024EB30E000D000D0B901882777FDAD
:1013A0008095982F2981332727FD3095E8E8AE2EC8
:1013B000B12CA21AB30AAA0CBB1CAA0CBB1CCC24CD
:1013C000B7FCC094DC2CEA81FF27E7FDF09528E507
:1013D00032E02E1B3F0B220F331F220F331F4427F7
:1013E00037FD4095542FEDB7FEB7218332834383F9
:1013F000548320E030E040E050E004EBE02EF12C9C
:10140000012D112D0E94610E9B010F900F900F90E6
:101410000F90CE01B9010E946E09DF91CF911F910B
:101420000F91FF90EF90DF90CF90BF90AF90089515
:10143000CF92DF92EF92FF920F931F93CF93DF93A0
:101440008C01FC01848195810297D9F0A6E0EA2EF7
:10145000F12CE00EF11ECBE4D0E0F2E0CF2ED12C47
:10146000C701BE010E94B0096AE070E080E090E030
:101470000E941412F801D582C4822196C53AD10582
:1014800079F7DF91CF911F910F91FF90EF90DF904F
:10149000CF900895CF92DF92EF92FF920F931F9318
:1014A000CF93DF938C01FC01848195810197D9F062
:1014B00086E0E82EF12CE00EF11EC5EAD0E0B1E0A6
:1014C000CB2ED12CC701BE010E94B0096AE070E0AA
:1014D00080E090E00E941412F801D582C482219726
:1014E000CB34D10579F7DF91CF911F910F91FF9008
:1014F000EF90DF90CF900895CF92DF92EF92FF921E
:101500001F93CF93DF93EC01162F7A016901888135
:101510008C3008F064C0862F61E00E94D41288816C
:1015200090E0FC01EE0FFF1FE80FF91FE957FD4F98
:101530001F738081807C812B808380E292E08E19F2
:101540009F0964E070E00E94E513698380E699E0FA
:101550008C199D0964E070E00E94E5136A83A881FC
:101560008A2F6CE00E94D913682F70E0AB01440F02
:10157000551F460F571F440F551F440F551F20E09E
:1015800030E0C901840F951FFC01EE0FFF1FE80F2B
:10159000F91FE957FD4F808186FD15C02F5F3F4F32
:1015A0002C30310571F724C01092800082E08093C6
:1015B00081001092850010928400B19A80916F0092
:1015C000826080936F008A2F90E0FC01EE0FFF1F76
:1015D000E80FF91FE957FD4F80818064808388817F
:1015E000DF91CF911F91FF90EF90DF90CF90089502
:1015F000672BD1F2E8CF40E252E020E639E00E94CA
:101600007C0A08950F931F938C0106960E94FB0A93
:10161000D801ED91FC910280F381E02DC80109957C
:1016200081E090E0F801958384831F910F910895E4
:101630001F920F920FB60F9211242F933F934F9347
:101640005F936F937F938F939F93AF93BF93EF932A
:10165000FF938091AB0287FF05C010928500109226
:1016600084002BC02091AB02332727FD3095809159
:10167000860290E02817390704F58091AB0299277C
:1016800087FD9095FC01EE0FFF1FE80FF91FE9574A
:10169000FD4F808186FF11C08091AB02992787FDA5
:1016A0009095FC01EE0FFF1FE80FF91FE957FD4F62
:1016B00080818F7360E00E9413138091AB028F5F73
:1016C0008093AB022091AB02332727FD30958091A8
:1016D000860290E0281739070CF04EC08091AB02CB
:1016E0008C300CF049C020918400309185008091AD
:1016F000AB02992787FD9095FC01EE0FFF1FE80FC5
:10170000F91FE957FD4F81819281280F391F3093CE
:101710008900209388008091AB02992787FD9095DE
:10172000FC01EE0FFF1FE80FF91FE957FD4F808105
:1017300086FF2BC08091AB02992787FD9095FC0115
:10174000EE0FFF1FE80FF91FE957FD4F80818F73E0
:1017500061E00E94131319C080E49CE905C08091E8
:10176000840090918500049690938900809388006E
:101770008FEF8093AB0209C0809184009091850027
:10178000049680549C4940F3EACFFF91EF91BF91BA
:10179000AF919F918F917F916F915F914F913F9109
:1017A0002F910F900FBE0F901F901895FC01862F60
:1017B0006283738360E00E94D4120895FC01862F37
:1017C0006283738360E00E94D41208950895EF92BB
:1017D000FF920F931F93DF93CF9300D000D000D0E0
:1017E000CDB7DEB7FC01E680F7808E010F5F1F4F9B
:1017F000C8010E94830FC701B8010E948608C80172
:101800000E948D0F26960FB6F894DEBF0FBECDBF97
:10181000CF91DF911F910F91FF90EF900895CF929C
:10182000DF92EF92FF920F931F937C0184E090E090
:101830000E94BB11FC010AE611E011830083D7016D
:1018400013969C938E931297C0906A01D0906B016F
:1018500068E070E0F601099584E090E00E94BB1119
:10186000FC0111830083D70115969C938E931497E6
:1018700067E070E0F60109958DE090E00E94BB11F1
:101880008C0184E791E0F80191838083C80106967A
:101890000E945409D7010D931C93D801ED91FC913E
:1018A0000190F081E02DC80168E070E00995F70132
:1018B0006085718542815381808191810E94AA094E
:1018C0008EE090E00E94BB118C0188E491E0D80189
:1018D0008D939C93C80104960E94ED04F701178331
:1018E0000683D801ED91FC910190F081E02DC801B3
:1018F00060E070E00995F701A681B781ED91FC9158
:1019000011970280F381E02DCD01099584E090E0EC
:101910000E94BB11FC012CE131E031832083D7010F
:1019200019969C938E93189720911C0130911D015C
:1019300064E070E0F90109951F910F91FF90EF901D
:10194000DF90CF9008958130910581F46F5F7F4FD4
:10195000E1F48EE291E09093B1028093B00284EBC7
:1019600092E067E071E00E94530F0895892B69F4BB
:101970006F5F7F4F51F48EE291E09093B1028093BC
:10198000B00284EB92E00E948D0F089580E090E019
:101990006FEF7FEF0E94A30C089581E090E06FEF5E
:1019A0007FEF0E94A30C0895EF92FF920F931F9375
:1019B000DF93CF9300D000D000D0CDB7DEB78CEA54
:1019C00092E00E940D017C018E010F5F1F4FC80144
:1019D00060EB72E00E94F003C701B8010E94E70BC0
:1019E000C8010E948D0F26960FB6F894DEBF0FBE79
:1019F000CDBFCF91DF911F910F91FF90EF90089590
:101A00008CEA92E00E94110180EB92E00E94CD04EA
:101A10000895CF92DF92EF92FF920F931F93CF938F
:101A2000DF937C016B018A01C0E0D0E00FC0D601DA
:101A30006D916D01D701ED91FC910190F081E02D48
:101A4000C7010995C80FD91F015010400115110594
:101A500071F7CE01DF91CF911F910F91FF90EF9021
:101A6000DF90CF900895CF93DF93FB01EC01A88125
:101A7000B98160817181448155811296ED91FC910B
:101A800013970995DF91CF910895CF93DF93EC01E0
:101A90006115710519F420E030E00FC0DB010D90F5
:101AA0000020E9F71197A61BB70BE881F9810280A6
:101AB000F381E02DAD0109959C01C901DF91CF9122
:101AC00008954F925F927F928F929F92AF92BF92B2
:101AD000CF92DF92EF92FF920F931F93DF93CF93FA
:101AE000CDB7DEB7A1970FB6F894DEBF0FBECDBF5E
:101AF0002C01742ECB01223008F42AE019A231E225
:101B0000C32ED12CCC0EDD1E822E9924AA24BB24F8
:101B1000672D752FA50194010E94F81379018A01A0
:101B2000C801B701A50194010E94BA13472D461BB5
:101B30000894C108D1084A3014F4405D01C0495CE2
:101B4000F6014083E114F1040105110521F07E2C1A
:101B50005F2DC801DDCFC201B6010E94450DA196DF
:101B60000FB6F894DEBF0FBECDBFCF91DF911F91AE
:101B70000F91FF90EF90DF90CF90BF90AF909F902C
:101B80008F907F905F904F900895CF92DF92EF9269
:101B9000FF920F931F93CF93DF93EC016A017B01B8
:101BA0002115310541F4E881F9810190F081E02DA2
:101BB000642F09951FC02A303105D1F477FF17C073
:101BC000E881F9810190F081E02D6DE209958C01A9
:101BD00044275527BA014C195D096E097F09CE01CA
:101BE0002AE00E94610D9801280F391F04C02AE0E5
:101BF0000E94610D9C01C901DF91CF911F910F914E
:101C0000FF90EF90DF90CF900895EF92FF920F93A7
:101C10001F937B019A010027F7FC0095102FB80154
:101C2000A7010E94C50D1F910F91FF90EF9008959D
:101C3000CF93DF93EC010E940612688779878A8729
:101C40009B87E881F9810680F781E02DCE01099517
:101C50009C0197FF15C00E940612288539854A8588
:101C60005B85621B730B840B950B2C813D814E8130
:101C70005F81621773078407950718F32FEF3FEF13
:101C8000C901DF91CF9108950F931F93CF93DF93F5
:101C9000182F092FEB0168E071E00E94530F04C078
:101CA000812F902F0E940D0FCE010E94180EBC01B3
:101CB00097FFF6CF812F902FDF91CF911F910F913A
:101CC00008952F923F924F925F926F927F928F92E0
:101CD0009F92AF92BF92CF92DF92EF92FF920F93BB
:101CE0001F93DF93CF93CDB7DEB73B014C011901B2
:101CF0002A016D897E898F89988D6A197B098C09E3
:101D00009D09621A730A840A950AA40193010E942C
:101D1000BA13E218F30804091509A80197010E94F3
:101D20001A142A0D3B1D4C1D5D1DB901CA01CF912E
:101D3000DF911F910F91FF90EF90DF90CF90BF90B8
:101D4000AF909F908F907F906F905F904F903F905B
:101D50002F9008950F931F93CF93DF93EC018B0186
:101D60006F5F7F4F888199810E94C810009711F49E
:101D700080E005C0998388831B830A8381E0DF911B
:101D8000CF911F910F910895CF93DF93EC0188813C
:101D90009981892B29F08A819B818617970760F4A6
:101DA000CE010E94AA0E882341F08C819D81892B4F
:101DB00019F4E881F981108281E0DF91CF910895D3
:101DC000EF92FF920F931F93CF93DF93EC017B0170
:101DD0006C817D81E114F104C1F04115510599F048
:101DE0008A01060F171FB8010E94C40E882369F0EC
:101DF000888199812C813D81820F931FB7010E94B8
:101E0000E5001D830C8381E001C080E0DF91CF916C
:101E10001F910F91FF90EF900895DF93CF9300D023
:101E2000CDB7DEB769831A82BE016F5F7F4F41E095
:101E300050E00E94E00E0F900F90CF91DF91089537
:101E4000CF93DF93EC0188819981009711F00E9474
:101E50003010198218821D821C821B821A82DF9127
:101E6000CF910895EF92FF920F931F93CF93DF933B
:101E7000EC017B018A01BA010E94C40E882321F47F
:101E8000CE010E94200F07C01D830C838881998199
:101E9000B7010E94E500CE01DF91CF911F910F9114
:101EA000FF90EF900895CF93DF93EC011982188291
:101EB0001B821A821D821C826115710551F0DB01A3
:101EC0000D900020E9F71197A61BB70BAD010E94FA
:101ED000320FDF91CF910895CF93DF93EC01FB0197
:101EE0008617970761F0608171816115710529F08E
:101EF000448155810E94320F02C00E94200FCE0102
:101F0000DF91CF910895FC01118210821382128219
:101F1000158214820E946C0F0895FC0180819181CA
:101F20000E94301008950F931F93CF93DF93BC014D
:101F30008230910510F462E070E0E091C702F09108
:101F4000C80240E050E0A0E0B0E024C08081918170
:101F500086179707D0F08617970771F482819381CF
:101F6000109729F013969C938E9312972CC0909300
:101F7000C8028093C70227C04115510519F0841784
:101F8000950718F48D01AC01EF01DF018281938187
:101F90009C01F9013097D1F641155105F9F0CA01BC
:101FA000861B970B8430910580F48A819B810115F3
:101FB000110521F0F8019383828304C09093C80235
:101FC0008093C702FE01329645C0FE01E80FF91F5B
:101FD000619371930297998388833CC08091C50275
:101FE0009091C602892B41F480910B0190910C01D4
:101FF0009093C6028093C50240910D0150910E014D
:102000004115510541F44DB75EB78091090190919A
:102010000A01481B590B2091C5023091C6022417B2
:102020003507B0F4CA01821B930B8617970780F01F
:10203000AB014E5F5F4F8417950750F0420F531F5F
:102040005093C6024093C502F9016193719302C097
:10205000E0E0F0E0CF01DF91CF911F910F91089563
:10206000CF93DF939C01009709F48FC0EC01229776
:102070001B821A826091C7027091C80261157105B6
:1020800081F488819981820F931F2091C50230913C
:10209000C6022817390739F5D093C602C093C50286
:1020A00074C0DB0140E050E0AC17BD0708F1BB8312
:1020B000AA83FE0121913191E20FF31FAE17BF07F2
:1020C00079F48D919C911197280F391F2E5F3F4F06
:1020D0003983288312968D919C9113979B838A83D1
:1020E0004115510571F4D093C802C093C7024DC089
:1020F00012968D919C911397AD01009711F0DC0120
:10210000D3CFDA011396DC93CE931297FA01219183
:102110003191E20FF31FCE17DF0769F488819981AF
:10212000280F391F2E5F3F4FFA01318320838A81A8
:102130009B8193838283E0E0F0E0DB0112968D9136
:102140009C911397009719F0BC01FD01F6CFAB01EC
:102150004E5F5F4FDB018D919C91840F951F209105
:10216000C5023091C6022817390779F4309729F44F
:102170001092C8021092C70202C01382128242500B
:1021800050405093C6024093C502DF91CF9108950D
:102190006F927F928F929F92AF92BF92CF92DF9277
:1021A000EF92FF920F931F93CF93DF938C010097D1
:1021B00029F4CB010E94930F8C01BBC08EEFE82E57
:1021C0008FEFF82EE00EF11E4801860E971E8E143A
:1021D0009F0408F4ACC0D7014D915C91119746174C
:1021E0005707B8F04530510508F4A3C0CA01049759
:1021F0008617970708F49DC042505040461B570B66
:10220000F401419351936D937C93CF010E94301060
:1022100090C05B01A41AB50A3801640E751EA09126
:10222000C702B091C802E0E0F0E0CC24DD2447C052
:10223000A615B705A9F5CD91DC911197CE010296AF
:102240008A159B0568F1CE018A199B0902961296A0
:102250002C91129713963C91059758F0F401228324
:102260003383CA19DB09D183C083D7016D937C9373
:1022700009C04E5F5F4F4C0F5D1FF70151834083D4
:10228000C901FC01C114D10431F0D6011396FC93AD
:10229000EE9312974EC0F093C802E093C70249C074
:1022A0008D919C911197E817F90708F4FC016D01D5
:1022B00012968C91129713969C919C01D9011097BC
:1022C00009F0B6CF8091C5029091C6028615970598
:1022D000E9F4E617F707D0F420910D0130910E01D3
:1022E0002115310541F42DB73EB780910901909138
:1022F0000A01281B390B82169306C8F49092C60275
:102300008092C502F7017183608313C0CB010E94E4
:10231000930FEC01009759F0D7014D915C91B801F2
:102320000E94DC00C8010E9430108E0102C000E053
:1023300010E0C801DF91CF911F910F91FF90EF90B6
:10234000DF90CF90BF90AF909F908F907F906F90D5
:1023500008950895CF93DF930E9477120E94A911E8
:102360000E94000DC0E0D0E00E94D40C2097E1F361
:102370000E940000F9CF0E94930F08951F920F92C0
:102380000FB60F9211242F933F938F939F93AF9388
:10239000BF938091C0029091C102A091C202B091FE
:1023A000C3023091C4020196A11DB11D232F2D5FE0
:1023B0002D3720F02D570196A11DB11D2093C40289
:1023C0008093C0029093C102A093C202B093C30253
:1023D0008091BC029091BD02A091BE02B091BF025B
:1023E0000196A11DB11D8093BC029093BD02A093E4
:1023F000BE02B093BF02BF91AF919F918F913F9169
:102400002F910F900FBE0F901F9018958FB7F894D3
:102410002091C0023091C1024091C2025091C3028A
:102420008FBFB901CA0108959B01AC017FB7F89431
:102430008091BC029091BD02A091BE02B091BF02FA
:1024400066B5A89B05C06F3F19F00196A11DB11D8F
:102450007FBFBA2FA92F982F8827860F911DA11D06
:10246000B11D62E0880F991FAA1FBB1F6A95D1F7A3
:10247000BC012DC0FFB7F8948091BC029091BD02C1
:10248000A091BE02B091BF02E6B5A89B05C0EF3F88
:1024900019F00196A11DB11DFFBFBA2FA92F982FCA
:1024A00088278E0F911DA11DB11DE2E0880F991F95
:1024B000AA1FBB1FEA95D1F7861B970B885E934036
:1024C000C8F2215030404040504068517C4F2115A7
:1024D00031054105510571F60895019739F0880FCE
:1024E000991F880F991F02970197F1F70895789423
:1024F00084B5826084BD84B5816084BD85B5826009
:1025000085BD85B5816085BDEEE6F0E080818160A6
:102510008083E1E8F0E010828081826080838081A6
:1025200081608083E0E8F0E0808181608083E1EB7E
:10253000F0E0808184608083E0EBF0E08081816066
:102540008083EAE7F0E0808184608083808182601C
:102550008083808181608083808180688083109205
:10256000C1000895982F8E3008F09E50977080918A
:102570000F018295880F880F807C892B80937C00C7
:1025800080917A00806480937A0080917A0086FD41
:10259000FCCF2091780040917900942F80E030E0CA
:1025A000282B392BC9010895CF93DF93482F50E092
:1025B000CA018A5C9E4FFC0134914E5D5E4FFA0168
:1025C0008491882369F190E0880F991FFC01EC5FEA
:1025D000FE4FA591B491FC01E25FFE4FC591D491ED
:1025E000662351F42FB7F8948C91932F90958923FB
:1025F0008C93888189230BC0623061F42FB7F894E3
:102600008C91932F909589238C938881832B888339
:102610002FBF06C09FB7F8948C91832B8C939FBFDC
:10262000DF91CF910895482F50E0CA01865B9E4FFD
:10263000FC012491CA018A5C9E4FFC0194914E5D7D
:102640005E4FFA013491332309F440C0222351F143
:10265000233071F0243028F42130A1F0223011F51C
:1026600014C02630B1F02730C1F02430D9F404C0B2
:10267000809180008F7703C0809180008F7D809350
:10268000800010C084B58F7702C084B58F7D84BD73
:1026900009C08091B0008F7703C08091B0008F7D1A
:1026A0008093B000E32FF0E0EE0FFF1FE25FFE4FDC
:1026B000A591B4912FB7F894662321F48C9190954D
:1026C000892302C08C91892B8C932FBF0895682F8A
:1026D00070E0CB01865B9E4FFC012491CB018A5CAC
:1026E0009E4FFC0144916E5D7E4FFB0194919923B6
:1026F00019F420E030E03CC0222351F1233071F086
:10270000243028F42130A1F0223011F514C02630F5
:10271000B1F02730C1F02430D9F404C0809180009A
:102720008F7703C0809180008F7D8093800010C0E0
:1027300084B58F7702C084B58F7D84BD09C0809138
:10274000B0008F7703C08091B0008F7D8093B00080
:10275000892F90E0880F991F885E9E4FFC01A591FC
:10276000B4918C9120E030E0842311F021E030E03E
:10277000C9010895629FD001739FF001829FE00D0F
:10278000F11D649FE00DF11D929FF00D839FF00DF0
:10279000749FF00D659FF00D9927729FB00DE11D9C
:1027A000F91F639FB00DE11DF91FBD01CF01112479
:1027B0000895991B79E004C0991F961708F0961B9D
:1027C000881F7A95C9F78095089597FB092E0726EB
:1027D0000AD077FD04D049D006D000201AF47095B5
:1027E00061957F4F0895F6F7909581959F4F0895D5
:1027F000A1E21A2EAA1BBB1BFD010DC0AA1FBB1F05
:10280000EE1FFF1FA217B307E407F50720F0A21B76
:10281000B30BE40BF50B661F771F881F991F1A94E3
:1028200069F760957095809590959B01AC01BD010D
:10283000CF01089597FB092E05260ED057FD04D031
:10284000D7DF0AD0001C38F450954095309521957B
:102850003F4F4F4F5F4F0895F6F7909580957095D5
:1028600061957F4F8F4F9F4F0895AA1BBB1B51E16E
:1028700007C0AA1FBB1FA617B70710F0A61BB70BF0
:10288000881F991F5A95A9F780959095BC01CD0195
:102890000895EE0FFF1F0590F491E02D099411E0CB
:1028A000C2E6D1E004C0FE010E944B142296C43659
:0828B000D107C9F7F894FFCF2E
:1028B800456E766F79650000008000C9020000014E
:1028C80000000000D60BEC0000000000DE0BFC004E
:1028D800F60000000000D60B020100000000CD0445
:1028E8000E04F003000000001103090DF702D602E0
:1028F800D403C30300000000FB0836083A080000B0
:102908000000F5042A056A05730588059905000085
:1029180000006D06090D00000000DE0B4E09480995
:1029280000000000020B4A0A180A00000000D60B3B
:02293800E60BAC
:00000001FF
