:100000000C94B2000C94DA000C94DA000C945601B3
:100010000C9480010C94AA010C94DA000C94DA0080
:100020000C94DA000C94DA000C94DA000C94F507C6
:100030000C94DA000C94DA000C94DA000C94DA00D8
:100040000C947F0D0C94DA000C94DA000C94DA0016
:100050000C94DA000C94DA000C94DA000C94DA00B8
:100060000C9431060C94DA0000C20100010011006A
:1000700011000C0000E100000A002500250021000D
:10008000009600001900390039003600127A00008D
:100090001F004600460044008070000022004D0012
:1000A0004D004A00004B00003600750075007200DC
:1000B000403800004A009C009C0099008025000008
:1000C0007200EC00EC00E900C0120000E900DA0167
:1000D000DA01D70160090000D701B603B603B30304
:1000E000B0040000B3036E076E076B0758020000F0
:1000F0006E07DC0EDC0ED80E2C010000DC0EC11DDC
:10010000C11DBE1D00000000240027002A000000C1
:100110000000250028002B0000000000230026001E
:10012000290004040404040404040202020202027A
:1001300003030303030301020408102040800102AB
:10014000040810200102040810200000000700022B
:100150000100000304060000000000000000C207C8
:10016000F308EC0811241FBECFEFD8E0DEBFCDBFEF
:1001700011E0A0E0B1E0E0E5FEE102C005900D92E3
:10018000A037B107D9F712E0A0E7B1E001C01D9296
:10019000AF3BB107E1F711E0C2E6D1E004C022971E
:1001A000FE010E94170FCE35D107C9F70E946B0DD3
:1001B0000C941B0F0C940000FB01DC0102C00190A9
:1001C0000D9241505040D8F70895FB01DC01019099
:1001D0000D920020E1F708950F931F93CF93DF93C3
:1001E000FC01738D76957170A685B785958577230B
:1001F00029F08C91892309F454C004C08C9189237F
:1002000009F04FC08389948920E001972FEF8F3F39
:100210009207D9F7C589D689A685B785158560E087
:1002200031E040E050E000E0CE01202F01972FEFB9
:100230008F3F9207D9F78C91812311F0632B03C074
:10024000832F80956823330F4F5F5F4F48305105F0
:1002500059F78789908D20E001972FEF8F3F920704
:10026000D9F7711160958091B2012091B30190E0AE
:1002700001968F73907030E08217930779F0E091C8
:10028000B201F0E0EE58FE4F60838091B20190E041
:1002900001968F7390708093B20103C0838D81604B
:1002A000838FDF91CF911F910F9108951F920F922D
:1002B0000FB60F9211242F933F934F935F936F9339
:1002C0007F938F939F93AF93BF93EF93FF9380910F
:1002D000700190917101009711F00E94EC00FF9164
:1002E000EF91BF91AF919F918F917F916F915F91AE
:1002F0004F913F912F910F900FBE0F901F90189527
:100300001F920F920FB60F9211242F933F934F938A
:100310005F936F937F938F939F93AF93BF93EF936D
:10032000FF938091700190917101009711F00E94EC
:10033000EC00FF91EF91BF91AF919F918F917F91D1
:100340006F915F914F913F912F910F900FBE0F9042
:100350001F9018951F920F920FB60F9211242F9392
:100360003F934F935F936F937F938F939F93AF933D
:10037000BF93EF93FF93809170019091710100976B
:1003800011F00E94EC00FF91EF91BF91AF919F910E
:100390008F917F916F915F914F913F912F910F902E
:1003A0000FBE0F901F901895CF92DF92EF92FF92A1
:1003B0000F931F93CF93DF93EC017A018B011A8E79
:1003C000198E188E1F8A1E8A1D8A1C8A1B8A20E09D
:1003D00030E06901CC0CDD1CC20ED31EB601660FE5
:1003E000771F660F771FAB0148595F4FFA01859160
:1003F0009591A591B4918E159F05A007B107E9F4D9
:10040000FB01E459FF4F859194919C8B8B8BFB01F1
:10041000E259FF4F859194919E8B8D8BFB01E059A2
:10042000FF4F85919491988F8F8BFB01EE58FF4F72
:10043000859194919A8F898F06C02F5F3F4F2D3001
:10044000310509F0C6CF8F89988D892B09F449C0F1
:100450004C85463108F03DC090916800483010F45A
:1004600084E005C04E3010F082E001C081E0892BAD
:1004700080936800483028F4EDE6F0E0ADE6B0E0A7
:100480000BC04E3028F0ECE6F0E0ACE6B0E004C083
:10049000EBE6F0E0ABE6B0E05081483040F481E0BC
:1004A00090E002C0880F991F4A95E2F710C0242FF0
:1004B00030E04E3018F42850304002C02E5030400A
:1004C00081E090E002C0880F991F2A95E2F7852B02
:1004D0008C93898D9A8D20E001972FEF8F3F9207A3
:1004E000D9F780917001909171018C179D0781F06F
:1004F0008B8D8E7F8B8F9FB7F8941092B201809175
:10050000B2018093B301D0937101C09370019FBF7A
:10051000DF91CF911F910F91FF90EF90DF90CF90DF
:10052000089520917001309171012817390731F435
:100530009091B3018091B201981719F42FEF3FEF1A
:100540000FC0E091B301F0E0EE58FE4F20818091A2
:10055000B30190E001968F7390708093B30130E007
:10056000C901089520917001309171012817390750
:1005700019F020E030E00EC08091B2012091B3016B
:1005800090E0805C9F4F821B910960E470E00E94C4
:10059000CC0E9C01C90108950F931F93DC0159965D
:1005A0008D919C915A97892B49F481E090E01396A4
:1005B0009C938E93129720E030E097C00FB7F89489
:1005C0005B968C915B975196ED91FC91529750966A
:1005D0002C91509781FF8DC08081822B808359960A
:1005E0008D919C915A97059620E001972FEF8F3FB0
:1005F0009207D9F75B968C915B9781FF35C031E00C
:1006000040E050E070E010E0832F90E086239723D5
:100610005196ED91FC91529750962C915097892BC1
:1006200029F0808120952823208303C08081822B9C
:10063000808359968D919C915A97212F01972FEF86
:100640008F3F9207D9F7330F4F5F5F4F4830510507
:10065000D9F65196ED91FC915297908150968C91DC
:1006600050978095892333C031E040E050E070E03E
:1006700010E0832F90E0862397235196ED91FC9113
:10068000529750962C915097892B21F08081822B84
:10069000808304C0808120952823208359968D91E2
:1006A0009C915A97212F01972FEF8F3F9207D9F7EF
:1006B000330F4F5F5F4F48305105D9F65196ED919A
:1006C000FC915297808150969C915097892B808302
:1006D0000FBF59968D919C915A9720E001972FEF6B
:1006E0008F3F9207D9F721E030E0C9011F910F91A8
:1006F0000895808120952823208371CF2091700157
:10070000309171012817390749F49FB7F894109276
:10071000B2018091B2018093B3019FBF08952091EF
:100720007001309171012817390731F49091B301AC
:100730008091B201981719F42FEF3FEF0AC0E091B2
:10074000B301F0E0EE58FE4F8081282F332727FDBC
:100750003095C9010895AF92BF92CF92DF92EF9288
:10076000FF920F931F93DF93CF9300D000D000D060
:10077000CDB7DEB75C017B01DB011A96ED91FC91F0
:100780001B97A081B18114962D913C911597CF01B3
:10079000F901099524E0C22ED12CCE0CDF1C892B47
:1007A00089F0F701628573858E010F5F1F4FC801C5
:1007B0000E94350AC601B8010E942D0BC8010E9493
:1007C0004E0B05C0C60160E071E00E94140B84E08E
:1007D00090E0E80EF91EC501B7010E94440BC50167
:1007E00026960FB6F894DEBF0FBECDBFCF91DF9136
:1007F0001F910F91FF90EF90DF90CF90BF90AF903F
:100800000895AF92BF92CF92DF92EF92FF920F9333
:100810001F93DF93CF9300D000D000D0CDB7DEB7C9
:100820006C015B01FC01E280F3808E010F5F1F4FC2
:10083000C80162E071E00E94FB0AC701B8010E9492
:10084000E107C8010E944E0BF60182859385B50130
:100850004AE050E00E94F60926960FB6F894DEBFF3
:100860000FBECDBFCF91DF911F910F91FF90EF9001
:10087000DF90CF90BF90AF9008951F93CF93DF93F9
:10088000EC01162F862F60E00E941A0E8B8D81FDE1
:1008900004C0812F61E00E94590E1C87212F30E097
:1008A000C9018A5C9E4FFC0184918D872E5D3E4F6D
:1008B000F9016491E62FF0E0EE0FFF1FE85EFE4FB6
:1008C000859194919F878E87DF91CF911F91089595
:1008D0001F93CF93DF93EC01162F862F61E00E94C8
:1008E0001A0E60E08B8D81FF61E0812F0E94590E0E
:1008F000212F30E0C9018A5C9E4FFC018491888BD6
:100900002E5D3E4FF9016491E62FF0E0EE0FFF1FE0
:10091000E25FFE4F859194919A8B898BDF91CF9105
:100920001F910895FF920F931F938C01F62EFC01E7
:100930001382128288EE93E0A0E0B0E08483958376
:10094000A683B78384E591E091838083148A138A18
:10095000168A158A108E178A128E118E838D217039
:10096000220F8C7F822B838FC801642F0E94680422
:10097000C8016F2D0E943D041F910F91FF900895B3
:10098000EF92FF920F931F938C018CE190E00E94F5
:100990007C0DF82EE92E60E041E020E00E949204F8
:1009A000F801F286E3868F2D9E2D40E855E260E047
:1009B00070E00E94D4011F910F91FF90EF90089575
:1009C000DF93CF930F92CDB7DEB7FC01698380919F
:1009D000F9018823C9F08091F801803238F081E074
:1009E00090E09383828320E030E01AC08091F70189
:1009F000E82FF0E0E952FE4F998190838F5F80935A
:100A0000F7018093F8010AC080912B02843031F401
:100A100081E08093510289818093540221E030E08B
:100A2000C9010F90CF91DF910895CF92DF92EF929D
:100A3000FF920F931F93CF93DF936C018B017A0189
:100A40008091F9018823A1F0C0E0D0E00DC0D6016B
:100A5000ED91FC91D801AC0FBD1F0190F081E02D0C
:100A6000C6016C9109952196CE15DF0580F313C060
:100A7000413288F480912B02843069F4E092510273
:100A8000562FA4E5B2E0FB0102C081918D938E2F19
:100A9000851B8417D0F3C701DF91CF911F910F9170
:100AA000FF90EF90DF90CF9008952091D50130E036
:100AB0008091D401281B3109C90108954091D401C6
:100AC0008091D501481718F02FEF3FEF0AC0E42FAF
:100AD000F0E0EC54FE4F8081282F30E04F5F4093D0
:100AE000D401C9010895E091D4018091D501E8179E
:100AF00018F0EFEFFFEF06C0F0E0EC54FE4F8081FE
:100B0000E82FF0E0CF01089508950F931F93582F19
:100B1000122F413210F081E045C080912B028823D2
:100B2000E1F782E080932B02009329028FEF8093FC
:100B30002C021092070240930802A9E0B2E0FB01E8
:100B400002C081918D938E2F861B8417D0F3109253
:100B5000060280910602550F852B80930602809134
:100B60002A02813041F410922A0280910602809379
:100B7000BB0085EC01C085EE8093BC001123A9F079
:100B800080912B02823089F4FBCF80912C0280323D
:100B900011F482E007C080912C02803311F084E0D0
:100BA00001C083E01F910F91089580912C028F3F27
:100BB00061F780E0F7CF0F93062F8091D60167EDA4
:100BC00071E04091F80121E00E9485051092F70143
:100BD0001092F8011092F9010F91089561E00E94BE
:100BE000DB050895EF92FF920F931F93CF93DF934E
:100BF0007C0181E08093F9018EE38093D60110920D
:100C0000F7011092F801C0E0D0E0062F10E009C013
:100C1000F701EC0FFD1F8AEF91E060810E94E00474
:100C20002196C017D107A4F38AEF91E00E94EE0548
:100C3000DF91CF911F910F91FF90EF900895DF9377
:100C4000CF9300D0CDB7DEB780E889836A83CE0129
:100C5000019662E00E94F2050F900F90CF91DF9114
:100C600008951F920F920FB60F9211242F933F9366
:100C70004F935F936F937F938F939F93AF93BF93A4
:100C8000EF93FF938091B90090E0887F9070803659
:100C9000910509F4F2C081369105CCF588329105B1
:100CA00009F47BC089329105B4F48031910509F4CF
:100CB0006FC0813191053CF4009709F447C1089752
:100CC00009F04FC165C08831910509F466C080976D
:100CD00009F047C182C08034910509F4A4C0813471
:100CE000910544F48033910509F482C0C89709F056
:100CF00038C189C08035910509F489C088359105CE
:100D000009F496C08834910509F02BC1AEC088392A
:100D1000910509F413C189399105ECF488379105DF
:100D200009F4ABC0893791054CF48836910509F474
:100D3000A4C08037910509F014C19FC0883891057F
:100D400009F4FCC08039910509F49DC080389105F3
:100D500009F007C198C0803B910509F4C6C0813BEA
:100D600091054CF4803A910509F49FC0883A9105A9
:100D700009F0F7C0BAC0803C910509F4E3C0883C93
:100D8000910509F4DFC0883B910509F0EAC0C2C0B3
:100D9000809106028093BB00CFC0909107028091A2
:100DA0000802981768F490910702E92FF0E0E75FD6
:100DB000FD4F80818093BB009F5F90930702BCC072
:100DC00080912902882309F44BC085ED8093BC00F3
:100DD0008091BC0084FDFCCFC2C080E280932C02D5
:100DE00085ED8093BC008091BC0084FDFCCFB7C032
:100DF00080E380932C0285ED8093BC008091BC0041
:100E000084FDFCCFACC088E380932C029BC0809112
:100E100007029091BB00E82FF0E0E75FFD4F908361
:100E20008F5F80930702909107028091080282C031
:100E3000809107029091BB00E82FF0E0E75FFD4F43
:100E400090838F5F8093070280912902882341F06D
:100E500085ED8093BC008091BC0084FDFCCF7FC0F9
:100E600081E080932A0284EA6EC085ED8093BC0005
:100E70008091BC0084FDFCCF72C083E080932B0284
:100E800010922D0259C080912D02803208F056C078
:100E900080912D029091BB00E82FF0E0E25DFD4FC4
:100EA00090838F5F80932D0247C080912D02803206
:100EB00030F4E0912D02F0E0E25DFD4F108285ED0F
:100EC0008093BC008091BC0084FDFCCF10922B026B
:100ED00060912D02E0914E02F0914F028EE292E07D
:100EE00070E0099510922D022DC084E080932B02B2
:100EF0001092500210925102E0915202F09153026E
:100F0000099580915102882329F481E08093510250
:100F10001092540290915002E92FF0E0EC5AFD4FEC
:100F200080818093BB009F5F90935002909150020C
:100F300080915102981710F485EC01C085E88093E8
:100F4000BC000FC085EC8093BC0009C010922C023D
:100F500085ED8093BC008091BC0084FDFCCF109295
:100F60002B02FF91EF91BF91AF919F918F917F9154
:100F70006F915F914F913F912F910F900FBE0F9006
:100F80001F9018951092FD011092FC0188EE93E0DD
:100F9000A0E0B0E08093FE019093FF01A0930002D7
:100FA000B093010284E691E09093FB018093FA01F3
:100FB000089561E00E941F0680ED97E00E94D50D24
:100FC0000895EF92FF920F931F937B018C010C5FAA
:100FD0001F4FC8010E94D907C801B7010E94240908
:100FE0001F910F91FF90EF9008951F920F920FB6EF
:100FF0000F9211242F933F934F935F936F937F939F
:101000008F939F93AF93BF93EF93FF938091990238
:1010100087FF05C010928500109284002BC020919C
:101020009902332727FD30958091740290E02817AC
:10103000390704F580919902992787FD9095FC0165
:10104000EE0FFF1FE80FF91FEB58FD4F808186FF61
:1010500011C080919902992787FD9095FC01EE0FB0
:10106000FF1FE80FF91FEB58FD4F80818F7360E081
:101070000E94590E809199028F5F8093990220916E
:101080009902332727FD30958091740290E028174C
:1010900039070CF04EC0809199028C300CF049C099
:1010A000209184003091850080919902992787FDD5
:1010B0009095FC01EE0FFF1FE80FF91FEB58FD4F55
:1010C00081819281280F391F3093890020938800F5
:1010D00080919902992787FD9095FC01EE0FFF1FE3
:1010E000E80FF91FEB58FD4F808186FF2BC08091E0
:1010F0009902992787FD9095FC01EE0FFF1FE80FDD
:10110000F91FEB58FD4F80818F7361E00E94590EEB
:1011100019C080E49CE905C080918400909185000D
:10112000049690938900809388008FEF80939902B2
:1011300009C08091840090918500049680549C4958
:1011400040F3EACFFF91EF91BF91AF919F918F91C3
:101150007F916F915F914F913F912F910F900FBEB3
:101160000F901F9018950895089581309105E1F42E
:101170006F5F7F4F81F58AE491E090939B028093AB
:101180009A028EE992E069E071E00E94FB0A86EA29
:1011900092E06AE071E00E94FB0A8CEA92E069E06A
:1011A00071E00E94FB0A0895892BA9F46F5F7F4FBD
:1011B00091F48CEA92E00E944E0B86EA92E00E9443
:1011C0004E0B8AE491E090939B0280939A028EE901
:1011D00092E00E944E0B089580E090E06FEF7FEF69
:1011E0000E94B508089581E090E06FEF7FEF0E94C4
:1011F000B5080895CF92DF92EF92FF920F931F935D
:10120000CF93DF937C016B018A01C0E0D0E00FC077
:10121000D6016D916D01D701ED91FC910190F081A6
:10122000E02DC7010995C80FD91F015010400115C5
:10123000110571F7CE01DF91CF911F910F91FF90B2
:10124000EF90DF90CF900895CF93DF93FB01EC01F7
:10125000A881B98160817181448155811296ED9197
:10126000FC9113970995DF91CF910895CF93DF9368
:10127000EC016115710519F420E030E00FC0DB01CD
:101280000D900020E9F71197A61BB70BE881F981B3
:101290000280F381E02DAD0109959C01C901DF9128
:1012A000CF9108954F925F927F928F929F92AF92CB
:1012B000BF92CF92DF92EF92FF920F931F93DF9333
:1012C000CF93CDB7DEB7A1970FB6F894DEBF0FBEB0
:1012D000CDBF2C01742ECB01223008F42AE019A2D4
:1012E00031E2C32ED12CCC0EDD1E822E9924AA24ED
:1012F000BB24672D752FA50194010E94DF0E790193
:101300008A01C801B701A50194010E94AD0E472DC5
:10131000461B0894C108D1084A3014F4405D01C04E
:10132000495CF6014083E114F1040105110521F047
:101330007E2C5F2DC801DDCFC201B6010E943609A7
:10134000A1960FB6F894DEBF0FBECDBFCF91DF914F
:101350001F910F91FF90EF90DF90CF90BF90AF90D3
:101360009F908F907F905F904F900895CF92DF92E3
:10137000EF92FF920F931F93CF93DF93EC016A01DB
:101380007B012115310541F4E881F9810190F0815B
:10139000E02D642F09951FC02A303105D1F477FF65
:1013A00017C0E881F9810190F081E02D6DE2099587
:1013B0008C0144275527BA014C195D096E097F0934
:1013C000CE012AE00E9452099801280F391F04C05B
:1013D0002AE00E9452099C01C901DF91CF911F911F
:1013E0000F91FF90EF90DF90CF900895EF92FF92D2
:1013F0000F931F937B019A010027F7FC0095102F94
:10140000B801A7010E94B6091F910F91FF90EF90BC
:101410000895CF93DF93EC010E94C70D6887798709
:101420008A879B87E881F9810680F781E02DCE01CC
:1014300009959C0197FF15C00E94C70D2885398525
:101440004A855B85621B730B840B950B2C813D8158
:101450004E815F81621773078407950718F32FEF9A
:101460003FEFC901DF91CF9108950F931F93CF9361
:10147000DF93182F092FEB016FE371E00E94FB0A45
:1014800004C0812F902F0E94B50ACE010E94090A44
:10149000BC0197FFF6CF812F902FDF91CF911F9145
:1014A0000F9108950F931F93CF93DF93EC018B015E
:1014B0006F5F7F4F888199810E94890C009711F49A
:1014C00080E005C0998388831B830A8381E0DF91D4
:1014D000CF911F910F910895CF93DF93EC018881F5
:1014E0009981892B29F08A819B818617970760F45F
:1014F000CE010E94520A882341F08C819D81892B64
:1015000019F4E881F981108281E0DF91CF9108958B
:10151000EF92FF920F931F93CF93DF93EC017B0128
:101520006C817D81E114F104C1F04115510599F000
:101530008A01060F171FB8010E946C0A882369F000
:10154000888199812C813D81820F931FB7010E9470
:10155000E5001D830C8381E001C080E0DF91CF9125
:101560001F910F91FF90EF900895DF93CF9300D0DC
:10157000CDB7DEB769831A82BE016F5F7F4F41E04E
:1015800050E00E94880A0F900F90CF91DF9108954C
:10159000CF93DF93EC0188819981009711F00E942D
:1015A000F10B198218821D821C821B821A82DF9124
:1015B000CF910895EF92FF920F931F93CF93DF93F4
:1015C000EC017B018A01BA010E946C0A882321F494
:1015D000CE010E94C80A07C01D830C8388819981AF
:1015E000B7010E94E500CE01DF91CF911F910F91CD
:1015F000FF90EF900895CF93DF93EC01198218824A
:101600001B821A821D821C826115710551F0DB015B
:101610000D900020E9F71197A61BB70BAD010E94B2
:10162000DA0ADF91CF9108950F931F93182F092F96
:101630006115710559F0DB010D900020E9F7119754
:10164000A61BB70BAD010E94DA0A02C00E94C80AAD
:10165000812F902F1F910F910895CF93DF93EC016D
:10166000FB018617970761F0608171816115710533
:1016700029F0448155810E94DA0A02C00E94C80AFA
:10168000CE01DF91CF910895FC0111821082138267
:101690001282158214820E942D0B0895FC01808114
:1016A00091810E94F10B08950F931F93CF93DF93C5
:1016B000BC018230910510F462E070E0E091BD025F
:1016C000F091BE0240E050E0A0E0B0E024C0808194
:1016D000918186179707D0F08617970771F482815A
:1016E0009381109729F013969C938E9312972CC098
:1016F0009093BE028093BD0227C04115510519F099
:101700008417950718F48D01AC01EF01DF01828188
:1017100093819C01F9013097D1F641155105F9F0FB
:10172000CA01861B970B8430910580F48A819B81C6
:101730000115110521F0F8019383828304C0909371
:10174000BE028093BD02FE01329645C0FE01E80F45
:10175000F91F619371930297998388833CC08091AC
:10176000BB029091BC02892B41F48091420190917F
:1017700043019093BC028093BB024091440150917D
:1017800045014115510541F44DB75EB780914001C7
:1017900090914101481B590B2091BB023091BC0232
:1017A00024173507B0F4CA01821B930B86179707DD
:1017B00080F0AB014E5F5F4F8417950750F0420FEA
:1017C000531F5093BC024093BB02F9016193719384
:1017D00002C0E0E0F0E0CF01DF91CF911F910F91C7
:1017E0000895CF93DF939C01009709F48FC0EC011B
:1017F00022971B821A826091BD027091BE02611510
:10180000710581F488819981820F931F2091BB0219
:101810003091BC022817390739F5D093BC02C09328
:10182000BB0274C0DB0140E050E0AC17BD0708F11B
:10183000BB83AA83FE0121913191E20FF31FAE1702
:10184000BF0779F48D919C911197280F391F2E5F56
:101850003F4F3983288312968D919C9113979B83D8
:101860008A834115510571F4D093BE02C093BD0225
:101870004DC012968D919C911397AD01009711F078
:10188000DC01D3CFDA011396DC93CE931297FA01E1
:1018900021913191E20FF31FCE17DF0769F48881A0
:1018A0009981280F391F2E5F3F4FFA013183208322
:1018B0008A819B8193838283E0E0F0E0DB011296D2
:1018C0008D919C911397009719F0BC01FD01F6CF03
:1018D000AB014E5F5F4FDB018D919C91840F951F93
:1018E0002091BB023091BC022817390779F4309758
:1018F00029F41092BE021092BD0202C0138212821D
:10190000425050405093BC024093BB02DF91CF91B4
:1019100008956F927F928F929F92AF92BF92CF92D3
:10192000DF92EF92FF920F931F93CF93DF938C017F
:10193000009729F4CB010E94540B8C01BBC08EEFA1
:10194000E82E8FEFF82EE00EF11E4801860E971E4E
:101950008E149F0408F4ACC0D7014D915C9111978F
:1019600046175707B8F04530510508F4A3C0CA011F
:1019700004978617970708F49DC042505040461BB5
:10198000570BF401419351936D937C93CF010E94C7
:10199000F10B90C05B01A41AB50A3801640E751EE4
:1019A000A091BD02B091BE02E0E0F0E0CC24DD24C5
:1019B00047C0A615B705A9F5CD91DC911197CE01C9
:1019C00002968A159B0568F1CE018A199B09029639
:1019D00012962C91129713963C91059758F0F401AA
:1019E00022833383CA19DB09D183C083D7016D9366
:1019F0007C9309C04E5F5F4F4C0F5D1FF701518311
:101A00004083C901FC01C114D10431F0D601139601
:101A1000FC93EE9312974EC0F093BE02E093BD028A
:101A200049C08D919C911197E817F90708F4FC01C2
:101A30006D0112968C91129713969C919C01D9017D
:101A4000109709F0B6CF8091BB029091BC02861529
:101A50009705E9F4E617F707D0F420914401309197
:101A600045012115310541F42DB73EB78091400164
:101A700090914101281B390B82169306C8F490926D
:101A8000BC028092BB02F7017183608313C0CB015B
:101A90000E94540BEC01009759F0D7014D915C91D5
:101AA000B8010E94DC00C8010E94F10B8E0102C047
:101AB00000E010E0C801DF91CF911F910F91FF90DE
:101AC000EF90DF90CF90BF90AF909F908F907F90DE
:101AD0006F9008950895CF93DF930E94DF0D0E94C9
:101AE0006A0D0E94B308C0E0D0E00E94B4082097BD
:101AF000E1F30E940000F9CF0E94540B08951F9259
:101B00000F920FB60F9211242F933F938F939F93B1
:101B1000AF93BF938091B6029091B702A091B802A3
:101B2000B091B9023091BA020196A11DB11D232FC7
:101B30002D5F2D3720F02D570196A11DB11D20934B
:101B4000BA028093B6029093B702A093B802B09302
:101B5000B9028091B2029091B302A091B402B09107
:101B6000B5020196A11DB11D8093B2029093B302FC
:101B7000A093B402B093B502BF91AF919F918F91A2
:101B80003F912F910F900FBE0F901F9018958FB718
:101B9000F8942091B6023091B7024091B80250916A
:101BA000B9028FBFB901CA010895019739F0880FB2
:101BB000991F880F991F02970197F1F7089578945C
:101BC00084B5826084BD84B5816084BD85B5826042
:101BD00085BD85B5816085BDEEE6F0E080818160E0
:101BE0008083E1E8F0E010828081826080838081E0
:101BF00081608083E0E8F0E0808181608083E1EBB8
:101C0000F0E0808184608083E0EBF0E0808181609F
:101C10008083EAE7F0E08081846080838081826055
:101C2000808380818160808380818068808310923E
:101C3000C1000895CF93DF93482F50E0CA018A5C1A
:101C40009E4FFC0134914E5D5E4FFA0184918823D2
:101C500069F190E0880F991FFC01EC5FFE4FA591A0
:101C6000B491FC01E25FFE4FC591D491662351F41B
:101C70002FB7F8948C91932F909589238C9388811A
:101C800089230BC0623061F42FB7F8948C91932FA5
:101C9000909589238C938881832B88832FBF06C0DE
:101CA0009FB7F8948C91832B8C939FBFDF91CF913A
:101CB0000895482F50E0CA01865B9E4FFC01249195
:101CC000CA018A5C9E4FFC0194914E5D5E4FFA0101
:101CD0003491332309F440C0222351F1233071F0B1
:101CE000243028F42130A1F0223011F514C0263020
:101CF000B1F02730C1F02430D9F404C080918000C5
:101D00008F7703C0809180008F7D8093800010C00A
:101D100084B58F7702C084B58F7D84BD09C0809162
:101D2000B0008F7703C08091B0008F7D8093B000AA
:101D3000E32FF0E0EE0FFF1FE25FFE4FA591B4919D
:101D40002FB7F894662321F48C919095892302C0D3
:101D50008C91892B8C932FBF0895629FD001739F24
:101D6000F001829FE00DF11D649FE00DF11D929F37
:101D7000F00D839FF00D749FF00D659FF00D992776
:101D8000729FB00DE11DF91F639FB00DE11DF91F9A
:101D9000BD01CF011124089597FB092E07260AD013
:101DA00077FD04D02ED006D000201AF470956195EE
:101DB0007F4F0895F6F7909581959F4F0895A1E282
:101DC0001A2EAA1BBB1BFD010DC0AA1FBB1FEE1FB5
:101DD000FF1FA217B307E407F50720F0A21BB30B00
:101DE000E40BF50B661F771F881F991F1A9469F77C
:101DF00060957095809590959B01AC01BD01CF01D8
:101E00000895AA1BBB1B51E107C0AA1FBB1FA61741
:101E1000B70710F0A61BB70B881F991F5A95A9F793
:101E200080959095BC01CD010895EE0FFF1F0590A0
:101E3000F491E02D099411E0C2E6D1E004C0FE0166
:101E40000E94170F2296C436D107C9F7F894FFCF26
:101E50003000456E766F796500003100526563751C
:101E6000702043617074657572204C756D69657280
:101E70006500526563757020426F75746F6E002146
:101E800020212021524553455421202120210000AA
:101E90008000BF02000000000000C0040104AB038A
:101EA00000000000CC02FA08B20291028F037E0308
:101EB00000000000E004150555055E057305840566
:00000001FF
