:100000000C94B2000C94DA000C94DA000C949B016E
:100010000C94C5010C94EF010C94DA000C94DA00F6
:100020000C94DA000C94DA000C94DA000C94EA0BCD
:100030000C94DA000C94DA000C94DA000C94DA00D8
:100040000C94E1100C94DA000C94DA000C94DA00B1
:100050000C94DA000C94DA000C94DA000C94DA00B8
:100060000C944B060C94DA0000C201000100110050
:1000700011000C0000E100000A002500250021000D
:10008000009600001900390039003600127A00008D
:100090001F004600460044008070000022004D0012
:1000A0004D004A00004B00003600750075007200DC
:1000B000403800004A009C009C0099008025000008
:1000C0007200EC00EC00E900C0120000E900DA0167
:1000D000DA01D70160090000D701B603B603B30304
:1000E000B0040000B3036E076E076B0758020000F0
:1000F0006E07DC0EDC0ED80E2C010000DC0EC11DDC
:10010000C11DBE1D00000000240027002A000000C1
:100110000000250028002B0000000000230026001E
:10012000290004040404040404040202020202027A
:1001300003030303030301020408102040800102AB
:10014000040810200102040810200000000700022B
:100150000100000304060000000000000000E407A6
:100160008B0D840D11241FBECFEFD8E0DEBFCDBFB5
:1001700012E0A0E0B1E0E2EEF6E202C005900D92DE
:10018000AE34B107D9F713E0AEE4B2E001C01D927E
:10019000AF39B107E1F711E0C2E6D1E004C0229720
:1001A000FE010E946013CE35D107C9F70E94CD1021
:1001B0000C9464130C940000FB01DC0102C001905C
:1001C0000D9241505040D8F70895FB01DC01019099
:1001D0000D920020E1F70895FC0182810E947C12BB
:1001E00020E0019709F421E0822F0895FC0182812B
:1001F00060E00E9428120895FC01828161E00E9463
:1002000028120895FC0182810E94C71120E08D5BB5
:1002100092400CF021E0822F0895FC0182819381AD
:100220000895EF92FF920F931F938C018AE090E064
:100230000E94DE10F82EE92E0E94C50CF801F28211
:10024000E38286E090E00E94DE10F82EE92E0E9404
:100250009408F801F082E1821F910F91FF90EF90D6
:1002600008950F931F93CF93DF93FC01738D7695C1
:100270007170A685B7859585772329F08C918923A0
:1002800009F454C004C08C91892309F04FC08389BC
:10029000948920E001972FEF8F3F9207D9F7C58906
:1002A000D689A685B785158560E031E040E050E04D
:1002B00000E0CE01202F01972FEF8F3F9207D9F753
:1002C0008C91812311F0632B03C0832F80956823C9
:1002D000330F4F5F5F4F4830510559F78789908D35
:1002E00020E001972FEF8F3F9207D9F771116095AA
:1002F000809190022091910290E001968F7390700E
:1003000030E08217930779F0E0919002F0E0E05B33
:10031000FD4F60838091900290E001968F73907002
:100320008093900203C0838D8160838FDF91CF9192
:100330001F910F9108951F920F920FB60F921124E3
:100340002F933F934F935F936F937F938F939F93DD
:10035000AF93BF93EF93FF9380914E0290914F0222
:10036000009711F00E943101FF91EF91BF91AF9181
:100370009F918F917F916F915F914F913F912F91BD
:100380000F900FBE0F901F9018951F920F920FB6EF
:100390000F9211242F933F934F935F936F937F930B
:1003A0008F939F93AF93BF93EF93FF9380914E02F0
:1003B00090914F02009711F00E943101FF91EF914F
:1003C000BF91AF919F918F917F916F915F914F916D
:1003D0003F912F910F900FBE0F901F9018951F9275
:1003E0000F920FB60F9211242F933F934F935F9369
:1003F0006F937F938F939F93AF93BF93EF93FF93ED
:1004000080914E0290914F02009711F00E943101AD
:10041000FF91EF91BF91AF919F918F917F916F91DC
:100420005F914F913F912F910F900FBE0F901F90B2
:100430001895CF92DF92EF92FF920F931F93CF9375
:10044000DF93EC017A018B011A8E198E188E1F8AA8
:100450001E8A1D8A1C8A1B8A20E030E06901CC0CB0
:10046000DD1CC20ED31EB601660F771F660F771F05
:10047000AB0148595F4FFA0185919591A591B491CF
:100480008E159F05A007B107E9F4FB01E459FF4F62
:10049000859194919C8B8B8BFB01E259FF4F859149
:1004A00094919E8B8D8BFB01E059FF4F8591949128
:1004B000988F8F8BFB01EE58FF4F859194919A8F07
:1004C000898F06C02F5F3F4F2D30310509F0C6CF11
:1004D0008F89988D892B09F449C04C85463108F0E5
:1004E0003DC090916800483010F484E005C04E3063
:1004F00010F082E001C081E0892B809368004830D1
:1005000028F4EDE6F0E0ADE6B0E00BC04E3028F0A8
:10051000ECE6F0E0ACE6B0E004C0EBE6F0E0ABE621
:10052000B0E05081483040F481E090E002C0880F94
:10053000991F4A95E2F710C0242F30E04E3018F48E
:100540002850304002C02E50304081E090E002C080
:10055000880F991F2A95E2F7852B8C93898D9A8DA8
:1005600020E001972FEF8F3F9207D9F780914E023D
:1005700090914F028C179D0781F08B8D8E7F8B8F12
:100580009FB7F8941092900280919002809391020C
:10059000D0934F02C0934E029FBFDF91CF911F9126
:1005A0000F91FF90EF90DF90CF90089520914E0231
:1005B00030914F022817390731F4909191028091C0
:1005C0009002981719F42FEF3FEF0FC0E0919102BE
:1005D000F0E0E05BFD4F20818091910290E0019678
:1005E0008F7390708093910230E0C901089520913B
:1005F0004E0230914F022817390719F020E030E001
:100600000EC0809190022091910290E0805C9F4FFB
:10061000821B910960E470E00E94FA129C01C901FA
:1006200008950F931F93DC0159968D919C915A97D1
:10063000892B49F481E090E013969C938E93129756
:1006400020E030E097C00FB7F8945B968C915B97F1
:100650005196ED91FC91529750962C91509781FFB5
:100660008DC08081822B808359968D919C915A9761
:10067000059620E001972FEF8F3F9207D9F75B9601
:100680008C915B9781FF35C031E040E050E070E035
:1006900010E0832F90E0862397235196ED91FC91F3
:1006A000529750962C915097892B29F08081209554
:1006B0002823208303C08081822B808359968D91CB
:1006C0009C915A97212F01972FEF8F3F9207D9F7CF
:1006D000330F4F5F5F4F48305105D9F65196ED917A
:1006E000FC915297908150968C91509780958923D8
:1006F00033C031E040E050E070E010E0832F90E044
:10070000862397235196ED91FC91529750962C9108
:100710005097892B21F08081822B808304C08081B7
:1007200020952823208359968D919C915A97212FAB
:1007300001972FEF8F3F9207D9F7330F4F5F5F4F2E
:1007400048305105D9F65196ED91FC915297808130
:1007500050969C915097892B80830FBF59968D910D
:100760009C915A9720E001972FEF8F3F9207D9F77E
:1007700021E030E0C9011F910F91089580812095FB
:100780002823208371CF20914E0230914F022817E9
:10079000390749F49FB7F894109290028091900223
:1007A000809391029FBF089520914E0230914F0295
:1007B0002817390731F4909191028091900298178F
:1007C00019F42FEF3FEF0AC0E0919102F0E0E05BF7
:1007D000FD4F8081282F332727FD3095C9010895CB
:1007E0001F93CF93DF93EC01162F862F60E00E94BA
:1007F000E9118B8D81FD04C0812F61E00E942812D8
:100800001C87212F30E0C9018A5C9E4FFC01849136
:100810008D872E5D3E4FF9016491E62FF0E0EE0FDB
:10082000FF1FE85EFE4F859194919F878E87DF9131
:10083000CF911F9108951F93CF93DF93EC01162F53
:10084000862F61E00E94E91160E08B8D81FF61E0FD
:10085000812F0E942812212F30E0C9018A5C9E4F0F
:10086000FC018491888B2E5D3E4FF9016491E62F47
:10087000F0E0EE0FFF1FE25FFE4F859194919A8B9F
:10088000898BDF91CF911F910895FF920F931F9352
:100890008C01F62EFC011382128288EE93E0A0E018
:1008A000B0E084839583A683B78384E092E091834C
:1008B0008083148A138A168A158A108E178A128EDC
:1008C000118E838D2170220F8C7F822B838FC80124
:1008D000642F0E941B04C8016F2D0E94F0031F911A
:1008E0000F91FF900895EF92FF920F931F938C0149
:1008F0008CE190E00E94DE10F82EE92E60E041E0ED
:1009000020E00E944504F801F086E1868F2D9E2D9F
:1009100040E855E260E070E00E9419021F910F91DB
:10092000FF90EF900895FC01138212828EE292E014
:10093000918380830895DF93CF930F92CDB7DEB775
:10094000FC0169838091D7028823C9F08091D60287
:10095000803238F081E090E09383828320E030E0C1
:100960001AC08091D502E82FF0E0EB54FD4F998139
:1009700090838F5F8093D5028093D6020AC08091C6
:100980000903843031F481E080932F0389818093BF
:10099000320321E030E0C9010F90CF91DF9108953B
:1009A000CF92DF92EF92FF920F931F93CF93DF933B
:1009B0006C018B017A018091D7028823A1F0C0E0FD
:1009C000D0E00DC0D601ED91FC91D801AC0FBD1F58
:1009D0000190F081E02DC6016C9109952196CE150C
:1009E000DF0580F313C0413288F48091090384301D
:1009F00069F4E0922F03562FA2E3B3E0FB0102C09B
:100A000081918D938E2F851B8417D0F3C701DF91C1
:100A1000CF911F910F91FF90EF90DF90CF900895AD
:100A20002091B30230E08091B202281B3109C90144
:100A300008954091B2028091B302481718F02FEF49
:100A40003FEF0AC0E42FF0E0EE56FD4F8081282FE3
:100A500030E04F5F4093B202C9010895E091B202C5
:100A60008091B302E81718F0EFEFFFEF06C0F0E057
:100A7000EE56FD4F8081E82FF0E0CF0108950895F4
:100A80000F931F93582F122F413210F081E045C071
:100A9000809109038823E1F782E0809309030093A2
:100AA00007038FEF80930A031092E5024093E6025A
:100AB000A7EEB2E0FB0102C081918D938E2F861BC1
:100AC0008417D0F31092E4028091E402550F852B35
:100AD0008093E40280910803813041F4109208036E
:100AE0008091E4028093BB0085EC01C085EE809389
:100AF000BC001123A9F080910903823089F4FBCF57
:100B000080910A03803211F482E007C080910A03C9
:100B1000803311F084E001C083E01F910F910895AC
:100B200080910A038F3F61F780E0F7CF0F93062F84
:100B30008091B40265EB72E04091D60221E00E9400
:100B400040051092D5021092D6021092D7020F9152
:100B5000089561E00E9496050895FF920F931F93F8
:100B6000F42E81E08093D70282E68093B402109243
:100B7000D5021092D60208ED12E0C8010E949B0433
:100B8000C8016F2D0E949B04C8010E94A9051F91F6
:100B90000F91FF900895EF92FF920F931F938C0196
:100BA000362FF42EE22E64E0432F0E94AD05C801DB
:100BB00063E04F2D0E94AD05C80162E04E2D0E94FA
:100BC000AD051F910F91FF90EF900895EF92FF9266
:100BD0000F931F93CF93DF937C0181E08093D70223
:100BE0008EE38093B4021092D5021092D602C0E038
:100BF000D0E0062F10E009C0F701EC0FFD1F88EDD3
:100C000092E060810E949B042196C017D107A4F353
:100C100088ED92E00E94A905DF91CF911F910F917D
:100C2000FF90EF900895DF93CF9300D0CDB7DEB75C
:100C300080E489836A83CE01019662E00E94E60522
:100C400081E090E00F900F90CF91DF910895DF93B6
:100C5000CF9300D0CDB7DEB780E889836A83CE0119
:100C6000019662E00E94E6050F900F90CF91DF9110
:100C70000895FC016581862F846085836C60CF01B7
:100C80000E9427060895FC0165816B7F658368607B
:100C90000E94270608951F920F920FB60F921124FB
:100CA0002F933F934F935F936F937F938F939F9374
:100CB000AF93BF93EF93FF938091B90090E0887F4B
:100CC00090708036910509F4F2C081369105CCF51B
:100CD0008832910509F47BC089329105B4F48031E2
:100CE000910509F46FC0813191053CF4009709F436
:100CF00047C1089709F04FC165C08831910509F4D3
:100D000066C0809709F047C182C08034910509F41C
:100D1000A4C08134910544F48033910509F482C064
:100D2000C89709F038C189C08035910509F489C098
:100D30008835910509F496C08834910509F02BC1D6
:100D4000AEC08839910509F413C189399105ECF4D5
:100D50008837910509F4ABC0893791054CF4883682
:100D6000910509F4A4C08037910509F014C19FC012
:100D70008838910509F4FCC08039910509F49DC0BB
:100D80008038910509F007C198C0803B910509F4AE
:100D9000C6C0813B91054CF4803A910509F49FC08F
:100DA000883A910509F0F7C0BAC0803C910509F472
:100DB000E3C0883C910509F4DFC0883B910509F048
:100DC000EAC0C2C08091E4028093BB00CFC0909182
:100DD000E5028091E602981768F49091E502E92F08
:100DE000F0E0E951FD4F80818093BB009F5F9093BD
:100DF000E502BCC080910703882309F44BC085ED50
:100E00008093BC008091BC0084FDFCCFC2C080E216
:100E100080930A0385ED8093BC008091BC0084FD23
:100E2000FCCFB7C080E380930A0385ED8093BC00BC
:100E30008091BC0084FDFCCFACC088E380930A03A2
:100E40009BC08091E5029091BB00E82FF0E0E95152
:100E5000FD4F90838F5F8093E5029091E502809132
:100E6000E60282C08091E5029091BB00E82FF0E09D
:100E7000E951FD4F90838F5F8093E50280910703D6
:100E8000882341F085ED8093BC008091BC0084FDF7
:100E9000FCCF7FC081E08093080384EA6EC085EDBB
:100EA0008093BC008091BC0084FDFCCF72C083E0C5
:100EB0008093090310920B0359C080910B03803279
:100EC00008F056C080910B039091BB00E82FF0E032
:100ED000E45FFC4F90838F5F80930B0347C080914A
:100EE0000B03803230F4E0910B03F0E0E45FFC4F41
:100EF000108285ED8093BC008091BC0084FDFCCF06
:100F00001092090360910B03E0912C03F0912D03E3
:100F10008CE093E070E0099510920B032DC084E003
:100F20008093090310922E0310922F03E091300357
:100F3000F0913103099580912F03882329F481E0F2
:100F400080932F031092320390912E03E92FF0E04B
:100F5000EE5CFC4F80818093BB009F5F90932E03DB
:100F600090912E0380912F03981710F485EC01C007
:100F700085E88093BC000FC085EC8093BC0009C05D
:100F800010920A0385ED8093BC008091BC0084FD23
:100F9000FCCF10920903FF91EF91BF91AF919F9108
:100FA0008F917F916F915F914F913F912F910F9012
:100FB0000FBE0F901F90189504960E943906089551
:100FC00004960E94430608951092DB021092DA0202
:100FD00088EE93E0A0E0B0E08093DC029093DD0225
:100FE000A093DE02B093DF028EE192E09093D902EB
:100FF0008093D80208951092090381E0809307033B
:101000001092080382E161E00E94281283E161E00E
:101010000E942812E9EBF0E080818E7F808380813E
:101020008D7F808388E48093B80085E48093BC0042
:1010300008951092B2021092B3021092D50210924B
:10104000D6020E94FB07089561E00E94270680ED0A
:1010500097E00E94821108950F931F93CF93DF931F
:10106000EC01142F022F88ED92E00E941908123033
:1010700018F08C8188608C8318871986002329F0EA
:10108000113019F48C8184608C8380E593EC0E948C
:1010900082116C816062CE010E94270684E991E191
:1010A0000E9482116C816062CE010E94270686E94F
:1010B00090E00E9482116C816062CE010E9427063E
:1010C0006C816062CE010E94270684E08D83CE0190
:1010D0000E943906CE010E94240882E08E83CE0150
:1010E00066E00E942706CE0160E040E00E94AD0568
:1010F000CE0161E040E00E94AD05CE0168E04AEA21
:101100000E94AD05CE016FEF4FEF2FEF0E94CB0590
:10111000DF91CF911F910F910895049660E040E018
:1011200020E00E942C0808950F931F938C0184E007
:1011300090E00E94DE10FC012AE432E0318320833B
:10114000D8018D939C9320914A0230914B0262E02A
:1011500070E0F901099584E090E00E94DE10FC0146
:101160002AEE31E031832083D80113969C938E932D
:1011700012972091EA013091EB0166E070E0F901ED
:10118000099584E090E00E94DE10FC012CEF31E034
:1011900031832083D80115969C938E9314972091C8
:1011A000FC013091FD0160E070E0F90109951F91AB
:1011B0000F910895FC01828160E00E942812089539
:1011C000FC01828161E00E9428120895FC01809157
:1011D00052038C3090F480838F5F80935203815050
:1011E00090E0FC01EE0FFF1FE80FF91FED5AFC4FD6
:1011F00088EB9BE09283818308958FEF808308952D
:10120000DC018C9190E0FC01EE0FFF1FE80FF91F4D
:10121000ED5AFC4F80818F7B80838C916CE00E9423
:10122000EE1290E0AC01440F551F480F591F440FB8
:10123000551F440F551F20E030E0C901840F951F52
:10124000FC01EE0FFF1FE80FF91FED5AFC4F8081E4
:1012500086FD05C02F5F3F4F2C30310571F7089593
:10126000FC0120812C30B8F58181992787FD90956C
:1012700048E850E0481B590B440F551F440F551FB9
:101280006417750784F08281992787FD909548E55A
:1012900052E0481B590B440F551F440F551F64174C
:1012A00075070CF4AB0142505040CA01AA2797FDC4
:1012B000A095BA2F880F991FAA1FBB1F4FB7F8948C
:1012C00030E0F901EE0FFF1FE20FF31FED5AFC4F64
:1012D000928381834FBF0895FC0172876187548791
:1012E00043870895AF92BF92CF92DF92EF92FF9221
:1012F0000F931F93CF93DF93EC019B0182E0603249
:1013000078070CF048C077FF03C020E030E005C04C
:10131000653B710514F024EB30E000D000D0B9013A
:10132000882777FD8095982F2981332727FD3095D1
:10133000E8E8AE2EB12CA21AB30AAA0CBB1CAA0C68
:10134000BB1CCC24B7FCC094DC2CEA81FF27E7FD52
:10135000F09528E532E02E1B3F0B220F331F220FA2
:10136000331F442737FD4095542FEDB7FEB7218337
:1013700032834383548320E030E040E050E004EBCC
:10138000E02EF12C012D112D0E94E50D9B010F90F7
:101390000F900F900F90CE01B9010E943009DF919C
:1013A000CF911F910F91FF90EF90DF90CF90BF9062
:1013B000AF900895CF92DF92EF92FF920F931F9319
:1013C000CF93DF938C01FC01848195810297D9F042
:1013D000A6E0EA2EF12CE00EF11ECBE4D0E0F2E024
:1013E000CF2ED12CC701BE010E9472096AE070E0C5
:1013F00080E090E00E942911F801D582C4822196F4
:10140000C53AD10579F7DF91CF911F910F91FF90E8
:10141000EF90DF90CF900895CF92DF92EF92FF92FE
:101420000F931F93CF93DF938C01FC0184819581EF
:101430000197D9F086E0E82EF12CE00EF11EC5EA06
:10144000D0E0B1E0CB2ED12CC701BE010E947209C1
:101450006AE070E080E090E00E942911F801D582F6
:10146000C4822197CB34D10579F7DF91CF911F91B9
:101470000F91FF90EF90DF90CF900895CF92DF9281
:10148000EF92FF921F93CF93DF93EC01162F7A0117
:10149000690188818C3008F064C0862F61E00E9469
:1014A000E911888190E0FC01EE0FFF1FE80FF91FA2
:1014B000ED5AFC4F1F738081807C812B808380E2FA
:1014C00092E08E199F0964E070E00E94FA1269832D
:1014D00080E699E08C199D0964E070E00E94FA12A0
:1014E0006A83A8818A2F6CE00E94EE12682F70E058
:1014F000AB01440F551F460F571F440F551F440F94
:10150000551F20E030E0C901840F951FFC01EE0F4C
:10151000FF1FE80FF91FED5AFC4F808186FD15C0B3
:101520002F5F3F4F2C30310571F724C0109280009F
:1015300082E0809381001092850010928400B19A1D
:1015400080916F00826080936F008A2F90E0FC0191
:10155000EE0FFF1FE80FF91FED5AFC4F80818064EA
:1015600080838881DF91CF911F91FF90EF90DF9072
:10157000CF900895672BD1F2E8CF40E252E020E609
:1015800039E00E943E0A0895EF92FF920F931F9355
:10159000CF93DF938C01FC0184819581029709F43C
:1015A00075C036E0E32EF12CE00EF11EC70168E0B5
:1015B00070E00E94BD0AC0E0D0E0CE0164E170E0BE
:1015C0000E94FA12892BA9F4F801A385B485ED9144
:1015D000FC9111970280F381E02DCD010995F8016E
:1015E000A185B285ED91FC9111970280F381E02DE8
:1015F0001BC0CE016AE070E00E94FA12892BB1F4A0
:10160000F801A385B485ED91FC9111970480F581D3
:10161000E02DCD010995F801A185B285ED91FC91F0
:1016200011970480F581E02DCD010995C55BDF4F51
:10163000C701BE010E94720962E370E080E090E0A1
:101640000E942911CA54D040CA35D10509F0B5CF3E
:10165000C7010E940009F801A385B485ED91FC91B2
:1016600011970480F581E02DCD010995F801A18540
:10167000B285ED91FC9111970480F581E02DCD01AB
:10168000099582E090E0F80195838483DF91CF9102
:101690001F910F91FF90EF900895EF92FF920F939B
:1016A0001F93CF93DF938C01FC0184819581019777
:1016B00009F473C046E0E42EF12CE00EF11EC701E0
:1016C00068E070E00E94BD0ACAE5D0E0CE0164E1A6
:1016D00070E00E94FA12892BA9F4F801A385B48561
:1016E000ED91FC9111970280F381E02DCD010995D8
:1016F000F801A185B285ED91FC9111970280F381EB
:10170000E02D1BC0CE016AE070E00E94FA12892B26
:10171000B1F4F801A385B485ED91FC911197048093
:10172000F581E02DCD010995F801A185B285ED91F6
:10173000FC9111970480F581E02DCD010995C55BE1
:10174000DF4FC701BE010E94720962E370E080E0D2
:1017500090E00E942911CC54D04009F0B7CFC701C6
:101760000E940009F801A385B485ED91FC911197C1
:101770000480F581E02DCD010995F801A185B285A0
:10178000ED91FC9111970480F581E02DCD01099533
:1017900081E090E0F80195838483DF91CF911F91E0
:1017A0000F91FF90EF9008950F931F938C01069671
:1017B0000E94BD0AD801ED91FC910280F381E02DD9
:1017C000C801099581E090E0F801958384831F9119
:1017D0000F9108951F920F920FB60F9211242F931D
:1017E0003F934F935F936F937F938F939F93AF93A9
:1017F000BF93EF93FF938091770387FF05C010920B
:101800008500109284002BC020917703332727FD99
:1018100030958091520390E02817390704F58091A4
:101820007703992787FD9095FC01EE0FFF1FE80FC6
:10183000F91FED5AFC4F808186FF11C0809177031C
:10184000992787FD9095FC01EE0FFF1FE80FF91F08
:10185000ED5AFC4F80818F7360E00E9428128091C6
:1018600077038F5F8093770320917703332727FDDA
:1018700030958091520390E0281739070CF04EC044
:10188000809177038C300CF049C020918400309116
:10189000850080917703992787FD9095FC01EE0FD5
:1018A000FF1FE80FF91FED5AFC4F81819281280F2D
:1018B000391F3093890020938800809177039927FE
:1018C00087FD9095FC01EE0FFF1FE80FF91FED5A01
:1018D000FC4F808186FF2BC080917703992787FD7D
:1018E0009095FC01EE0FFF1FE80FF91FED5AFC4F1A
:1018F00080818F7361E00E94281219C080E49CE906
:1019000005C0809184009091850004969093890091
:10191000809388008FEF8093770309C080918400C3
:1019200090918500049680549C4940F3EACFFF9142
:10193000EF91BF91AF919F918F917F916F915F9147
:101940004F913F912F910F900FBE0F901F901895C0
:10195000FC01862F6283738360E00E94E911089581
:10196000FC01862F6283738360E00E94E911089571
:101970000895FC01808191810E94C40A0895FC01B0
:10198000808191810E944D0B0895CF92DF92EF925A
:10199000FF920F931F937C0184E090E00E94DE1081
:1019A000FC0106E312E011830083D70113969C9398
:1019B0008E931297C0903602D090370263E070E0A9
:1019C000F601099584E090E00E94DE10FC0111838D
:1019D0000083D70115969C938E93149767E070E06F
:1019E000F60109958DE090E00E94DE108C0180E404
:1019F00092E0F80191838083C80106960E94E60870
:101A0000D7010D931C93D801ED91FC910190F081C9
:101A1000E02DC80168E070E00995F70160857185E7
:101A200042815381808191810E946C098EE090E017
:101A30000E94DE108C0184E192E0D8018D939C938A
:101A4000C80104960E949304F70117830683D80106
:101A5000ED91FC910190F081E02DC80160E070E013
:101A60000995F701A681B781ED91FC91119702804C
:101A7000F381E02DCD01099584E090E00E94DE1015
:101A8000FC0122EF31E031832083D70119969C932A
:101A90008E9318972091F2013091F30164E070E089
:101AA000F90109951F910F91FF90EF90DF90CF9072
:101AB000089581309105B1F46F5F7F4F21F58EE776
:101AC00093E060E071E00E94970E86E893E061E0A9
:101AD00071E00E94970E8CE893E060E071E00E9454
:101AE000970E0895892B79F46F5F7F4F61F48CE82E
:101AF00093E00E94B00E86E893E00E94B00E8EE75D
:101B000093E00E94B00E089580E090E06FEF7FEFC9
:101B10000E94590D089581E090E06FEF7FEF0E94E1
:101B2000590D08950F931F9308E713E0C8010E9411
:101B30000D010E94BF0C68EE73E080E090E00E940F
:101B40002911C8010E940D010E94B90C68EE73E0D2
:101B500080E090E00E9429111F910F9108950E944A
:101B6000920D08958CE793E00E94730488E793E058
:101B70000E9411010895CF92DF92EF92FF920F938E
:101B80001F93CF93DF937C016B018A01C0E0D0E00B
:101B90000FC0D6016D916D01D701ED91FC910190BF
:101BA000F081E02DC7010995C80FD91F01501040E1
:101BB0000115110571F7CE01DF91CF911F910F91A2
:101BC000FF90EF90DF90CF9008952F923F924F9229
:101BD0005F926F927F928F929F92AF92BF92CF92BD
:101BE000DF92EF92FF920F931F93DF93CF93CDB7C6
:101BF000DEB73B014C0119012A016D897E898F896D
:101C0000988D6A197B098C099D09621A730A840AE6
:101C1000950AA40193010E94CF12E218F308040967
:101C20001509A80197010E942F132A0D3B1D4C1D79
:101C30005D1DB901CA01CF91DF911F910F91FF90F6
:101C4000EF90DF90CF90BF90AF909F908F907F905C
:101C50006F905F904F903F902F9008950F931F9338
:101C6000CF93DF93EC018B016F5F7F4F8881998168
:101C70000E94EB0F009711F480E005C099838883E0
:101C80001B830A8381E0DF91CF911F910F9108950B
:101C9000CF93DF93EC0188819981892B29F08A8188
:101CA0009B818617970760F4CE010E942E0E882331
:101CB00041F08C819D81892B19F4E881F981108292
:101CC00081E0DF91CF910895CF93DF93EC0188817C
:101CD0009981009711F00E94530F198218821D827A
:101CE0001C821B821A82DF91CF910895EF92FF929E
:101CF0000F931F93CF93DF93EC017B018A01BA010D
:101D00000E94480E882321F4CE010E94640E07C071
:101D10001D830C8388819981B7010E94E500CE0163
:101D2000DF91CF911F910F91FF90EF900895CF9386
:101D3000DF93EC01198218821B821A821D821C8299
:101D40006115710551F0DB010D900020E9F7119745
:101D5000A61BB70BAD010E94760EDF91CF910895BF
:101D6000FC01808191810E94530F08950F931F936E
:101D7000CF93DF93BC018230910510F462E070E0F4
:101D8000E0919D03F0919E0340E050E0A0E0B0E0C0
:101D900024C08081918186179707D0F08617970716
:101DA00071F482819381109729F013969C938E93FE
:101DB00012972CC090939E0380939D0327C04115DA
:101DC000510519F08417950718F48D01AC01EF0146
:101DD000DF01828193819C01F9013097D1F6411591
:101DE0005105F9F0CA01861B970B8430910580F4E8
:101DF0008A819B810115110521F0F801938382836B
:101E000004C090939E0380939D03FE01329645C0CB
:101E1000FE01E80FF91F61937193029799838883FC
:101E20003CC080919B0390919C03892B41F480914D
:101E3000E1019091E20190939C0380939B03409178
:101E4000E3015091E4014115510541F44DB75EB7EE
:101E50008091DF019091E001481B590B20919B0379
:101E600030919C0324173507B0F4CA01821B930BF1
:101E70008617970780F0AB014E5F5F4F8417950779
:101E800050F0420F531F50939C0340939B03F90162
:101E90006193719302C0E0E0F0E0CF01DF91CF9158
:101EA0001F910F910895CF93DF939C01009709F440
:101EB0008FC0EC0122971B821A8260919D03709162
:101EC0009E036115710581F488819981820F931FAA
:101ED00020919B0330919C032817390739F5D09343
:101EE0009C03C0939B0374C0DB0140E050E0AC173F
:101EF000BD0708F1BB83AA83FE0121913191E20F56
:101F0000F31FAE17BF0779F48D919C911197280F9D
:101F1000391F2E5F3F4F3983288312968D919C91F4
:101F200013979B838A834115510571F4D0939E03C7
:101F3000C0939D034DC012968D919C911397AD0156
:101F4000009711F0DC01D3CFDA011396DC93CE9326
:101F50001297FA0121913191E20FF31FCE17DF079B
:101F600069F488819981280F391F2E5F3F4FFA014C
:101F7000318320838A819B8193838283E0E0F0E038
:101F8000DB0112968D919C911397009719F0BC017B
:101F9000FD01F6CFAB014E5F5F4FDB018D919C9150
:101FA000840F951F20919B0330919C0328173907BC
:101FB00079F4309729F410929E0310929D0302C089
:101FC000138212824250504050939C0340939B03D3
:101FD000DF91CF9108956F927F928F929F92AF92EF
:101FE000BF92CF92DF92EF92FF920F931F93CF9306
:101FF000DF938C01009729F4CB010E94B60E8C016F
:10200000BBC08EEFE82E8FEFF82EE00EF11E4801D8
:10201000860E971E8E149F0408F4ACC0D7014D9114
:102020005C91119746175707B8F04530510508F4F1
:10203000A3C0CA0104978617970708F49DC04250B1
:102040005040461B570BF401419351936D937C9381
:10205000CF010E94530F90C05B01A41AB50A38014A
:10206000640E751EA0919D03B0919E03E0E0F0E028
:10207000CC24DD2447C0A615B705A9F5CD91DC9188
:102080001197CE0102968A159B0568F1CE018A1937
:102090009B09029612962C91129713963C910597E4
:1020A00058F0F40122833383CA19DB09D183C0833A
:1020B000D7016D937C9309C04E5F5F4F4C0F5D1F3E
:1020C000F70151834083C901FC01C114D10431F0EF
:1020D000D6011396FC93EE9312974EC0F0939E0395
:1020E000E0939D0349C08D919C911197E817F907E2
:1020F00008F4FC016D0112968C91129713969C9135
:102100009C01D901109709F0B6CF80919B03909163
:102110009C0386159705E9F4E617F707D0F420919C
:10212000E3013091E4012115310541F42DB73EB7AB
:102130008091DF019091E001281B390B82169306F4
:10214000C8F490929C0380929B03F7017183608393
:1021500013C0CB010E94B60EEC01009759F0D701D5
:102160004D915C91B8010E94DC00C8010E94530FA0
:102170008E0102C000E010E0C801DF91CF911F91F5
:102180000F91FF90EF90DF90CF90BF90AF909F9016
:102190008F907F906F9008950895CF93DF930E9462
:1021A0008C110E94CC100E94B20DC0E0D0E00E94C1
:1021B000AF0D2097E1F30E940000F9CF0E94B60E08
:1021C00008951F920F920FB60F9211242F933F93F1
:1021D0008F939F93AF93BF938091960390919703B2
:1021E000A0919803B091990330919A030196A11D93
:1021F000B11D232F2D5F2D3720F02D570196A11DE6
:10220000B11D20939A038093960390939703A09314
:102210009803B09399038091920390919303A091B6
:102220009403B09195030196A11DB11D8093920373
:1022300090939303A0939403B0939503BF91AF91B0
:102240009F918F913F912F910F900FBE0F901F90F4
:1022500018959B01AC017FB7F894809192039091FF
:102260009303A0919403B091950366B5A89B05C014
:102270006F3F19F00196A11DB11D7FBFBA2FA92F85
:10228000982F8827860F911DA11DB11D62E0880F30
:10229000991FAA1FBB1F6A95D1F7BC012DC0FFB7BC
:1022A000F8948091920390919303A0919403B0913C
:1022B0009503E6B5A89B05C0EF3F19F00196A11D57
:1022C000B11DFFBFBA2FA92F982F88278E0F911D00
:1022D000A11DB11DE2E0880F991FAA1FBB1FEA953F
:1022E000D1F7861B970B885E9340C8F2215030408F
:1022F0004040504068517C4F211531054105510542
:1023000071F60895019739F0880F991F880F991F6A
:1023100002970197F1F70895789484B5826084BD9F
:1023200084B5816084BD85B5826085BD85B58160D9
:1023300085BDEEE6F0E0808181608083E1E8F0E039
:102340001082808182608083808181608083E0E868
:10235000F0E0808181608083E1EBF0E08081846047
:102360008083E0EBF0E0808181608083EAE7F0E049
:1023700080818460808380818260808380818160AD
:1023800080838081806880831092C1000895982F97
:102390008E3008F09E5097708091E5018295880FED
:1023A000880F807C892B80937C0080917A008064E8
:1023B00080937A0080917A0086FDFCCF209178008E
:1023C00040917900942F80E030E0282B392BC9010F
:1023D0000895CF93DF93482F50E0CA018A5C9E4F47
:1023E000FC0134914E5D5E4FFA018491882369F1BE
:1023F00090E0880F991FFC01EC5FFE4FA591B4910E
:10240000FC01E25FFE4FC591D491662351F42FB7D2
:10241000F8948C91932F909589238C9388818923AC
:102420000BC0623061F42FB7F8948C91932F909584
:1024300089238C938881832B88832FBF06C09FB705
:10244000F8948C91832B8C939FBFDF91CF9108954B
:10245000482F50E0CA01865B9E4FFC012491CA01BF
:102460008A5C9E4FFC0194914E5D5E4FFA0134915F
:10247000332309F440C0222351F1233071F024307A
:1024800028F42130A1F0223011F514C02630B1F02B
:102490002730C1F02430D9F404C0809180008F77B8
:1024A00003C0809180008F7D8093800010C084B530
:1024B0008F7702C084B58F7D84BD09C08091B00044
:1024C0008F7703C08091B0008F7D8093B000E32FA1
:1024D000F0E0EE0FFF1FE25FFE4FA591B4912FB722
:1024E000F894662321F48C919095892302C08C91F5
:1024F000892B8C932FBF0895682F70E0CB01865BEA
:102500009E4FFC012491CB018A5C9E4FFC014491BB
:102510006E5D7E4FFB019491992319F420E030E029
:102520003CC0222351F1233071F0243028F42130B3
:10253000A1F0223011F514C02630B1F02730C1F0DF
:102540002430D9F404C0809180008F7703C080913B
:1025500080008F7D8093800010C084B58F7702C08B
:1025600084B58F7D84BD09C08091B0008F7703C092
:102570008091B0008F7D8093B000892F90E0880F0C
:10258000991F885E9E4FFC01A591B4918C9120E02B
:1025900030E0842311F021E030E0C9010895629F0A
:1025A000D001739FF001829FE00DF11D649FE00D4B
:1025B000F11D929FF00D839FF00D749FF00D659FAC
:1025C000F00D9927729FB00DE11DF91F639FB00DAB
:1025D000E11DF91FBD01CF0111240895991B79E078
:1025E00004C0991F961708F0961B881F7A95C9F7A3
:1025F0008095089597FB092E07260AD077FD04D011
:1026000049D006D000201AF4709561957F4F089547
:10261000F6F7909581959F4F0895A1E21A2EAA1B77
:10262000BB1BFD010DC0AA1FBB1FEE1FFF1FA21782
:10263000B307E407F50720F0A21BB30BE40BF50B7F
:10264000661F771F881F991F1A9469F76095709508
:10265000809590959B01AC01BD01CF01089597FB3A
:10266000092E05260ED057FD04D0D7DF0AD0001C56
:1026700038F450954095309521953F4F4F4F5F4F1F
:102680000895F6F790958095709561957F4F8F4FDF
:102690009F4F0895AA1BBB1B51E107C0AA1FBB1F78
:1026A000A617B70710F0A61BB70B881F991F5A95DE
:1026B000A9F780959095BC01CD010895EE0FFF1FFD
:1026C0000590F491E02D099411E0C2E6D1E004C038
:1026D000FE010E9460132296C436D107C9F7F89410
:0226E000FFCF2A
:1026E200003100416374697665204C656420506F47
:1026F200727461696C004465736163746976652004
:102702004C656420506F727461696C004163746936
:102712007665204D6F7465757200446573616374EC
:10272200697665204D6F74657572004163746976D0
:10273200652042757A7A65720044657361637469D3
:1027420076652042757A7A657200416374697665AE
:10275200204C656420466C61736800446573616354
:1027620074697665204C656420466C61736800521A
:10277200656375702043617074657572204C756D68
:102782006965726500526563757020426F75746F7A
:102792006E00212021202152455345542120212021
:1027A20021004D6F6465204175746F6D61746971AC
:1027B2007565004D6F6465204D616E75656C0080B6
:1027C200009F0300000100000000A80CEC000000C4
:1027D2000000B00CFC00F60000000000A80C020192
:1027E200000000001103BB0DF702D602D403C3039D
:1027F200000000008D08DC07E007000000009B04D9
:10280200D004100519052E053F050000000013062F
:10281200BB0D00000000B00CE008DA080000000068
:0E282200D40B0C0ADA0900000000A80CB80C58
:00000001FF
