:100000000C94B2000C94DA000C94DA000C949F016A
:100010000C94C9010C94F3010C94DA000C94DA00EE
:100020000C94DA000C94DA000C94DA000C94A50A13
:100030000C94DA000C94DA000C94DA000C94DA00D8
:100040000C948D0F0C94DA000C94DA000C94DA0006
:100050000C94DA000C94DA000C94DA000C94DA00B8
:100060000C944F060C94DA0000C20100010011004C
:1000700011000C0000E100000A002500250021000D
:10008000009600001900390039003600127A00008D
:100090001F004600460044008070000022004D0012
:1000A0004D004A00004B00003600750075007200DC
:1000B000403800004A009C009C0099008025000008
:1000C0007200EC00EC00E900C0120000E900DA0167
:1000D000DA01D70160090000D701B603B603B30304
:1000E000B0040000B3036E076E076B0758020000F0
:1000F0006E07DC0EDC0ED80E2C010000DC0EC11DDC
:10010000C11DBE1D00000000240027002A000000C1
:100110000000250028002B0000000000230026001E
:10012000290004040404040404040202020202027A
:1001300003030303030301020408102040800102AB
:10014000040810200102040810200000000700022B
:100150000100000304060000000000000000E807A2
:100160003E0C370C11241FBECFEFD8E0DEBFCDBF51
:1001700011E0A0E0B1E0EEE4F7E202C005900D92DC
:10018000A03CB107D9F713E0A0ECB1E001C01D928B
:10019000A131B107E1F711E0C2E6D1E004C0229736
:1001A000FE010E949613CE35D107C9F70E94790F40
:1001B0000C949A130C940000FB01DC0102C0019026
:1001C0000D9241505040D8F70895FB01DC01019099
:1001D0000D920020E1F70895FC0182810E94281110
:1001E00020E0019709F421E0822F0895FC0182812B
:1001F00060E00E94D4100895FC01828161E00E94B9
:10020000D4100895FC0182810E94731020E08D5B60
:1002100092400CF021E0822F0895FC0182819381AD
:100220000895FC01808191810895EF92FF920F93D0
:100230001F938C018AE090E00E948A0FF82EE92E2D
:100240000E947F0BF801F282E38286E090E00E9438
:100250008A0FF82EE92E0E949E08F801F082E182B2
:100260001F910F91FF90EF9008950F931F93CF93DD
:10027000DF93FC01738D76957170A685B7859585A2
:10028000772329F08C91892309F454C004C08C9100
:10029000892309F04FC08389948920E001972FEFCB
:1002A0008F3F9207D9F7C589D689A685B785158569
:1002B00060E031E040E050E000E0CE01202F019707
:1002C0002FEF8F3F9207D9F78C91812311F0632B89
:1002D00003C0832F80956823330F4F5F5F4F4830F3
:1002E000510559F78789908D20E001972FEF8F3FB7
:1002F0009207D9F771116095809102022091030253
:1003000090E001968F73907030E08217930779F038
:10031000E0910202F0E0EE53FE4F60838091020212
:1003200090E001968F7390708093020203C0838DDA
:100330008160838FDF91CF911F910F9108951F925C
:100340000F920FB60F9211242F933F934F935F9309
:100350006F937F938F939F93AF93BF93EF93FF938D
:100360008091C0019091C101009711F00E94350168
:10037000FF91EF91BF91AF919F918F917F916F917D
:100380005F914F913F912F910F900FBE0F901F9053
:1003900018951F920F920FB60F9211242F933F932F
:1003A0004F935F936F937F938F939F93AF93BF937D
:1003B000EF93FF938091C0019091C101009711F0DC
:1003C0000E943501FF91EF91BF91AF919F918F9165
:1003D0007F916F915F914F913F912F910F900FBE41
:1003E0000F901F9018951F920F920FB60F92112425
:1003F0002F933F934F935F936F937F938F939F932D
:10040000AF93BF93EF93FF938091C0019091C1018F
:10041000009711F00E943501FF91EF91BF91AF91CC
:100420009F918F917F916F915F914F913F912F910C
:100430000F900FBE0F901F901895CF92DF92EF9202
:10044000FF920F931F93CF93DF93EC017A018B01FF
:100450001A8E198E188E1F8A1E8A1D8A1C8A1B8A64
:1004600020E030E06901CC0CDD1CC20ED31EB601C9
:10047000660F771F660F771FAB0148595F4FFA0170
:1004800085919591A591B4918E159F05A007B1070F
:10049000E9F4FB01E459FF4F859194919C8B8B8B80
:1004A000FB01E259FF4F859194919E8B8D8BFB014F
:1004B000E059FF4F85919491988F8F8BFB01EE58F7
:1004C000FF4F859194919A8F898F06C02F5F3F4F80
:1004D0002D30310509F0C6CF8F89988D892B09F40D
:1004E00049C04C85463108F03DC0909168004830C5
:1004F00010F484E005C04E3010F082E001C081E0CD
:10050000892B80936800483028F4EDE6F0E0ADE6F2
:10051000B0E00BC04E3028F0ECE6F0E0ACE6B0E026
:1005200004C0EBE6F0E0ABE6B0E05081483040F4C8
:1005300081E090E002C0880F991F4A95E2F710C051
:10054000242F30E04E3018F42850304002C02E5096
:10055000304081E090E002C0880F991F2A95E2F7B1
:10056000852B8C93898D9A8D20E001972FEF8F3FFB
:100570009207D9F78091C0019091C1018C179D0716
:1005800081F08B8D8E7F8B8F9FB7F8941092020233
:100590008091020280930302D093C101C093C001F5
:1005A0009FBFDF91CF911F910F91FF90EF90DF9050
:1005B000CF9008952091C0013091C10128173907CB
:1005C00031F49091030280910202981719F42FEFF1
:1005D0003FEF0FC0E0910302F0E0EE53FE4F2081A9
:1005E0008091030290E001968F73907080930302D4
:1005F00030E0C90108952091C0013091C101281750
:10060000390719F020E030E00EC0809102022091FD
:10061000030290E0805C9F4F821B910960E470E0D0
:100620000E9430139C01C90108950F931F93DC01B0
:1006300059968D919C915A97892B49F481E090E0CD
:1006400013969C938E93129720E030E097C00FB7DB
:10065000F8945B968C915B975196ED91FC91529733
:1006600050962C91509781FF8DC08081822B808382
:1006700059968D919C915A97059620E001972FEFFE
:100680008F3F9207D9F75B968C915B9781FF35C0BE
:1006900031E040E050E070E010E0832F90E08623EE
:1006A00097235196ED91FC91529750962C9150972B
:1006B000892B29F0808120952823208303C0808105
:1006C000822B808359968D919C915A97212F019767
:1006D0002FEF8F3F9207D9F7330F4F5F5F4F4830AF
:1006E0005105D9F65196ED91FC9152979081509613
:1006F0008C9150978095892333C031E040E050E0E1
:1007000070E010E0832F90E0862397235196ED91BF
:10071000FC91529750962C915097892B21F0808113
:10072000822B808304C080812095282320835996C2
:100730008D919C915A97212F01972FEF8F3F920710
:10074000D9F7330F4F5F5F4F48305105D9F65196B7
:10075000ED91FC915297808150969C915097892BF6
:1007600080830FBF59968D919C915A9720E00197F5
:100770002FEF8F3F9207D9F721E030E0C9011F9199
:100780000F910895808120952823208371CF209197
:10079000C0013091C1012817390749F49FB7F89477
:1007A0001092020280910202809303029FBF08957B
:1007B0002091C0013091C1012817390731F490917F
:1007C000030280910202981719F42FEF3FEF0AC03D
:1007D000E0910302F0E0EE53FE4F8081282F332793
:1007E00027FD3095C90108951F93CF93DF93EC0146
:1007F000162F862F60E00E9495108B8D81FD04C01E
:10080000812F61E00E94D4101C87212F30E0C901A4
:100810008A5C9E4FFC0184918D872E5D3E4FF901CD
:100820006491E62FF0E0EE0FFF1FE85EFE4F85912A
:1008300094919F878E87DF91CF911F9108951F9389
:10084000CF93DF93EC01162F862F61E00E94951065
:1008500060E08B8D81FF61E0812F0E94D410212FF9
:1008600030E0C9018A5C9E4FFC018491888B2E5D2B
:100870003E4FF9016491E62FF0E0EE0FFF1FE25FBB
:10088000FE4F859194919A8B898BDF91CF911F9127
:100890000895FF920F931F938C01F62EFC01138293
:1008A000128288EE93E0A0E0B0E084839583A68373
:1008B000B78386E791E091838083148A138A168A2E
:1008C000158A108E178A128E118E838D2170220F39
:1008D0008C7F822B838FC801642F0E941F04C80164
:1008E0006F2D0E94F4031F910F91FF900895EF92D6
:1008F000FF920F931F938C018CE190E00E948A0F6E
:10090000F82EE92E60E041E020E00E944904F80161
:10091000F086E1868F2D9E2D40E855E260E070E084
:100920000E941D021F910F91FF90EF900895FC010E
:100930001382128280EA91E0918380830895DF938D
:10094000CF930F92CDB7DEB7FC0169838091490246
:100950008823C9F080914802803238F081E090E02D
:100960009383828320E030E01AC080914702E82F11
:10097000F0E0E95DFD4F998190838F5F809347029E
:10098000809348020AC080917B02843031F481E078
:100990008093A10289818093A40221E030E0C90103
:1009A0000F90CF91DF910895CF92DF92EF92FF9257
:1009B0000F931F93CF93DF936C018B017A0180918A
:1009C00049028823A1F0C0E0D0E00DC0D601ED912E
:1009D000FC91D801AC0FBD1F0190F081E02DC60144
:1009E0006C9109952196CE15DF0580F313C0413235
:1009F00088F480917B02843069F4E092A102562F42
:100A0000A4EAB2E0FB0102C081918D938E2F851B79
:100A10008417D0F3C701DF91CF911F910F91FF9001
:100A2000EF90DF90CF9008952091250230E08091E3
:100A30002402281B3109C9010895409124028091A4
:100A40002502481718F02FEF3FEF0AC0E42FF0E01F
:100A5000EC5FFD4F8081282F30E04F5F40932402F0
:100A6000C9010895E091240280912502E81718F049
:100A7000EFEFFFEF06C0F0E0EC5FFD4F8081E82F65
:100A8000F0E0CF01089508950F931F93582F122F70
:100A9000413210F081E045C080917B028823E1F76C
:100AA00082E080937B02009379028FEF80937C0237
:100AB0001092570240935802A9E5B2E0FB0102C030
:100AC00081918D938E2F861B8417D0F3109256023E
:100AD00080915602550F852B8093560280917A02A1
:100AE000813041F410927A02809156028093BB00CB
:100AF00085EC01C085EE8093BC001123A9F08091A4
:100B00007B02823089F4FBCF80917C02803211F429
:100B100082E007C080917C02803311F084E001C044
:100B200083E01F910F91089580917C028F3F61F7C0
:100B300080E0F7CF0F93062F8091260267E272E0E4
:100B40004091480221E00E94440510924702109211
:100B50004802109249020F91089561E00E949A059F
:100B60000895FF920F931F93F42E81E08093490222
:100B700082E68093260210924702109248020AE40D
:100B800012E0C8010E949F04C8016F2D0E949F04BB
:100B9000C8010E94AD051F910F91FF900895EF923B
:100BA000FF920F931F938C01362FF42EE22E64E0F8
:100BB000432F0E94B105C80163E04F2D0E94B1058B
:100BC000C80162E04E2D0E94B1051F910F91FF9068
:100BD000EF900895EF92FF920F931F93CF93DF93BF
:100BE0007C0181E0809349028EE38093260210927B
:100BF000470210924802C0E0D0E0062F10E009C082
:100C0000F701EC0FFD1F8AE492E060810E949F04CF
:100C10002196C017D107A4F38AE492E00E94AD05A3
:100C2000DF91CF911F910F91FF90EF900895DF9387
:100C3000CF9300D0CDB7DEB780E489836A83CE013D
:100C4000019662E00E94EA0581E090E00F900F902B
:100C5000CF91DF910895DF93CF9300D0CDB7DEB76A
:100C600080E889836A83CE01019662E00E94EA05EA
:100C70000F900F90CF91DF910895FC016581862F31
:100C8000846085836C60CF010E942B060895FC016F
:100C900065816B7F658368600E942B0608951F92B3
:100CA0000F920FB60F9211242F933F934F935F93A0
:100CB0006F937F938F939F93AF93BF93EF93FF9324
:100CC0008091B90090E0887F90708036910509F49A
:100CD000F2C081369105CCF58832910509F47BC0CC
:100CE00089329105B4F48031910509F46FC08131E6
:100CF00091053CF4009709F447C1089709F04FC1EA
:100D000065C08831910509F466C0809709F047C134
:100D100082C08034910509F4A4C08134910544F463
:100D20008033910509F482C0C89709F038C189C0A1
:100D30008035910509F489C08835910509F496C07C
:100D40008834910509F02BC1AEC08839910509F4AA
:100D500013C189399105ECF48837910509F4ABC0CA
:100D6000893791054CF48836910509F4A4C0803781
:100D7000910509F014C19FC08838910509F4FCC0A1
:100D80008039910509F49DC08038910509F007C1AB
:100D900098C0803B910509F4C6C0813B91054CF495
:100DA000803A910509F49FC0883A910509F0F7C08F
:100DB000BAC0803C910509F4E3C0883C910509F470
:100DC000DFC0883B910509F0EAC0C2C0809156029D
:100DD0008093BB00CFC09091570280915802981722
:100DE00068F490915702E92FF0E0E75AFD4F8081B7
:100DF0008093BB009F5F90935702BCC080917902A3
:100E0000882309F44BC085ED8093BC008091BC0021
:100E100084FDFCCFC2C080E280937C0285ED80938C
:100E2000BC008091BC0084FDFCCFB7C080E3809300
:100E30007C0285ED8093BC008091BC0084FDFCCFDA
:100E4000ACC088E380937C029BC080915702909154
:100E5000BB00E82FF0E0E75AFD4F90838F5F80934F
:100E60005702909157028091580282C08091570298
:100E70009091BB00E82FF0E0E75AFD4F90838F5F21
:100E80008093570280917902882341F085ED809309
:100E9000BC008091BC0084FDFCCF7FC081E08093CA
:100EA0007A0284EA6EC085ED8093BC008091BC001C
:100EB00084FDFCCF72C083E080937B0210927D02A0
:100EC00059C080917D02803208F056C080917D0229
:100ED0009091BB00E82FF0E0E258FD4F90838F5FC8
:100EE00080937D0247C080917D02803230F4E09192
:100EF0007D02F0E0E258FD4F108285ED8093BC004A
:100F00008091BC0084FDFCCF10927B0260917D0239
:100F1000E0919E02F0919F028EE792E070E00995C9
:100F200010927D022DC084E080937B021092A0027B
:100F30001092A102E091A202F091A3020995809182
:100F4000A102882329F481E08093A1021092A402D7
:100F50009091A002E92FF0E0EC55FD4F8081809345
:100F6000BB009F5F9093A0029091A0028091A1028C
:100F7000981710F485EC01C085E88093BC000FC081
:100F800085EC8093BC0009C010927C0285ED8093B3
:100F9000BC008091BC0084FDFCCF10927B02FF91CD
:100FA000EF91BF91AF919F918F917F916F915F91E1
:100FB0004F913F912F910F900FBE0F901F9018955A
:100FC00004960E943D06089504960E9447060895DF
:100FD00010924D0210924C0288EE93E0A0E0B0E037
:100FE00080934E0290934F02A0935002B09351020F
:100FF00080E991E090934B0280934A020895109209
:101000007B0281E08093790210927A0282E161E0B2
:101010000E94D41083E161E00E94D410E9EBF0E07B
:1010200080818E7F808380818D7F808388E4809320
:10103000B80085E48093BC000895109224021092B9
:10104000250210924702109248020E94FF0708955D
:1010500061E00E942B0680ED97E00E942E1008951B
:101060000F931F93CF93DF93EC01142F022F8AE489
:1010700092E00E941D08123018F08C8188608C83E9
:1010800018871986002329F0113019F48C818460A7
:101090008C8380E593EC0E942E106C816062CE01FF
:1010A0000E942B0684E991E10E942E106C816062FF
:1010B000CE010E942B0686E990E00E942E106C81E2
:1010C0006062CE010E942B066C816062CE010E949C
:1010D0002B0684E08D83CE010E943D06CE010E9446
:1010E000280882E08E83CE0166E00E942B06CE01A6
:1010F00060E040E00E94B105CE0161E040E00E9466
:10110000B105CE0168E04AEA0E94B105CE016FEF59
:101110004FEF2FEF0E94CF05DF91CF911F910F91DD
:101120000895049660E040E020E00E9430080895B1
:10113000FC01808191810E94740B08950F931F938D
:101140008C0184E090E00E948A0FFC012CEB31E0DE
:1011500031832083D8018D939C932091BC013091E1
:10116000BD0162E070E0F901099584E090E00E9421
:101170008A0FFC012CE531E031832083D8011396DE
:101180009C938E93129720915C0130915D0165E0F4
:1011900070E0F901099584E090E00E948A0FFC015B
:1011A0002EE631E031832083D80115969C938E93EF
:1011B000149720916E0130916F0160E070E0F901A9
:1011C00009951F910F910895FC01828160E00E94B2
:1011D000D4100895FC01828161E00E94D41008952A
:1011E000FC018091C4028C3090F480838F5F8093E7
:1011F000C402815090E0FC01EE0FFF1FE80FF91FC1
:10120000EB53FD4F88EB9BE09283818308958FEF32
:1012100080830895FC0120812C30B8F581819927C5
:1012200087FD909548E850E0481B590B440F551F27
:10123000440F551F6417750784F08281992787FD35
:10124000909548E552E0481B590B440F551F440F39
:10125000551F641775070CF4AB0142505040CA018A
:10126000AA2797FDA095BA2F880F991FAA1FBB1F09
:101270004FB7F89430E0F901EE0FFF1FE20FF31FB4
:10128000EB53FD4F928381834FBF0895AF92BF927E
:10129000CF92DF92EF92FF920F931F93CF93DF9342
:1012A000EC019B0182E0603278070CF048C077FFC8
:1012B00003C020E030E005C0653B710514F024EB6D
:1012C00030E000D000D0B901882777FD8095982FB5
:1012D0002981332727FD3095E8E8AE2EB12CA21ADC
:1012E000B30AAA0CBB1CAA0CBB1CCC24B7FCC09430
:1012F000DC2CEA81FF27E7FDF09528E532E02E1B84
:101300003F0B220F331F220F331F442737FD409519
:10131000542FEDB7FEB7218332834383548320E0FB
:1013200030E040E050E004EBE02EF12C012D112DD7
:101330000E94910C9B010F900F900F900F90CE0187
:10134000B9010E940A09DF91CF911F910F91FF907F
:10135000EF90DF90CF90BF90AF9008950F931F93C1
:10136000CF93DF938C010C5F1F4FCAE5D0E0C8011B
:10137000BE010E9446096AE070E080E090E00E94B1
:10138000D50F2197A1F7DF91CF911F910F9108956C
:101390000F931F93CF93DF938C010C5F1F4FC0E01F
:1013A000D0E0C801BE010E9446096AE070E080E01A
:1013B00090E00E94D50F2196CA35D10591F7DF91B3
:1013C000CF911F910F9108950F931F938C01882740
:1013D00077FD8095982F0E9416122FE832EC45EB8E
:1013E00050E40E947B110E94E311882777FD8095CD
:1013F000982F0E94161220E030E040E05FE30E9448
:10140000A2120C5F1F4F0E94E3119B01AC01C801A7
:10141000B9010E9446091F910F910895CF92DF9262
:10142000EF92FF921F93CF93DF93EC01162F7A0177
:10143000690188818C3008F064C0862F61E00E94C9
:101440009510888190E0FC01EE0FFF1FE80FF91F57
:10145000EB53FD4F1F738081807C812B808380E262
:1014600092E08E199F0964E070E00E943013698356
:1014700080E699E08C199D0964E070E00E943013C9
:101480006A83A8818A2F6CE00E942413682F70E081
:10149000AB01440F551F460F571F440F551F440FF4
:1014A000551F20E030E0C901840F951FFC01EE0FAD
:1014B000FF1FE80FF91FEB53FD4F808186FD15C01C
:1014C0002F5F3F4F2C30310571F724C01092800000
:1014D00082E0809381001092850010928400B19A7E
:1014E00080916F00826080936F008A2F90E0FC01F2
:1014F000EE0FFF1FE80FF91FEB53FD4F8081806453
:1015000080838881DF91CF911F91FF90EF90DF90D2
:10151000CF900895672BD1F2E8CF40E252E020E669
:1015200039E00E940E0A08950F931F938C010496D0
:101530000E948D0AD801ED91FC910480F581E02D87
:10154000C80109951F910F9108951F920F920FB630
:101550000F9211242F933F934F935F936F937F9339
:101560008F939F93AF93BF93EF93FF938091E90283
:1015700087FF05C010928500109284002BC0209137
:10158000E902332727FD30958091C40290E02817A7
:10159000390704F58091E902992787FD9095FC01B0
:1015A000EE0FFF1FE80FF91FEB53FD4F808186FF01
:1015B00011C08091E902992787FD9095FC01EE0FFB
:1015C000FF1FE80FF91FEB53FD4F80818F7360E021
:1015D0000E94D4108091E9028F5F8093E9022091EC
:1015E000E902332727FD30958091C40290E0281747
:1015F00039070CF04EC08091E9028C300CF049C0E4
:1016000020918400309185008091E902992787FD1F
:101610009095FC01EE0FFF1FE80FF91FEB53FD4FF4
:1016200081819281280F391F30938900209388008F
:101630008091E902992787FD9095FC01EE0FFF1F2D
:10164000E80FF91FEB53FD4F808186FF2BC080917F
:10165000E902992787FD9095FC01EE0FFF1FE80F27
:10166000F91FEB53FD4F80818F7361E00E94D4100E
:1016700019C080E49CE905C08091840090918500A8
:10168000049690938900809388008FEF8093E902FD
:1016900009C08091840090918500049680549C49F3
:1016A00040F3EACFFF91EF91BF91AF919F918F915E
:1016B0007F916F915F914F913F912F910F900FBE4E
:1016C0000F901F901895FC01862F6283738360E052
:1016D0000E9495100895FC01862F6283738360E059
:1016E0000E94951008950895FC0182810E94731054
:1016F0000895FC01808191810E94E4090895CF92B0
:10170000DF92EF92FF920F931F937C0184E090E0B1
:101710000E948A0FFC0108EA11E011830083D701BF
:1017200013969C938E931297C090A801D090A90114
:1017300064E070E0F601099584E090E00E948A0F71
:10174000FC0111830083D70115969C938E93149707
:1017500067E070E0F601099587E090E00E948A0F4B
:101760008C0182EB91E0F80191838083C80104969B
:101770000E94F008D7010D931C93D801ED91FC91C4
:101780000190F081E02DC80168E070E009958EE0DD
:1017900090E00E948A0F8C0186E891E0F801918325
:1017A0008083C80104960E949704D70117961C9362
:1017B0000E931697D801ED91FC910190F081E02DE8
:1017C000C80160E070E00995F701A681B781ED914D
:1017D000FC9111970280F381E02DCD01099584E001
:1017E00090E00E948A0FFC0124E631E031832083DF
:1017F000D70119969C938E9318972091640130918C
:10180000650163E070E0F90109951F910F91FF9068
:10181000EF90DF90CF90089581309105B1F46F5F24
:101820007F4F21F580EF92E060E071E00E94430D70
:1018300088EF92E061E071E00E94430D8EEF92E04C
:1018400060E071E00E94430D0895892B79F46F5F89
:101850007F4F61F48EEF92E00E945C0D88EF92E082
:101860000E945C0D80EF92E00E945C0D089580E084
:1018700090E06FEF7FEF0E940C0C089581E090E004
:101880006FEF7FEF0E940C0C0895EF92FF920F9381
:101890001F938AEEE82E82E0F82EC7010E94110104
:1018A0000E9498088C01C7010E940D01B8010E9496
:1018B000790B1F910F91FF90EF9008958EEE92E0BB
:1018C0000E9477048AEE92E00E9415010895CF925B
:1018D000DF92EF92FF920F931F93CF93DF937C01E0
:1018E0006B018A01C0E0D0E00FC0D6016D916D019F
:1018F000D701ED91FC910190F081E02DC701099590
:10190000C80FD91F015010400115110571F7CE0104
:10191000DF91CF911F910F91FF90EF90DF90CF90CB
:1019200008952F923F924F925F926F927F928F9283
:101930009F92AF92BF92CF92DF92EF92FF920F935E
:101940001F93DF93CF93CDB7DEB73B014C01190155
:101950002A016D897E898F89988D6A197B098C0986
:101960009D09621A730A840A950AA40193010E94D0
:101970000513E218F30804091509A80197010E944C
:1019800065132A0D3B1D4C1D5D1DB901CA01CF9188
:10199000DF911F910F91FF90EF90DF90CF90BF905C
:1019A000AF909F908F907F906F905F904F903F90FF
:1019B0002F9008950F931F93CF93DF93EC018B012A
:1019C0006F5F7F4F888199810E94970E009711F475
:1019D00080E005C0998388831B830A8381E0DF91BF
:1019E000CF911F910F910895CF93DF93EC018881E0
:1019F0009981892B29F08A819B818617970760F44A
:101A0000CE010E94DA0C882341F08C819D81892BC4
:101A100019F4E881F981108281E0DF91CF91089576
:101A2000CF93DF93EC0188819981009711F00E9498
:101A3000FF0D198218821D821C821B821A82DF917F
:101A4000CF910895EF92FF920F931F93CF93DF935F
:101A5000EC017B018A01BA010E94F40C882321F475
:101A6000CE010E94100D07C01D830C8388819981CF
:101A7000B7010E94E500CE01DF91CF911F910F9138
:101A8000FF90EF900895CF93DF93EC0119821882B5
:101A90001B821A821D821C826115710551F0DB01C7
:101AA0000D900020E9F71197A61BB70BAD010E941E
:101AB000220DDF91CF910895FC01808191810E94D8
:101AC000FF0D08950F931F93CF93DF93BC018230D6
:101AD000910510F462E070E0E0910F03F0911003C3
:101AE00040E050E0A0E0B0E024C080819181861702
:101AF0009707D0F08617970771F48281938110972A
:101B000029F013969C938E9312972CC090931003F8
:101B100080930F0327C04115510519F084179507CD
:101B200018F48D01AC01EF01DF01828193819C01EA
:101B3000F9013097D1F641155105F9F0CA01861B1C
:101B4000970B8430910580F48A819B8101151105E2
:101B500021F0F8019383828304C090931003809353
:101B60000F03FE01329645C0FE01E80FF91F619395
:101B700071930297998388833CC080910D03909163
:101B80000E03892B41F4809153019091540190935D
:101B90000E0380930D03409155015091560141155C
:101BA000510541F44DB75EB78091510190915201BA
:101BB000481B590B20910D0330910E032417350754
:101BC000B0F4CA01821B930B8617970780F0AB0114
:101BD0004E5F5F4F8417950750F0420F531F50938D
:101BE0000E0340930D03F9016193719302C0E0E08D
:101BF000F0E0CF01DF91CF911F910F910895CF9326
:101C0000DF939C01009709F48FC0EC0122971B829F
:101C10001A8260910F03709110036115710581F4B0
:101C200088819981820F931F20910D0330910E03BB
:101C30002817390739F5D0930E03C0930D0374C0EC
:101C4000DB0140E050E0AC17BD0708F1BB83AA837D
:101C5000FE0121913191E20FF31FAE17BF0779F416
:101C60008D919C911197280F391F2E5F3F4F39831B
:101C7000288312968D919C9113979B838A8341159B
:101C8000510571F4D0931003C0930F034DC0129609
:101C90008D919C911397AD01009711F0DC01D3CF8A
:101CA000DA011396DC93CE931297FA0121913191C8
:101CB000E20FF31FCE17DF0769F488819981280F9F
:101CC000391F2E5F3F4FFA01318320838A819B8128
:101CD00093838283E0E0F0E0DB0112968D919C918A
:101CE0001397009719F0BC01FD01F6CFAB014E5FD1
:101CF0005F4FDB018D919C91840F951F20910D0307
:101D000030910E032817390779F4309729F410928F
:101D1000100310920F0302C01382128242505040EF
:101D200050930E0340930D03DF91CF9108956F926E
:101D30007F928F929F92AF92BF92CF92DF92EF925B
:101D4000FF920F931F93CF93DF938C01009729F499
:101D5000CB010E94620D8C01BBC08EEFE82E8FEF8D
:101D6000F82EE00EF11E4801860E971E8E149F0479
:101D700008F4ACC0D7014D915C91119746175707F5
:101D8000B8F04530510508F4A3C0CA01049786177E
:101D9000970708F49DC042505040461B570BF40172
:101DA000419351936D937C93CF010E94FF0D90C09E
:101DB0005B01A41AB50A3801640E751EA0910F03C9
:101DC000B0911003E0E0F0E0CC24DD2447C0A6157C
:101DD000B705A9F5CD91DC911197CE0102968A1530
:101DE0009B0568F1CE018A199B09029612962C91E7
:101DF000129713963C91059758F0F4012283338390
:101E0000CA19DB09D183C083D7016D937C9309C0C4
:101E10004E5F5F4F4C0F5D1FF70151834083C90137
:101E2000FC01C114D10431F0D6011396FC93EE935A
:101E300012974EC0F0931003E0930F0349C08D91A9
:101E40009C911197E817F90708F4FC016D011296AF
:101E50008C91129713969C919C01D901109709F0CF
:101E6000B6CF80910D0390910E0386159705E9F486
:101E7000E617F707D0F4209155013091560121154E
:101E8000310541F42DB73EB7809151019091520137
:101E9000281B390B82169306C8F490920E03809289
:101EA0000D03F7017183608313C0CB010E94620DA3
:101EB000EC01009759F0D7014D915C91B8010E9457
:101EC000DC00C8010E94FF0D8E0102C000E010E09E
:101ED000C801DF91CF911F910F91FF90EF90DF909C
:101EE000CF90BF90AF909F908F907F906F9008950C
:101EF0000895CF93DF930E9438100E94780F0E94BC
:101F00005E0CC0E0D0E00E94450C2097E1F30E94F7
:101F10000000F9CF0E94620D08951F920F920FB634
:101F20000F9211242F933F938F939F93AF93BF935F
:101F30008091080390910903A0910A03B0910B03CB
:101F400030910C030196A11DB11D232F2D5F2D375C
:101F500020F02D570196A11DB11D20930C038093F5
:101F6000080390930903A0930A03B0930B03809195
:101F7000040390910503A0910603B0910703019615
:101F8000A11DB11D8093040390930503A093060344
:101F9000B0930703BF91AF919F918F913F912F9184
:101FA0000F900FBE0F901F9018959B01AC017FB74B
:101FB000F8948091040390910503A0910603B091D9
:101FC000070366B5A89B05C06F3F19F00196A11DD8
:101FD000B11D7FBFBA2FA92F982F8827860F911D7B
:101FE000A11DB11D62E0880F991FAA1FBB1F6A9532
:101FF000D1F7BC012DC0FFB7F894809104039091F4
:102000000503A0910603B0910703E6B5A89B05C0A0
:10201000EF3F19F00196A11DB11DFFBFBA2FA92FE7
:10202000982F88278E0F911DA11DB11DE2E0880F0A
:10203000991FAA1FBB1FEA95D1F7861B970B885ED5
:102040009340C8F2215030404040504068517C4F8E
:10205000211531054105510571F60895019739F0B3
:10206000880F991F880F991F02970197F1F708951C
:10207000789484B5826084BD84B5816084BD85B563
:10208000826085BD85B5816085BDEEE6F0E080812A
:1020900081608083E1E8F0E010828081826080834B
:1020A000808181608083E0E8F0E0808181608083CE
:1020B000E1EBF0E0808184608083E0EBF0E0808100
:1020C00081608083EAE7F0E08081846080838081A2
:1020D000826080838081816080838081806880834A
:1020E0001092C1000895982F8E3008F09E5097707E
:1020F000809157018295880F880F807C892B80936F
:102100007C0080917A00806480937A0080917A00CC
:1021100086FDFCCF2091780040917900942F80E0DB
:1021200030E0282B392BC9010895CF93DF93482F36
:1021300050E0CA018A5C9E4FFC0134914E5D5E4FB7
:10214000FA018491882369F190E0880F991FFC01BE
:10215000EC5FFE4FA591B491FC01E25FFE4FC5918B
:10216000D491662351F42FB7F8948C91932F9095C6
:1021700089238C93888189230BC0623061F42FB747
:10218000F8948C91932F909589238C938881832B3D
:1021900088832FBF06C09FB7F8948C91832B8C93B4
:1021A0009FBFDF91CF910895482F50E0CA01865B11
:1021B0009E4FFC012491CA018A5C9E4FFC019491C0
:1021C0004E5D5E4FFA013491332309F440C022235F
:1021D00051F1233071F0243028F42130A1F0223065
:1021E00011F514C02630B1F02730C1F02430D9F4F5
:1021F00004C0809180008F7703C0809180008F7D24
:102200008093800010C084B58F7702C084B58F7D25
:1022100084BD09C08091B0008F7703C08091B00069
:102220008F7D8093B000E32FF0E0EE0FFF1FE25FA1
:10223000FE4FA591B4912FB7F894662321F48C91A9
:102240009095892302C08C91892B8C932FBF089580
:10225000682F70E0CB01865B9E4FFC012491CB017F
:102260008A5C9E4FFC0144916E5D7E4FFB01949110
:10227000992319F420E030E03CC0222351F12330AF
:1022800071F0243028F42130A1F0223011F514C06F
:102290002630B1F02730C1F02430D9F404C0809149
:1022A00080008F7703C0809180008F7D80938000B5
:1022B00010C084B58F7702C084B58F7D84BD09C0FE
:1022C0008091B0008F7703C08091B0008F7D8093A4
:1022D000B000892F90E0880F991F885E9E4FFC0107
:1022E000A591B4918C9120E030E0842311F021E09D
:1022F00030E0C90108950CD0EBC0E3D040F0DAD053
:1023000030F021F45F3F19F0CCC0511115C1CFC09E
:10231000F0D098F39923C9F35523B1F3951B550BCE
:10232000BB27AA2762177307840738F09F5F5F4FA8
:10233000220F331F441FAA1FA9F333D00E2E3AF0E9
:10234000E0E830D091505040E695001CCAF729D003
:10235000FE2F27D0660F771F881FBB1F2617370752
:102360004807AB07B0E809F0BB0B802DBF01FF2782
:1023700093585F4F2AF09E3F510568F092C0DCC031
:102380005F3FECF3983EDCF3869577956795B795BC
:10239000F7959F5FC9F7880F911D9695879597F9D7
:1023A0000895E1E0660F771F881FBB1F6217730750
:1023B0008407BA0720F0621B730B840BBA0BEE1F65
:1023C00088F7E095089504D06894B111B5C00895D8
:1023D00098D088F09F5790F0B92F9927B751A0F067
:1023E000D1F0660F771F881F991F1AF0BA95C9F7A9
:1023F00012C0B13081F09FD0B1E008959CC0672F2A
:10240000782F8827B85F39F0B93FCCF38695779558
:102410006795B395D9F73EF4909580957095619541
:102420007F4F8F4F9F4F0895E89409C097FB3EF46C
:1024300090958095709561957F4F8F4F9F4F992311
:10244000A9F0F92F96E9BB279395F695879577958F
:102450006795B795F111F8CFFAF4BB0F11F460FF4F
:102460001BC06F5F7F4F8F4F9F4F16C0882311F0A7
:1024700096E911C0772321F09EE8872F762F05C0BB
:10248000662371F096E8862F70E060E02AF09A9556
:10249000660F771F881FDAF7880F9695879597F94B
:1024A000089597F99F6780E870E060E008959FEFD6
:1024B00080EC089500240A941616170618060906DB
:1024C000089500240A9412161306140605060895AA
:1024D000092E0394000C11F4882352F0BB0F40F432
:1024E000BF2B11F460FF04C06F5F7F4F8F4F9F4F72
:1024F000089557FD9058440F551F59F05F3F71F0F4
:102500004795880F97FB991F61F09F3F79F087955A
:102510000895121613061406551FF2CF4695F1DFE3
:1025200008C0161617061806991FF1CF8695710573
:10253000610508940895E894BB2766277727CB01A7
:1025400097F908950BD0C4CFB5DF28F0BADF18F0A3
:10255000952309F0A6CFABCF1124EECFCADFA0F3AD
:10256000959FD1F3950F50E0551F629FF001729F28
:10257000BB27F00DB11D639FAA27F00DB11DAA1F47
:10258000649F6627B00DA11D661F829F2227B00D94
:10259000A11D621F739FB00DA11D621F839FA00D1F
:1025A000611D221F749F3327A00D611D231F849F6F
:1025B000600D211D822F762F6A2F11249F575040C6
:1025C0008AF0E1F088234AF0EE0FFF1FBB1F661F61
:1025D000771F881F91505040A9F79E3F510570F01A
:1025E00060CFAACF5F3FECF3983EDCF386957795FA
:1025F0006795B795F795E7959F5FC1F7FE2B880F15
:10260000911D9695879597F90895629FD001739FC4
:10261000F001829FE00DF11D649FE00DF11D929F7E
:10262000F00D839FF00D749FF00D659FF00D9927BD
:10263000729FB00DE11DF91F639FB00DE11DF91FE1
:10264000BD01CF0111240895991B79E004C0991FA1
:10265000961708F0961B881F7A95C9F780950895FC
:1026600097FB092E07260AD077FD04D049D006D063
:1026700000201AF4709561957F4F0895F6F79095B4
:1026800081959F4F0895A1E21A2EAA1BBB1BFD0145
:102690000DC0AA1FBB1FEE1FFF1FA217B307E40741
:1026A000F50720F0A21BB30BE40BF50B661F771F99
:1026B000881F991F1A9469F7609570958095909579
:1026C0009B01AC01BD01CF01089597FB092E0526A2
:1026D0000ED057FD04D0D7DF0AD0001C38F4509537
:1026E0004095309521953F4F4F4F5F4F0895F6F736
:1026F00090958095709561957F4F8F4F9F4F08956E
:10270000AA1BBB1B51E107C0AA1FBB1FA617B70717
:1027100010F0A61BB70B881F991F5A95A9F7809533
:102720009095BC01CD010895EE0FFF1F0590F49127
:10273000E02D099411E0C2E6D1E004C0FE010E9440
:0E27400096132296C436D107C9F7F894FFCF3E
:10274E0000310021202120215245534554212021C2
:10275E002021004D6F6465204175746F6D61746941
:10276E00717565004D6F6465204D616E75656C0009
:10277E00494C204641555420414354495645522018
:10278E004C45204D4F4445204D414E55454C202142
:10279E00008000110300000100000000630BEC003C
:1027AE00000000006B0BFC00F60000000000630B45
:1027BE000201000000001503670CFB02DA02D803C9
:1027CE00C703000000009108E007E40700000000C6
:1027DE009F04D40414051D053205430500000000B6
:1027EE001706670C000000006B0BEA08E4080000F7
:1027FE000000940AC809AE0900000000630B730BB9
:00000001FF
