:100000000C94B2000C94DA000C94DA000C94DB012E
:100010000C9405020C942F020C94DA000C94DA0074
:100020000C94DA000C94DA000C94DA000C94550C61
:100030000C94DA000C94DA000C94DA000C94DA00D8
:100040000C94CB150C94DA000C94DA000C94DA00C2
:100050000C94DA000C94DA000C94DA000C94DA00B8
:100060000C941D070C94DA0000C20100010011007D
:1000700011000C0000E100000A002500250021000D
:10008000009600001900390039003600127A00008D
:100090001F004600460044008070000022004D0012
:1000A0004D004A00004B00003600750075007200DC
:1000B000403800004A009C009C0099008025000008
:1000C0007200EC00EC00E900C0120000E900DA0167
:1000D000DA01D70160090000D701B603B603B30304
:1000E000B0040000B3036E076E076B0758020000F0
:1000F0006E07DC0EDC0ED80E2C010000DC0EC11DDC
:10010000C11DBE1D00000000240027002A000000C1
:100110000000250028002B0000000000230026001E
:10012000290004040404040404040202020202027A
:1001300003030303030301020408102040800102AB
:10014000040810200102040810200000000700022B
:100150000100000304060000000000000000B608D3
:10016000780E710E11241FBECFEFD8E0DEBFCDBFD9
:1001700012E0A0E0B1E0E2EDF0E302C005900D92E4
:10018000A835B107D9F713E0A8E5B2E001C01D9288
:10019000AE3AB107E1F711E0C2E6D1E004C0229720
:1001A000FE010E945818CE35D107C9F70E94B71535
:1001B0000C945C180C9400001F93FC01992788276D
:1001C000BC01E89411911032E9F3193010F01E309F
:1001D000C8F31B3251F01D3249F4689406C00E94E6
:1001E0001301610F711D811D911D119110531A3062
:1001F000B0F33EF490958095709561957F4F8F4F49
:100200009F4F1F910895FB01DC0102C001900D92E8
:1002100041505040D8F70895FB01DC0101900D9248
:100220000020E1F70895592F482F372F262F660F0A
:10023000771F881F991F660F771F881F991F620FEE
:10024000731F841F951F660F771F881F991F0895BE
:10025000FC0182810E94741720E0019709F421E0DB
:10026000822F0895FC01828160E00E94201708958A
:10027000FC01828161E00E9420170895FC018281C7
:100280000E94BF1620E08D5B92400CF021E0822F8F
:100290000895FC01828193810895FC018081918100
:1002A0000895EF92FF920F931F938C018AE090E0E4
:1002B0000E94C815F82EE92E0E94B20DF801F282B4
:1002C000E38286E090E00E94C815F82EE92E0E9495
:1002D0009809F801F082E1821F910F91FF90EF9051
:1002E00008950F931F93CF93DF93FC01738D769541
:1002F0007170A685B7859585772329F08C91892320
:1003000009F454C004C08C91892309F04FC083893B
:10031000948920E001972FEF8F3F9207D9F7C58985
:10032000D689A685B785158560E031E040E050E0CC
:1003300000E0CE01202F01972FEF8F3F9207D9F7D2
:100340008C91812311F0632B03C0832F8095682348
:10035000330F4F5F5F4F4830510559F78789908DB4
:1003600020E001972FEF8F3F9207D9F77111609529
:1003700080919A0220919B0290E001968F73907079
:1003800030E08217930779F0E0919A02F0E0E65AA4
:10039000FD4F608380919A0290E001968F73907078
:1003A00080939A0203C0838D8160838FDF91CF9108
:1003B0001F910F9108951F920F920FB60F92112463
:1003C0002F933F934F935F936F937F938F939F935D
:1003D000AF93BF93EF93FF9380915802909159028E
:1003E000009711F00E947101FF91EF91BF91AF91C1
:1003F0009F918F917F916F915F914F913F912F913D
:100400000F900FBE0F901F9018951F920F920FB66E
:100410000F9211242F933F934F935F936F937F938A
:100420008F939F93AF93BF93EF93FF938091580265
:1004300090915902009711F00E947101FF91EF9184
:10044000BF91AF919F918F917F916F915F914F91EC
:100450003F912F910F900FBE0F901F9018951F92F4
:100460000F920FB60F9211242F933F934F935F93E8
:100470006F937F938F939F93AF93BF93EF93FF936C
:100480008091580290915902009711F00E947101D9
:10049000FF91EF91BF91AF919F918F917F916F915C
:1004A0005F914F913F912F910F900FBE0F901F9032
:1004B0001895CF92DF92EF92FF920F931F93CF93F5
:1004C000DF93EC017A018B011A8E198E188E1F8A28
:1004D0001E8A1D8A1C8A1B8A20E030E06901CC0C30
:1004E000DD1CC20ED31EB601660F771F660F771F85
:1004F000AB0148595F4FFA0185919591A591B4914F
:100500008E159F05A007B107E9F4FB01E459FF4FE1
:10051000859194919C8B8B8BFB01E259FF4F8591C8
:1005200094919E8B8D8BFB01E059FF4F85919491A7
:10053000988F8F8BFB01EE58FF4F859194919A8F86
:10054000898F06C02F5F3F4F2D30310509F0C6CF90
:100550008F89988D892B09F449C04C85463108F064
:100560003DC090916800483010F484E005C04E30E2
:1005700010F082E001C081E0892B80936800483050
:1005800028F4EDE6F0E0ADE6B0E00BC04E3028F028
:10059000ECE6F0E0ACE6B0E004C0EBE6F0E0ABE6A1
:1005A000B0E05081483040F481E090E002C0880F14
:1005B000991F4A95E2F710C0242F30E04E3018F40E
:1005C0002850304002C02E50304081E090E002C000
:1005D000880F991F2A95E2F7852B8C93898D9A8D28
:1005E00020E001972FEF8F3F9207D9F780915802B3
:1005F000909159028C179D0781F08B8D8E7F8B8F88
:100600009FB7F89410929A0280919A0280939B026D
:10061000D0935902C09358029FBFDF91CF911F9191
:100620000F91FF90EF90DF90CF90089520915802A6
:10063000309159022817390731F490919B0280912B
:100640009A02981719F42FEF3FEF0FC0E0919B0229
:10065000F0E0E65AFD4F208180919B0290E00196E8
:100660008F73907080939B0230E0C90108952091B0
:100670005802309159022817390719F020E030E06C
:100680000EC080919A0220919B0290E0805C9F4F67
:10069000821B910960E470E00E94F2179C01C9017D
:1006A00008950F931F93DC0159968D919C915A9751
:1006B000892B49F481E090E013969C938E931297D6
:1006C00020E030E097C00FB7F8945B968C915B9771
:1006D0005196ED91FC91529750962C91509781FF35
:1006E0008DC08081822B808359968D919C915A97E1
:1006F000059620E001972FEF8F3F9207D9F75B9681
:100700008C915B9781FF35C031E040E050E070E0B4
:1007100010E0832F90E0862397235196ED91FC9172
:10072000529750962C915097892B29F080812095D3
:100730002823208303C08081822B808359968D914A
:100740009C915A97212F01972FEF8F3F9207D9F74E
:10075000330F4F5F5F4F48305105D9F65196ED91F9
:10076000FC915297908150968C9150978095892357
:1007700033C031E040E050E070E010E0832F90E0C3
:10078000862397235196ED91FC91529750962C9188
:100790005097892B21F08081822B808304C0808137
:1007A00020952823208359968D919C915A97212F2B
:1007B00001972FEF8F3F9207D9F7330F4F5F5F4FAE
:1007C00048305105D9F65196ED91FC9152978081B0
:1007D00050969C915097892B80830FBF59968D918D
:1007E0009C915A9720E001972FEF8F3F9207D9F7FE
:1007F00021E030E0C9011F910F910895808120957B
:100800002823208371CF2091580230915902281754
:10081000390749F49FB7F89410929A0280919A028E
:1008200080939B029FBF08952091580230915902F6
:100830002817390731F490919B0280919A029817FA
:1008400019F42FEF3FEF0AC0E0919B02F0E0E65A67
:10085000FD4F8081282F332727FD3095C90108954A
:10086000AF92BF92CF92DF92EF92FF920F931F93BE
:10087000DF93CF9300D000D000D0CDB7DEB75C01BE
:100880007B01DB011896ED91FC911997A081B18154
:1008900014962D913C911597CF01F901099522E00D
:1008A000C22ED12CCE0CDF1C892B89F0F70160857C
:1008B00071858E010F5F1F4FC8010E942712C6016C
:1008C000B8010E947913C8010E949A1305C0C6019D
:1008D00060E071E00E94601382E090E0E80EF91E93
:1008E000C501B7010E949013C50126960FB6F89472
:1008F000DEBF0FBECDBFCF91DF911F910F91FF9053
:10090000EF90DF90CF90BF90AF900895AF92BF92DD
:10091000CF92DF92EF92FF920F931F93DF93CF93CB
:1009200000D000D000D0CDB7DEB76C015B01FC0178
:10093000E080F1808E010F5F1F4FC80162E071E01F
:100940000E944713C701B8010E94FE08C8010E9417
:100950009A13F60180859185B5014AE050E00E9426
:10096000E81126960FB6F894DEBF0FBECDBFCF912B
:10097000DF911F910F91FF90EF90DF90CF90BF908C
:10098000AF9008951F93CF93DF93EC01162F862F1E
:1009900060E00E94E1168B8D81FD04C0812F61E033
:1009A0000E9420171C87212F30E0C9018A5C9E4FCE
:1009B000FC0184918D872E5D3E4FF9016491E62FF5
:1009C000F0E0EE0FFF1FE85EFE4F859194919F8748
:1009D0008E87DF91CF911F9108951F93CF93DF935F
:1009E000EC01162F862F61E00E94E11660E08B8DEE
:1009F00081FF61E0812F0E942017212F30E0C90183
:100A00008A5C9E4FFC018491888B2E5D3E4FF901DC
:100A10006491E62FF0E0EE0FFF1FE25FFE4F85913D
:100A200094919A8B898BDF91CF911F910895FF92BA
:100A30000F931F938C01F62EFC011382128288EE15
:100A400093E0A0E0B0E084839583A683B7838EE033
:100A500092E091838083148A138A168A158A108EF5
:100A6000178A128E118E838D2170220F8C7F822B1C
:100A7000838FC801642F0E94ED04C8016F2D0E946E
:100A8000C2041F910F91FF900895EF92FF920F9370
:100A90001F938C018CE190E00E94C815F82EE92E7E
:100AA00060E041E020E00E941705F801F086E18651
:100AB0008F2D9E2D40E855E260E070E00E945902C3
:100AC0001F910F91FF90EF900895FC011382128205
:100AD00088E392E0918380830895DF93CF930F9210
:100AE000CDB7DEB7FC0169838091E1028823C9F0AC
:100AF0008091E002803238F081E090E0938382833D
:100B000020E030E01AC08091DF02E82FF0E0E154ED
:100B1000FD4F998190838F5F8093DF028093E00285
:100B20000AC080911303843031F481E0809339034B
:100B3000898180933C0321E030E0C9010F90CF917F
:100B4000DF910895CF92DF92EF92FF920F931F9360
:100B5000CF93DF936C018B017A018091E1028823AE
:100B6000A1F0C0E0D0E00DC0D601ED91FC91D8011C
:100B7000AC0FBD1F0190F081E02DC6016C9109956D
:100B80002196CE15DF0580F313C0413288F48091A1
:100B90001303843069F4E0923903562FACE3B3E0D9
:100BA000FB0102C081918D938E2F851B8417D0F39A
:100BB000C701DF91CF911F910F91FF90EF90DF90D0
:100BC000CF9008952091BD0230E08091BC02281B97
:100BD0003109C90108954091BC028091BD024817B6
:100BE00018F02FEF3FEF0AC0E42FF0E0E456FD4F7E
:100BF0008081282F30E04F5F4093BC02C9010895E7
:100C0000E091BC028091BD02E81718F0EFEFFFEF12
:100C100006C0F0E0E456FD4F8081E82FF0E0CF0100
:100C2000089508950F931F93582F122F413210F0FB
:100C300081E045C0809113038823E1F782E080932F
:100C40001303009311038FEF809314031092EF02AC
:100C50004093F002A1EFB2E0FB0102C081918D93BD
:100C60008E2F861B8417D0F31092EE028091EE0235
:100C7000550F852B8093EE0280911203813041F451
:100C8000109212038091EE028093BB0085EC01C0AC
:100C900085EE8093BC001123A9F08091130382306C
:100CA00089F4FBCF80911403803211F482E007C0F5
:100CB00080911403803311F084E001C083E01F9120
:100CC0000F910895809114038F3F61F780E0F7CF73
:100CD0000F93062F8091BE026FEB72E04091E0020D
:100CE00021E00E9412061092DF021092E0021092A0
:100CF000E1020F91089561E00E9468060895FF9255
:100D00000F931F93F42E81E08093E10282E680939B
:100D1000BE021092DF021092E00202EE12E0C80161
:100D20000E946D05C8016F2D0E946D05C8010E94CB
:100D30007B061F910F91FF900895EF92FF920F9302
:100D40001F938C01362FF42EE22E64E0432F0E9475
:100D50007F06C80163E04F2D0E947F06C80162E054
:100D60004E2D0E947F061F910F91FF90EF900895E6
:100D7000EF92FF920F931F93CF93DF937C0181E05B
:100D80008093E1028EE38093BE021092DF02109204
:100D9000E002C0E0D0E0062F10E009C0F701EC0F40
:100DA000FD1F82EE92E060810E946D052196C017C2
:100DB000D107A4F382EE92E00E947B06DF91CF91EF
:100DC0001F910F91FF90EF900895DF93CF9300D084
:100DD000CDB7DEB780E489836A83CE01019662E0F5
:100DE0000E94B80681E090E00F900F90CF91DF91C4
:100DF0000895DF93CF9300D0CDB7DEB780E8898325
:100E00006A83CE01019662E00E94B8060F900F90AF
:100E1000CF91DF910895FC016581862F84608583E1
:100E20006C60CF010E94F9060895FC0165816B7F1B
:100E3000658368600E94F90608951F920F920FB6AD
:100E40000F9211242F933F934F935F936F937F9350
:100E50008F939F93AF93BF93EF93FF938091B900CC
:100E600090E0887F90708036910509F4F2C0813659
:100E70009105CCF58832910509F47BC08932910542
:100E8000B4F48031910509F46FC0813191053CF4CF
:100E9000009709F447C1089709F04FC165C0883130
:100EA000910509F466C0809709F047C182C080347B
:100EB000910509F4A4C08134910544F4803391056F
:100EC00009F482C0C89709F038C189C080359105FE
:100ED00009F489C08835910509F496C088349105D4
:100EE00009F02BC1AEC08839910509F413C18939C5
:100EF0009105ECF48837910509F4ABC08937910569
:100F00004CF48836910509F4A4C08037910509F0A6
:100F100014C19FC08838910509F4FCC0803991053F
:100F200009F49DC08038910509F007C198C0803B45
:100F3000910509F4C6C0813B91054CF4803A9105B6
:100F400009F49FC0883A910509F0F7C0BAC0803C07
:100F5000910509F4E3C0883C910509F4DFC0883BA2
:100F6000910509F0EAC0C2C08091EE028093BB00F7
:100F7000CFC09091EF028091F002981768F49091A1
:100F8000EF02E92FF0E0EF50FD4F80818093BB002E
:100F90009F5F9093EF02BCC080911103882309F4F6
:100FA0004BC085ED8093BC008091BC0084FDFCCFDC
:100FB000C2C080E28093140385ED8093BC008091D1
:100FC000BC0084FDFCCFB7C080E38093140385EDA3
:100FD0008093BC008091BC0084FDFCCFACC088E352
:100FE000809314039BC08091EF029091BB00E82F87
:100FF000F0E0EF50FD4F90838F5F8093EF02909170
:10100000EF028091F00282C08091EF029091BB00CC
:10101000E82FF0E0EF50FD4F90838F5F8093EF0259
:1010200080911103882341F085ED8093BC0080916D
:10103000BC0084FDFCCF7FC081E08093120384EA72
:101040006EC085ED8093BC008091BC0084FDFCCF18
:1010500072C083E0809313031092150359C08091EE
:101060001503803208F056C0809115039091BB00A3
:10107000E82FF0E0EA5EFC4F90838F5F80931503CA
:1010800047C080911503803230F4E0911503F0E001
:10109000EA5EFC4F108285ED8093BC008091BC001D
:1010A00084FDFCCF1092130360911503E091360389
:1010B000F091370386E193E070E0099510921503F3
:1010C0002DC084E0809313031092380310923903EB
:1010D000E0913A03F0913B0309958091390388230D
:1010E00029F481E08093390310923C0390913803F6
:1010F000E92FF0E0E45CFC4F80818093BB009F5FB0
:10110000909338039091380380913903981710F425
:1011100085EC01C085E88093BC000FC085EC80930E
:10112000BC0009C01092140385ED8093BC0080912F
:10113000BC0084FDFCCF10921303FF91EF91BF918F
:10114000AF919F918F917F916F915F914F913F915F
:101150002F910F900FBE0F901F90189504960E942C
:101160000B07089504960E94150708951092E50252
:101170001092E40288EE93E0A0E0B0E08093E602F3
:101180009093E702A093E802B093E90288E292E02C
:101190009093E3028093E20208951092130381E09A
:1011A000809311031092120382E161E00E942017E4
:1011B00083E161E00E942017E9EBF0E080818E7FFF
:1011C000808380818D7F808388E48093B80085E46C
:1011D0008093BC0008951092BC021092BD02109240
:1011E000DF021092E0020E94CD08089561E00E94A3
:1011F000F90680ED97E00E947A160895EF92FF922B
:101200000F931F937B018C010C5F1F4FC8010E943D
:10121000F608C801B7010E9416111F910F91FF90A7
:10122000EF9008950F931F93CF93DF93EC01142F4A
:10123000022F82EE92E00E94EB08123018F08C81AF
:1012400088608C8318871986002329F0113019F4DF
:101250008C8184608C8380E593EC0E947A166C818B
:101260006062CE010E94F90684E991E10E947A163B
:101270006C816062CE010E94F90686E990E00E94CE
:101280007A166C816062CE010E94F9066C81606200
:10129000CE010E94F90684E08D83CE010E940B07E7
:1012A000CE010E94F60882E08E83CE0166E00E94A5
:1012B000F906CE0160E040E00E947F06CE0161E0C9
:1012C00040E00E947F06CE0168E04AEA0E947F0665
:1012D000CE016FEF4FEF2FEF0E949D06DF91CF9170
:1012E0001F910F910895049660E040E020E00E9475
:1012F00012090895DC011296ED91FC911397A081DB
:10130000B18112962D913C911397CF01F901099566
:101310000895DC011496ED91FC911597A081B1819F
:1013200012962D913C911397CF01F90109950895DB
:101330000F931F938C0184E090E00E94C815FC017C
:1013400024E532E031832083D8018D939C93209152
:1013500054023091550262E070E0F901099584E091
:1013600090E00E94C815FC0124EF31E03183208316
:10137000D80113969C938E9312972091F40130918B
:10138000F50166E070E0F901099584E090E00E94C3
:10139000C815FC0126E032E031832083D801159680
:1013A0009C938E931497209106023091070260E07F
:1013B00070E0F90109951F910F910895FC01828158
:1013C00060E00E9420170895FC01828161E00E9484
:1013D00020170895FC0180915C038C3090F4808389
:1013E0008F5F80935C03815090E0FC01EE0FFF1F44
:1013F000E80FF91FE35AFC4F88EB9BE0928381834F
:1014000008958FEF80830895FC0120812C30B8F57A
:101410008181992787FD909548E850E0481B590B3A
:10142000440F551F440F551F6417750784F08281C0
:10143000992787FD909548E552E0481B590B440FCA
:10144000551F440F551F641775070CF4AB0142502C
:101450005040CA01AA2797FDA095BA2F880F991F5F
:10146000AA1FBB1F4FB7F89430E0F901EE0FFF1F22
:10147000E20FF31FE35AFC4F928381834FBF08951D
:10148000FC0170876783528741870895AF92BF92AE
:10149000CF92DF92EF92FF920F931F93CF93DF9340
:1014A000EC019B0182E0603278070CF048C077FFC6
:1014B00003C020E030E005C0653B710514F024EB6B
:1014C00030E000D000D0B901882777FD8095982FB3
:1014D0002981332727FD3095E8E8AE2EB12CA21ADA
:1014E000B30AAA0CBB1CAA0CBB1CCC24B7FCC0942E
:1014F000DC2CEA81FF27E7FDF09528E532E02E1B82
:101500003F0B220F331F220F331F442737FD409517
:10151000542FEDB7FEB7218332834383548320E0F9
:1015200030E040E050E004EBE02EF12C012D112DD5
:101530000E9444129B010F900F900F900F90CE01CC
:10154000B9010E94040ADF91CF911F910F91FF9082
:10155000EF90DF90CF90BF90AF9008950F931F93BF
:10156000CF93DF938C010C5F1F4FC0E0D0E0C80128
:10157000BE010E94460A6AE070E080E090E00E94AE
:1015800021162196CA35D10591F7DF91CF911F9190
:101590000F9108950F931F93CF93DF938C010C5FEE
:1015A0001F4FCAE5D0E0C801BE010E94460A6AE0AA
:1015B00070E080E090E00E9421162197A1F7DF9172
:1015C000CF911F910F910895EF92FF920F931F9368
:1015D000CF93DF93EC01F4E0EF2EF12CE80EF91E2F
:1015E00000E010E0C80164E170E00E94F217892B6E
:1015F00099F4A985BA85ED91FC9111970280F38148
:10160000E02DCD010995AF81B885ED91FC91119741
:101610000280F381E02D19C0C8016AE070E00E94E9
:10162000F217892BA1F4A985BA85ED91FC91119748
:101630000480F581E02DCD010995AF81B885ED914C
:10164000FC9111970480F581E02DCD010995C7012A
:10165000B8010E94460A62E370E080E090E00E94D8
:1016600021160F5F1F4F0A35110509F0BBCFA98561
:10167000BA85ED91FC9111970480F581E02DCD01A3
:101680000995AF81B885ED91FC9111970480F581A2
:10169000E02DCD010995DF91CF911F910F91FF9022
:1016A000EF900895EF92FF920F931F93CF93DF93E4
:1016B000EC01A4E0EA2EF12CE80EF91E0AE510E098
:1016C000C80164E170E00E94F217892B99F4A985A2
:1016D000BA85ED91FC9111970280F381E02DCD0147
:1016E0000995AF81B885ED91FC9111970280F38146
:1016F000E02D19C0C8016AE070E00E94F217892B42
:10170000A1F4A985BA85ED91FC9111970480F5812A
:10171000E02DCD010995AF81B885ED91FC91119730
:101720000480F581E02DCD010995C701B8010E9423
:10173000460A62E370E080E090E00E9421160150CA
:10174000104009F0BDCFA985BA85ED91FC911197A4
:101750000480F581E02DCD010995AF81B885ED912B
:10176000FC9111970480F581E02DCD010995DF9161
:10177000CF911F910F91FF90EF900895CF92DF923C
:10178000EF92FF921F93CF93DF93EC01162F7A0114
:10179000690188818C3008F064C0862F61E00E9466
:1017A000E116888190E0FC01EE0FFF1FE80FF91FA2
:1017B000E35AFC4F1F738081807C812B808380E201
:1017C00092E08E199F0964E070E00E94F21769832D
:1017D00080E699E08C199D0964E070E00E94F217A0
:1017E0006A83A8818A2F6CE00E94E617682F70E058
:1017F000AB01440F551F460F571F440F551F440F91
:10180000551F20E030E0C901840F951FFC01EE0F49
:10181000FF1FE80FF91FE35AFC4F808186FD15C0BA
:101820002F5F3F4F2C30310571F724C0109280009C
:1018300082E0809381001092850010928400B19A1A
:1018400080916F00826080936F008A2F90E0FC018E
:10185000EE0FFF1FE80FF91FE35AFC4F80818064F1
:1018600080838881DF91CF911F91FF90EF90DF906F
:10187000CF900895672BD1F2E8CF40E252E020E606
:1018800039E00E94BE0B08950F931F938C010496BC
:101890000E943D0CD801ED91FC910480F581E02D72
:1018A000C80109951F910F9108951F920F920FB6CD
:1018B0000F9211242F933F934F935F936F937F93D6
:1018C0008F939F93AF93BF93EF93FF938091810387
:1018D00087FF05C010928500109284002BC02091D4
:1018E0008103332727FD309580915C0390E0281712
:1018F000390704F580918103992787FD9095FC01B4
:10190000EE0FFF1FE80FF91FE35AFC4F808186FF9F
:1019100011C080918103992787FD9095FC01EE0FFE
:10192000FF1FE80FF91FE35AFC4F80818F7360E0BF
:101930000E942017809181038F5F80938103209103
:101940008103332727FD309580915C0390E02817B1
:1019500039070CF04EC0809181038C300CF049C0E7
:10196000209184003091850080918103992787FD23
:101970009095FC01EE0FFF1FE80FF91FE35AFC4F93
:1019800081819281280F391F30938900209388002C
:1019900080918103992787FD9095FC01EE0FFF1F31
:1019A000E80FF91FE35AFC4F808186FF2BC080911E
:1019B0008103992787FD9095FC01EE0FFF1FE80F2B
:1019C000F91FE35AFC4F80818F7361E00E9420175A
:1019D00019C080E49CE905C0809184009091850045
:1019E000049690938900809388008FEF8093810301
:1019F00009C08091840090918500049680549C4990
:101A000040F3EACFFF91EF91BF91AF919F918F91FA
:101A10007F916F915F914F913F912F910F900FBEEA
:101A20000F901F901895FC01862F6283738360E0EE
:101A30000E94E1160895FC01862F6283738360E0A3
:101A40000E94E11608950895DC011296ED91FC9133
:101A50001397A081B18112962D913C911397CF01DC
:101A6000F90109950895DC011296ED91FC91139707
:101A7000A081B18114962D913C911597CF01F90168
:101A800009950895DC011496ED91FC911597A081BC
:101A9000B18112962D913C911397CF01F9010995CF
:101AA0000895DC011496ED91FC911597A081B18108
:101AB00014962D913C911597CF01F9010995089540
:101AC000DC011896ED91FC911997A081B1811296D5
:101AD0002D913C911397CF01F90109950895DC01EF
:101AE0001896ED91FC911997A081B18114962D91D2
:101AF0003C911597CF01F90109950895EF92FF9256
:101B00000F931F93DF93CF9300D000D000D0CDB7B9
:101B1000DEB7FC01E680F7808E010F5F1F4FC80122
:101B20000E949013C701B8010E94FE08C8010E94DC
:101B30009A1326960FB6F894DEBF0FBECDBFCF9195
:101B4000DF911F910F91FF90EF900895FC0180812C
:101B500091810E94E40A0895FC01808191810E9494
:101B6000520B0895CF92DF92EF92FF920F931F9343
:101B70007C0184E090E00E94C815FC0100E412E0C2
:101B800011830083D70113969C938E931297C09074
:101B90004002D090410264E070E0F601099584E0D3
:101BA00090E00E94C815FC0111830083D7011596AF
:101BB0009C938E93149767E070E0F60109958BE093
:101BC00090E00E94C8158C018AE492E0F8019183AC
:101BD0008083C80104960E94EA09D7010D931C93E3
:101BE000D801ED91FC910190F081E02DC80168E0F1
:101BF00070E00995F701608571854281538180818C
:101C000091810E94400A8EE090E00E94C8158C01EC
:101C10008EE192E0D8018D939C93C80104960E94B6
:101C20006505F70117830683D801ED91FC910190BA
:101C3000F081E02DC80160E070E00995F701A68110
:101C4000B781ED91FC9111970280F381E02DCD01D8
:101C5000099584E090E00E94C815FC012CEF31E06A
:101C600031832083D70119969C938E9318972091E6
:101C7000FC013091FD0163E070E0F90109951F91CD
:101C80000F91FF90EF90DF90CF90089581309105F4
:101C9000B1F46F5F7F4F21F588E893E069E071E070
:101CA0000E94471381E993E06AE071E00E944713C4
:101CB00089E993E069E071E00E9447130895892B58
:101CC00079F46F5F7F4F61F489E993E00E949A1382
:101CD00081E993E00E949A1388E893E00E949A13A6
:101CE000089580E090E06FEF7FEF0E94460E089528
:101CF00081E090E06FEF7FEF0E94460E0895EF9233
:101D0000FF920F931F93DF93CF93CDB7DEB7C254EB
:101D1000D0400FB6F894DEBF0FBECDBF0E948D122B
:101D2000683071058105910509F4D5C069307105E8
:101D30008105910524F5653071058105910509F44A
:101D400079C0663071058105910564F463307105D1
:101D500081059105C9F1643071058105910509F08E
:101D600088C14DC0663071058105910509F47DC0BB
:101D7000673071058105910509F07BC191C06B3019
:101D800071058105910509F4F7C06C307105810575
:101D900091056CF4693071058105910509F4B6C0AF
:101DA0006A3071058105910509F063C1CAC06C30C4
:101DB00071058105910509F4FCC063367105810543
:101DC000910509F056C118C182E893E00E944901CB
:101DD0007C018E010F5F1F4FC8016CE071E00E9413
:101DE0004713C701B8010E947E0DC8010E949A13D3
:101DF00082E893E00E9449010E94240D3AC182E8E2
:101E000093E00E9449017C018E01095F1F4FC801C8
:101E10006FE171E00E944713C701B8010E947E0D77
:101E2000C8010E949A1382E893E00E9449010E942F
:101E3000330D1FC182E893E00E9449017C018E01AD
:101E4000035F1F4FC80165E371E00E944713C7019C
:101E5000B8010E947E0DC8010E949A1382E893E0A7
:101E60000E9449010E94AC0D04C182E893E00E94E7
:101E700049017C018E010D5E1F4FC80163E471E0D2
:101E80000E944713C701B8010E947E0DC8010E943D
:101E90009A1382E893E00E9449010E94A60DE9C0CE
:101EA00082E893E00E9449017C018E01075E1F4F8A
:101EB000C80164E571E00E944713C701B8010E94A0
:101EC0007E0DC8010E949A1382E893E00E944901A6
:101ED0000E94600DCEC082E893E00E9449017C011F
:101EE0008E01015E1F4FC80162E671E00E94471338
:101EF000C701B8010E947E0DC8010E949A1382E8B2
:101F000093E00E9449010E946F0DB3C082E893E004
:101F10000E9449017C018E010B5D1F4FC80163E7E0
:101F200071E00E944713C701B8010E947E0DC801ED
:101F30000E949A1382E893E00E9449010E94420D98
:101F400098C082E893E00E9449017C018E01055D02
:101F50001F4FC80164E871E00E944713C701B80130
:101F60000E947E0DC8010E949A1382E893E00E94AD
:101F700049010E94510D7DC082E893E00E94490111
:101F80008C0191E3E92EF12CEC0EFD1EC70168E9EE
:101F900071E00E944713C801B7010E947E0DC7017E
:101FA0000E949A1382E893E00E944D010E948909E1
:101FB0001CC082E893E00E9449018C0187E3E82E6F
:101FC000F12CEC0EFD1EC7016EEA71E00E94471372
:101FD000C801B7010E947E0DC7010E949A1382E8D2
:101FE00093E00E944D010E947A09682F86E893E0F1
:101FF00070E00E9486043DC082E893E00E9449019F
:102000007C018E01035C1F4FC8016BEB71E00E94E5
:102010004713C701B8010E947E0DC8010E949A13A0
:1020200068EE73E080E090E00E94211682E893E081
:102030000E9449010E94510D82E893E00E944901EB
:102040000E946F0D82E893E00E9449010E94A60D54
:1020500082E893E00E9449010E94330D81E993E0F8
:102060006AE071E00E946013E0919F03F091A00389
:102070000995CE5BDF4F0FB6F894DEBF0FBECDBF24
:10208000CF91DF911F910F91FF90EF900895EF9204
:10209000FF920F931F93DF93CF93CDB7DEB768976F
:1020A0000FB6F894DEBF0FBECDBF82E893E00E946A
:1020B0004901FC0186819781909387038093860371
:1020C0008E010F5F1F4FC80166E873E00E94300465
:1020D00081E993E0B8010E947913C8010E949A1324
:1020E00081E993E00E948D126130710581059105AF
:1020F00031F0623071058105910591F517C082E8D4
:1021000093E00E9449017C018E01095F1F4FC801C5
:102110006BEC71E00E944713C701B8010E947E0D6D
:10212000C8010E949A13109290033DC082E893E088
:102130000E9449018C012DE0E22EF12CEC0EFD1ED7
:10214000C7016CED71E00E944713C801B7010E94FE
:102150007E0DC7010E949A1381E08093900323C0F3
:10216000809190038823F9F081E993E00E948D1219
:10217000611571058105910571F08E010D5E1F4F8E
:10218000C80161E973E00E949013C8010E947F0EAC
:10219000C8010E949A1381E993E00E948D12709306
:1021A00098036093970368960FB6F894DEBF0FBE4E
:1021B000CDBFCF91DF911F910F91FF90EF900895C8
:1021C0000E944710089586E893E00E94450582E842
:1021D00093E00E9451010895CF92DF92EF92FF9217
:1021E0000F931F93CF93DF937C016B018A01C0E0B3
:1021F000D0E00FC0D6016D916D01D701ED91FC913A
:102200000190F081E02DC7010995C80FD91F015039
:1022100010400115110571F7CE01DF91CF911F918B
:102220000F91FF90EF90DF90CF900895CF93DF93C1
:10223000FB01EC01A881B9816081718144815581E4
:102240001296ED91FC9113970995DF91CF91089526
:10225000CF93DF93EC016115710519F420E030E0B4
:102260000FC0DB010D900020E9F71197A61BB70BFB
:10227000E881F9810280F381E02DAD0109959C018F
:10228000C901DF91CF9108954F925F927F928F9213
:102290009F92AF92BF92CF92DF92EF92FF920F93F5
:1022A0001F93DF93CF93CDB7DEB7A1970FB6F89406
:1022B000DEBF0FBECDBF2C01742ECB01223008F43F
:1022C0002AE019A231E2C32ED12CCC0EDD1E822EC3
:1022D0009924AA24BB24672D752FA50194010E947F
:1022E000051879018A01C801B701A50194010E946E
:1022F000C717472D461B0894C108D1084A3014F46B
:10230000405D01C0495CF6014083E114F104010520
:10231000110521F07E2C5F2DC801DDCFC201B60171
:102320000E942811A1960FB6F894DEBF0FBECDBF54
:10233000CF91DF911F910F91FF90EF90DF90CF90A1
:10234000BF90AF909F908F907F905F904F90089537
:10235000CF92DF92EF92FF920F931F93CF93DF9371
:10236000EC016A017B012115310541F4E881F98115
:102370000190F081E02D642F09951FC02A303105AE
:10238000D1F477FF17C0E881F9810190F081E02D49
:102390006DE209958C0144275527BA014C195D0956
:1023A0006E097F09CE012AE00E9444119801280F8E
:1023B000391F04C02AE00E9444119C01C901DF9129
:1023C000CF911F910F91FF90EF90DF90CF900895E4
:1023D000EF92FF920F931F937B019A010027F7FC66
:1023E0000095102FB801A7010E94A8111F910F910D
:1023F000FF90EF900895CF93DF93EC010E941316A6
:10240000688779878A879B87E881F9810680F781C9
:10241000E02DCE0109959C0197FF15C00E9413166F
:10242000288539854A855B85621B730B840B950B68
:102430002C813D814E815F81621773078407950768
:1024400018F32FEF3FEFC901DF91CF9108950F935C
:102450001F93CF93DF93182F092FEB0168EE71E0E4
:102460000E94471304C0812F902F0E940113CE01B8
:102470000E94FB11BC0197FFF6CF812F902FDF91B7
:10248000CF911F910F9108952F923F924F925F929B
:102490006F927F928F929F92AF92BF92CF92DF9274
:1024A000EF92FF920F931F93DF93CF93CDB7DEB7D9
:1024B0003B014C0119012A016D897E898F89988D14
:1024C0006A197B098C099D09621A730A840A950AA4
:1024D000A40193010E94C717E218F3080409150923
:1024E000A80197010E9427182A0D3B1D4C1D5D1D58
:1024F000B901CA01CF91DF911F910F91FF90EF9029
:10250000DF90CF90BF90AF909F908F907F906F9013
:102510005F904F903F902F900895FC0180819181B2
:10252000009729F420E030E040E050E004C00E9431
:10253000DC009B01AC01B901CA0108950F931F9300
:10254000CF93DF93EC018B016F5F7F4F888199817F
:102550000E94D514009711F480E005C09983888308
:102560001B830A8381E0DF91CF911F910F91089522
:10257000CF93DF93EC0188819981892B29F08A819F
:102580009B818617970760F4CE010E949E128823D4
:1025900041F08C819D81892B19F4E881F9811082A9
:1025A00081E0DF91CF910895EF92FF920F931F93F7
:1025B000CF93DF93EC017B016C817D81E114F10409
:1025C000C1F04115510599F08A01060F171FB80196
:1025D0000E94B812882369F0888199812C813D81FD
:1025E000820F931FB7010E940C011D830C8381E0B1
:1025F00001C080E0DF91CF911F910F91FF90EF908C
:102600000895DF93CF9300D0CDB7DEB769831A82E8
:10261000BE016F5F7F4F41E050E00E94D4120F90E7
:102620000F90CF91DF910895CF93DF93EC018881D4
:102630009981009711F00E943D14198218821D8221
:102640001C821B821A82DF91CF910895EF92FF9234
:102650000F931F93CF93DF93EC017B018A01BA01A3
:102660000E94B812882321F4CE010E94141307C0DF
:102670001D830C8388819981B7010E940C01CE01D2
:10268000DF91CF911F910F91FF90EF900895CF931D
:10269000DF93EC01198218821B821A821D821C8230
:1026A0006115710551F0DB010D900020E9F71197DC
:1026B000A61BB70BAD010E942613DF91CF910895A1
:1026C0000F931F93182F092F6115710559F0DB0126
:1026D0000D900020E9F71197A61BB70BAD010E94E2
:1026E000261302C00E941413812F902F1F910F9167
:1026F0000895CF93DF93EC01FB018617970761F0F4
:10270000608171816115710529F0448155810E94B4
:10271000261302C00E941413CE01DF91CF910895B9
:10272000FC011182108213821282158214820E948F
:1027300079130895FC01808191810E943D140895D0
:102740000F931F93CF93DF93BC018230910510F458
:1027500062E070E0E091AC03F091AD0340E050E046
:10276000A0E0B0E024C08081918186179707D0F067
:102770008617970771F482819381109729F0139639
:102780009C938E9312972CC09093AD038093AC03CF
:1027900027C04115510519F08417950718F48D01CC
:1027A000AC01EF01DF01828193819C01F901309737
:1027B000D1F641155105F9F0CA01861B970B8430FB
:1027C000910580F48A819B810115110521F0F801A2
:1027D0009383828304C09093AD038093AC03FE0186
:1027E000329645C0FE01E80FF91F6193719302977D
:1027F000998388833CC08091AA039091AB03892B75
:1028000041F48091EB019091EC019093AB038093A4
:10281000AA034091ED015091EE014115510541F49B
:102820004DB75EB78091E9019091EA01481B590BC1
:102830002091AA033091AB0324173507B0F4CA01E5
:10284000821B930B8617970780F0AB014E5F5F4F9B
:102850008417950750F0420F531F5093AB034093DA
:10286000AA03F9016193719302C0E0E0F0E0CF01A7
:10287000DF91CF911F910F910895CF93DF939C012A
:10288000009709F48FC0EC0122971B821A82609195
:10289000AC037091AD036115710581F48881998154
:1028A000820F931F2091AA033091AB032817390799
:1028B00039F5D093AB03C093AA0374C0DB0140E0A9
:1028C00050E0AC17BD0708F1BB83AA83FE0121913C
:1028D0003191E20FF31FAE17BF0779F48D919C91F0
:1028E0001197280F391F2E5F3F4F39832883129687
:1028F0008D919C9113979B838A834115510571F4A7
:10290000D093AD03C093AC034DC012968D919C91B2
:102910001397AD01009711F0DC01D3CFDA011396C4
:10292000DC93CE931297FA0121913191E20FF31FBC
:10293000CE17DF0769F488819981280F391F2E5F30
:102940003F4FFA01318320838A819B819383828365
:10295000E0E0F0E0DB0112968D919C9113970097D7
:1029600019F0BC01FD01F6CFAB014E5F5F4FDB01FB
:102970008D919C91840F951F2091AA033091AB03F8
:102980002817390779F4309729F41092AD03109283
:10299000AC0302C013821282425050405093AB03EA
:1029A0004093AA03DF91CF9108956F927F928F9207
:1029B0009F92AF92BF92CF92DF92EF92FF920F93CE
:1029C0001F93CF93DF938C01009729F4CB010E94D2
:1029D000A0138C01BBC08EEFE82E8FEFF82EE00E17
:1029E000F11E4801860E971E8E149F0408F4ACC099
:1029F000D7014D915C91119746175707B8F04530B4
:102A0000510508F4A3C0CA0104978617970708F474
:102A10009DC042505040461B570BF40141935193C7
:102A20006D937C93CF010E943D1490C05B01A41A6A
:102A3000B50A3801640E751EA091AC03B091AD03C8
:102A4000E0E0F0E0CC24DD2447C0A615B705A9F5E9
:102A5000CD91DC911197CE0102968A159B0568F104
:102A6000CE018A199B09029612962C911297139601
:102A70003C91059758F0F40122833383CA19DB098E
:102A8000D183C083D7016D937C9309C04E5F5F4FA4
:102A90004C0F5D1FF70151834083C901FC01C11434
:102AA000D10431F0D6011396FC93EE9312974EC0E9
:102AB000F093AD03E093AC0349C08D919C911197C5
:102AC000E817F90708F4FC016D0112968C91129732
:102AD00013969C919C01D901109709F0B6CF809173
:102AE000AA039091AB0386159705E9F4E617F7075B
:102AF000D0F42091ED013091EE012115310541F422
:102B00002DB73EB78091E9019091EA01281B390B5E
:102B100082169306C8F49092AB038092AA03F70141
:102B20007183608313C0CB010E94A013EC01009756
:102B300059F0D7014D915C91B8010E940301C80181
:102B40000E943D148E0102C000E010E0C801DF9138
:102B5000CF911F910F91FF90EF90DF90CF90BF909A
:102B6000AF909F908F907F906F9008950895CF932E
:102B7000DF930E9484160E94B6150E94E310C0E005
:102B8000D0E00E94E0102097E1F30E940000F9CF0E
:102B90000E94A01308951F920F920FB60F92112456
:102BA0002F933F938F939F93AF93BF938091A503F0
:102BB0009091A603A091A703B091A8033091A90317
:102BC0000196A11DB11D232F2D5F2D3720F02D570C
:102BD0000196A11DB11D2093A9038093A503909395
:102BE000A603A093A703B093A8038091A10390919B
:102BF000A203A091A303B091A4030196A11DB11D4E
:102C00008093A1039093A203A093A303B093A40382
:102C1000BF91AF919F918F913F912F910F900FBED8
:102C20000F901F9018958FB7F8942091A5033091BD
:102C3000A6034091A7035091A8038FBFB901CA0111
:102C400008959B01AC017FB7F8948091A103909106
:102C5000A203A091A303B091A40366B5A89B05C0ED
:102C60006F3F19F00196A11DB11D7FBFBA2FA92F8B
:102C7000982F8827860F911DA11DB11D62E0880F36
:102C8000991FAA1FBB1F6A95D1F7BC012DC0FFB7C2
:102C9000F8948091A1039091A203A091A303B09115
:102CA000A403E6B5A89B05C0EF3F19F00196A11D4E
:102CB000B11DFFBFBA2FA92F982F88278E0F911D06
:102CC000A11DB11DE2E0880F991FAA1FBB1FEA9545
:102CD000D1F7861B970B885E9340C8F22150304095
:102CE0004040504068517C4F211531054105510548
:102CF00071F60895019739F0880F991F880F991F71
:102D000002970197F1F70895789484B5826084BDA5
:102D100084B5816084BD85B5826085BD85B58160DF
:102D200085BDEEE6F0E0808181608083E1E8F0E03F
:102D30001082808182608083808181608083E0E86E
:102D4000F0E0808181608083E1EBF0E0808184604D
:102D50008083E0EBF0E0808181608083EAE7F0E04F
:102D600080818460808380818260808380818160B3
:102D700080838081806880831092C1000895982F9D
:102D80008E3008F09E5097708091EF018295880FE9
:102D9000880F807C892B80937C0080917A008064EE
:102DA00080937A0080917A0086FDFCCF2091780094
:102DB00040917900942F80E030E0282B392BC90115
:102DC0000895CF93DF93482F50E0CA018A5C9E4F4D
:102DD000FC0134914E5D5E4FFA018491882369F1C4
:102DE00090E0880F991FFC01EC5FFE4FA591B49114
:102DF000FC01E25FFE4FC591D491662351F42FB7D9
:102E0000F8948C91932F909589238C9388818923B2
:102E10000BC0623061F42FB7F8948C91932F90958A
:102E200089238C938881832B88832FBF06C09FB70B
:102E3000F8948C91832B8C939FBFDF91CF91089551
:102E4000482F50E0CA01865B9E4FFC012491CA01C5
:102E50008A5C9E4FFC0194914E5D5E4FFA01349165
:102E6000332309F440C0222351F1233071F0243080
:102E700028F42130A1F0223011F514C02630B1F031
:102E80002730C1F02430D9F404C0809180008F77BE
:102E900003C0809180008F7D8093800010C084B536
:102EA0008F7702C084B58F7D84BD09C08091B0004A
:102EB0008F7703C08091B0008F7D8093B000E32FA7
:102EC000F0E0EE0FFF1FE25FFE4FA591B4912FB728
:102ED000F894662321F48C919095892302C08C91FB
:102EE000892B8C932FBF0895682F70E0CB01865BF0
:102EF0009E4FFC012491CB018A5C9E4FFC014491C2
:102F00006E5D7E4FFB019491992319F420E030E02F
:102F10003CC0222351F1233071F0243028F42130B9
:102F2000A1F0223011F514C02630B1F02730C1F0E5
:102F30002430D9F404C0809180008F7703C0809141
:102F400080008F7D8093800010C084B58F7702C091
:102F500084B58F7D84BD09C08091B0008F7703C098
:102F60008091B0008F7D8093B000892F90E0880F12
:102F7000991F885E9E4FFC01A591B4918C9120E031
:102F800030E0842311F021E030E0C9010895629F10
:102F9000D001739FF001829FE00DF11D649FE00D51
:102FA000F11D929FF00D839FF00D749FF00D659FB2
:102FB000F00D9927729FB00DE11DF91F639FB00DB1
:102FC000E11DF91FBD01CF0111240895991B79E07E
:102FD00004C0991F961708F0961B881F7A95C9F7A9
:102FE0008095089597FB092E07260AD077FD04D017
:102FF00049D006D000201AF4709561957F4F08954E
:10300000F6F7909581959F4F0895A1E21A2EAA1B7D
:10301000BB1BFD010DC0AA1FBB1FEE1FFF1FA21788
:10302000B307E407F50720F0A21BB30BE40BF50B85
:10303000661F771F881F991F1A9469F7609570950E
:10304000809590959B01AC01BD01CF01089597FB40
:10305000092E05260ED057FD04D0D7DF0AD0001C5C
:1030600038F450954095309521953F4F4F4F5F4F25
:103070000895F6F790958095709561957F4F8F4FE5
:103080009F4F0895AA1BBB1B51E107C0AA1FBB1F7E
:10309000A617B70710F0A61BB70B881F991F5A95E4
:1030A000A9F780959095BC01CD010895EE0FFF1F03
:1030B0000590F491E02D099411E0C2E6D1E004C03E
:1030C000FE010E9458182296C436D107C9F7F89419
:0230D000FFCF30
:1030D2003000456E766F7965000031004163746996
:1030E2007665204C656420506F727461696C00448F
:1030F2006573616374697665204C656420506F72F4
:103102007461696C00416374697665204D6F746502
:10311200757200446573616374697665204D6F74DE
:10312200657572004163746976652042757A7A65C5
:1031320072004465736163746976652042757A7AB8
:10314200657200416374697665204C656420466C43
:1031520061736800446573616374697665204C65C8
:103162006420466C61736800526563757020436128
:103172007074657572204C756D6965726500526573
:1031820063757020426F75746F6E002120212021BB
:1031920052455345542120212021004D6F64652062
:1031A2004175746F6D617469717565004D6F646509
:1031B200204D616E75656C00008000AE0300000159
:1031C20000000000130D2801000000001B0D380153
:1031D200320100000000130D3E0100000000510307
:1031E200EC103703160314040304000000007309F3
:1031F200AE08B208000000006D05A205E205EB056D
:103202000006110600000000E506EC1000000000B8
:103212001B0DE409DE0900000000440CCA0AAE0AD4
:0832220000000000130D230D54
:00000001FF
